:020000041004E6
:1000000000000120911B041025120410C10E0410E1
:10001000AA5555AA45554C420000000000000000BA
:10002000000000000000000000000000751E041029
:100030000000000000000000F70204109D1F0410E3
:100040003D0804108F1B041041130410C30E04104C
:10005000C50E04106F1E0410711E0410731E0410D0
:10006000352504108510041035230410B11B04102D
:10007000B907041079120410312504103F08041048
:1000800041080410ED070410E5070410BF07041031
:10009000C10704108D1B041087100410E907041019
:1000A000E7070410C3070410000000000000000070
:1000B0000000000000000000000000000000000040
:1000C00000F002F800F0ECF80CA030C80838241852
:1000D0002D18A246671EAB4654465D46AC4201D180
:1000E00000F0DEF87E460F3E0FCCB64601263342C6
:1000F00000D0FB1AA246AB4633431847003F00002E
:10010000303F0000103A02D378C878C1FAD85207BD
:1001100001D330C830C101D504680C6070470000BD
:100120000023002400250026103A01D378C1FBD813
:10013000520700D330C100D50B60704710B5904214
:1001400016D98AB2030C090C0C46594380B25343AA
:10015000444350431B191A041B0C101859418022A8
:100160005203002312184B41520DD802104310BD08
:100170004843802252031218520D104610BD000051
:10018000EFF31482EFF30981154880F31488BFF36D
:100190006F8FF0B543464C4655465E466746F8B409
:1001A000104CEFF30883636006B4BFF34F8F30BF8A
:1001B00000BF00BF0B4C646884F3088882B003BCA6
:1001C000F8BC9846A146AA46B346BC46F0BC04BC5F
:1001D00080F3098881F31488BFF36F8F1047000004
:1001E00000000000040000208B0707D0521E22D31D
:1001F0000B78491C0370401C8B07F7D1830730D064
:10020000DB4219D0401E121F08D308C943701B0AD5
:1002100043801B0C0371001D121FF6D2D20707D3B7
:100220000B88437001D08A78C2701B0A83707047B4
:1002300001D00B7843707047121F06D308C90380A2
:100240001B0C4380001D121FF8D2D20705D30B8868
:10025000038005D08B788370704701D00B780370D2
:10026000704770B4103A03D378C978C0103AFBD203
:10027000530701D318C918C001D508C908C0D2074F
:1002800004D30B880380801C891C002A01D50B78BD
:10029000037070BC704700001FB51FBD10B510BDC6
:1002A00003488546FFF7F8FF02F0CEFC00F057FA4E
:1002B0000000012003B4FFF7F1FF03BC00F058FA7F
:1002C000084B19680868203080F30988022080F301
:1002D0001488BFF36F8F3FBCAE4608BC04BC62B647
:1002E000184700009C030020EFF3108072B670479F
:1002F00080F310887047EFF309800E4B1A6820389E
:100300001060F0C044464D4656465F46F0C008B502
:1003100072B603F051FA62B60CBC1168086810306E
:10032000F0C8A046A946B246BB4680F309882038EB
:10033000F0C818479C03002070B505460C461646C9
:1003400002E00FCC0FC5103E102EFAD2082E02D3B9
:1003500003CC03C5083E042E07D301CC01C5361FCC
:1003600003E021782970641C6D1C761EF9D270BDE3
:100370004343514330B55C18010C130C0D4692B247
:100380005D4380B251432C19054655430A0C0904BC
:100390004D1962415843010C00044019514130BDD0
:1003A000FEB5054610460C46184373D0AE468C4643
:1003B0000020AD1A01469C4167D366460027012400
:1003C0003D46B61A9D4102D313463A46212465465E
:1003D00076462F04360C3E432D0CB61A9D4104D3AD
:1003E000150C1B042B4312041034654676462F0669
:1003F000360A3E432D0AB61A9D4104D3150E1B0240
:100400002B4312020834654676462F0736093E43D1
:100410002D09B61A9D4104D3150F1B012B43120160
:10042000241D65467646AF07B6083E43AD08B61AAA
:100430009D4104D3950F9B002B439200A41C65465D
:100440007646EF0776083E436D08B61A9D411AD3EB
:1004500092185B41641C16E00018764665464941D7
:10046000B71A9D410191009009D36046B11A984195
:100470008E468446009801990025401C6941DD079D
:1004800052082A435B08641EE6D57246634603B0F1
:10049000F0BDFFE700200146C046C0462A4623467D
:1004A000F5E7F8B5042A2CD3830712D00B78491C42
:1004B0000370401C521E83070BD00B78491C03703D
:1004C000401C521E830704D00B78491C0370401C4B
:1004D000521E8B079B0F05D0C91ADF002023DE1B9D
:1004E00008C90AE0FFF728FFF8BD1D4608C9FD400E
:1004F0001C46B4402C4310C0121F042AF5D2F30846
:10050000C91A521EF0D40B78491C0370401C521EAD
:10051000EAD40B78491C0370401C012AE4D4097802
:100520000170F8BDD2B210B513029A1813049A18CC
:1005300000F00EF810BD01E004C0091F0429FBD231
:100540008B0701D50280801CC90700D0027070475C
:1005500000290BD0C30702D00270401C491E02299B
:1005600004D3830702D50280801C891EE3E70022A2
:10057000EEE70022DFE7002203098B4273D3030A70
:100580008B4258D3030B8B423CD3030C8B4221D3B9
:1005900012E003460B437FD4002243088B4274D3FE
:1005A00003098B425FD3030A8B4244D3030B8B4274
:1005B00028D3030C8B420DD3FF22090212BA030C7D
:1005C0008B4202D31212090265D0030B8B4219D35E
:1005D00000E0090AC30B8B4201D3CB03C01A52417E
:1005E000830B8B4201D38B03C01A5241430B8B42C6
:1005F00001D34B03C01A5241030B8B4201D30B03AF
:10060000C01A5241C30A8B4201D3CB02C01A5241D5
:10061000830A8B4201D38B02C01A5241430A8B4298
:1006200001D34B02C01A5241030A8B4201D30B0281
:10063000C01A5241CDD2C3098B4201D3CB01C01A9B
:10064000524183098B4201D38B01C01A52414309A5
:100650008B4201D34B01C01A524103098B4201D393
:100660000B01C01A5241C3088B4201D3CB00C01A00
:10067000524183088B4201D38B00C01A5241430878
:100680008B4201D34B00C01A5241411A00D201469D
:100690005241104670475DE0CA0F00D04942031036
:1006A00000D34042534000229C4603098B422DD385
:1006B000030A8B4212D3FC22890112BA030A8B422D
:1006C0000CD3890192118B4208D3890192118B427C
:1006D00004D389013AD0921100E08909C3098B4201
:1006E00001D3CB01C01A524183098B4201D38B0144
:1006F000C01A524143098B4201D34B01C01A5241E7
:1007000003098B4201D30B01C01A5241C3088B422B
:1007100001D3CB00C01A524183088B4201D38B0016
:10072000C01A5241D9D243088B4201D34B00C01AA0
:100730005241411A00D20146634652415B101046B5
:1007400001D34042002B00D54942704763465B10FD
:1007500000D3404201B50020C046C04602BD10B5DE
:100760000446C046C0462046FFF7A4FD10BD000069
:1007700001491820ABBEFEE726000200704730B5E5
:100780008C180278401C13071B0F01D10378401C02
:10079000120906D10278401C03E00578401C0D7058
:1007A000491C5B1EF9D101E00B70491C521EFBD1A4
:1007B000A142E6D3002030BD704703207047704748
:1007C0007047704710B5002402F056FE002805D18E
:1007D00003480068C07A002800D10324204610BDD9
:1007E000F4030020704770477047000010B5074CB5
:1007F0002068800702D5064800F049F82068800686
:1008000002D5044800F043F810BD00000000704815
:10081000782700202C27002008B50748012102690D
:100820000A430261006908400090112000F0C4F8FA
:10083000112000F0B5F808BD4000404870477047EF
:10084000704770B50024014620314A79022A03D04E
:100850000421C163012418E0026813680E25AB432C
:100860001360026813685B085B001360436C3C22F2
:10087000134001252A469A40036C5A604D710022AC
:100880000A71816B002900D08847204670BDF0B402
:10089000016C0C6801680B68456C3C2604223540ED
:1008A0001746AF4027420ED05F070CD50B689B065A
:1008B00002D40B6893430B60416C31408A40016C59
:1008C0004A60016B1AE00227AF40024627402032FF
:1008D000002F17D09F0715D50B689B0605D40B6812
:1008E0000A24A3430B6001215171436C0221334060
:1008F0009940036C596000211171C16A002918D018
:10090000F0BC08470827AF40274212D01B0710D57C
:100910000B680E24A3430B60436C012133400C464B
:100920009C40036C5C60C163517100211171416B8B
:10093000E4E7F0BC704710B50024032000F008F88D
:10094000002801D0012401E000F024F8204610BD69
:10095000F8B50F4E002471680546002915D07D209A
:10096000C000FFF708FE074600F0FCF83946FFF725
:1009700002FE00F0FDF8002807D1042D05D229461B
:10098000401E00F019F8356000E001242046F8BD53
:100990007403002010B50021481E00F00DF810BDB2
:1009A000002805DBC106C90E012088400149086006
:1009B0007047000000E100E010B501F08BFF10BDB2
:1009C000FFB585B00E9D0020EFF31086009072B643
:1009D00007465D488760FFF7F5FE002851D005986F
:1009E000FFF7EBFE0446059800F0A8F90390059880
:1009F00000F019FC01460598844200D30446039890
:100A0000A04200D32046814200D20846044600207E
:100A1000C04300F0B5FA002C0CD0012C10D0684671
:100A2000007E002803D00120C00300F0B1FA022CA0
:100A30000CD00FE038462F7086F3108809B0F0BD57
:100A400030BF0120287086F310887BE0032000036C
:100A500000F09EFA08990798084300F099FA0021DF
:100A6000089800F0ABFA0121079800F0A7FA06A950
:100A70000EC9204600F066FC009000F095FA33495C
:100A8000486086F3108830488068002829D02F4EAF
:100A90007068002855D0706869460F710F72BC46A7
:100AA000010C2B4F8E4639400F2703463F023B4037
:100AB000194373463B400022C0B2264F034307D080
:100AC000B8691B04184203D001206A46107202461E
:100AD000002908D0B869084205D00120694608718C
:100AE00006E000242DE0002A2BD06046002806D026
:100AF00070681949084202D00F2001F0ADFE684627
:100B0000077A002F06D070681449084202D01020DE
:100B100001F0A2FE706800F023F868460079002812
:100B200006D070680C49084202D00F2001F0A4FEE4
:100B3000002F06D070680949084202D0102001F049
:100B40009BFE2C70009879E70400002068030020C9
:100B5000FFF0000000000040000FFFF0FF00000F5A
:100B60007047000001480068704700005C030020E7
:100B7000094910B5401E884201D9012010BD074C1B
:100B800060610321081F01F0A5FE0020A06107207D
:100B90002061002010BD0000FFFFFF0000E000E02A
:100BA0007047704770470000F8B503680446D8697D
:100BB00019689A6806072546360F8035002E60D0E2
:100BC000534EFF27213716400F40374372D0C707D7
:100BD00006D0CF0504D501271F62AB683B43AB604D
:100BE000830708D5D30706D0276802233B62AB688A
:100BF00004273B43AB60430708D5D30706D02768DB
:100C000004233B62AB6802273B43AB60030709D573
:100C100020230B40334305D0266808233362AE6897
:100C20001E43AE60AB68002B38D080060AD520206A
:100C30000140C0050240114304D0E16E002901D0FB
:100C400020468847A86821688968490601D40007BA
:100C500029D5204601F058FC2068816849061ED538
:100C6000826840218A438260A06F002817D02949FA
:100C70008163A06FFFF7E5FD00280FD0A06F816BA7
:100C80000BE0860616D5012720263F070E401740A9
:100C90003E430FD0E16E17E020468847F8BD20465E
:100CA000FFF780FFF8BD2046FFF77CFF0020A8601B
:100CB000F8BDFFE706060AD501278026FF050E408E
:100CC0003A40164303D0216F0029E5D1F0E74206F0
:100CD0000DD54A060BD5196820464022914319606C
:100CE000202129600021216700F016F8E0E70202C8
:100CF00005D54A0003D52046FFF753FFD8E7C001CA
:100D0000D6D50029D4DA2046FFF74AFFD0E7000005
:100D100001000010F52404107047801A10B59941A5
:100D20000A220023FFF724FB0A05000B1043090BDE
:100D300010BD10B501F000FB10BD0000F8B5044671
:100D400000F060F8002840D0684601F0FDFA2B4E14
:100D50000027717A002902D1B17A002919D001281F
:100D600032D001F0E9FA04460D4601F0D5FD211814
:100D700022487D4130380069002208187D411E213B
:100D80004118554132687068511AA8411CD3022499
:100D900003E0022818D0012816D0184D303DA8686D
:100DA000002828D0007B002825D001F0C5FA2A6948
:100DB0001E2380187941C318A86800225141056894
:100DC0004268EB1A8A4101D20120F8BD032C11D1EF
:100DD000016900290ED10949183988420AD1002039
:100DE00001F0D2FE0648016B012292079143016394
:100DF0000320F8BD02242046F8BD00003004002086
:100E0000001800600548017D427D914202D10079C1
:100E1000002801D000207047012070470004002006
:100E2000F8B506460F4601F087FA0D4639460446E6
:100E30003F0D08030A2200233946FFF7B1FA2218B2
:100E40002B464B41304601F0EDFDC4B2012001F0CC
:100E50009BFE2046F8BD0000F8B5184C0546A0687A
:100E60002B4606460246002101E011461269002A7F
:100E700007D09A42F9D1824201D1106901E012698A
:100E80000A6100216A4611702973864214D0114606
:100E900001F012FEA0606846007800280BD0EFF346
:100EA000108172B6207D637D421C9A4200D0401CA6
:100EB000207581F31088F8BDA060F8BD0004002003
:100EC000FEE770477047000003490969884301D075
:100ED000002070470120704740004048034949699D
:100EE000884301D0002070470120704740004048EF
:100EF00003498969884301D0002070470120704769
:100F00004000404808B504490A6A02430A62096A77
:100F10000140009108BD0000400040480349096AB3
:100F2000884301D0002070470120704740004048AE
:100F3000012805D0022805D0032806D001207047DB
:100F4000074A04E0064A243201E0054A48320020FC
:100F5000135C0B54401CC0B22028F9D3002070470A
:100F60006C04304804480078002803D10348006826
:100F7000002800D001207047700300200004304892
:100F8000024982B20A61000C886370470000504831
:100F900004498A6883B21A438A600A6B000C0243D0
:100FA0000A6370470000504803480169806B89B2AA
:100FB00000040843704700000000504882B2084B0C
:100FC000000C0129D96805D09143D960596B814340
:100FD000596370471143D960596B0143F8E700002A
:100FE00000005048064881680422914381600168EE
:100FF0004905C90FFBD08168022291438160704787
:101000000000404808B508498868022210438860FB
:101010000020009000BF401C00900628FADB886882
:1010200004221043886008BD0000404805488168DC
:10103000890704D58068400701D50120704700204A
:101040007047000000004048034801680122520335
:10105000914301607047000000004048034A9168D6
:10106000E02399430143916070470000000040482D
:10107000034A116A06239943014311627047000035
:101080004000404870477047F8B5002815D0202030
:10109000FFF7E4FF0220FFF7EBFF5D480121026844
:1010A0000A4302600168490849000160026A01219F
:1010B0000A430262006A084000905648816B564A13
:1010C000914210D1816A09050A0F816A09040E0F45
:1010D000816A836A0903090F5B02806A5D0F400120
:1010E000440F012303E008220726114600234B4842
:1010F000876B3F093F010F438763416BF027B9437B
:10110000360131434163416B0909090111434163D0
:10111000002B0DD081686A07C908C900520F11431E
:1011200081608168382291436207920E1143816089
:101130003A4880300168890989010A3101600268F2
:1011400040210A430260426892099201121D4260E6
:10115000426880231A43426042688A434260816A3F
:10116000890989018162C16A890989011031C162D5
:10117000016B8909890120310163416B890989016A
:1011800030314163816B8909890138318163C16BD9
:10119000890989013931C1632048C0300168890952
:1011A00089013A3101604168890989013B31416017
:1011B0008168890989013C318160C1688909890197
:1011C0003D31C16016488168090A090255318160C4
:1011D0004169090A090266314161816A090A090205
:1011E000553181620E4940318A68120A12021D325D
:1011F0008A604A68120A120259324A60CA68120AA0
:1012000012023232CA60C16A01221143C162F8BDC2
:1012100040004048C01E0010CCECBCFC40160060F2
:1012200040150060704710B500F006F8002801D0A6
:10123000012010BD032010BD04480068012802D021
:101240000120C04370470020704700008003002049
:10125000EFF3108072B607490A68032A04D080F3BE
:1012600010880120C043704701220A6080F3108873
:101270000020704780030020F8B52E4E70680127CB
:101280004007C00F2C4C2D4D00280DD07068042154
:1012900008437060706888437060FFF7D9FF2F6063
:1012A00022682946781F904770680007C00F0ED04B
:1012B0007068082108437060706888437060FFF7A9
:1012C000C7FF0220286022681C49801F9047706871
:1012D000C007C00F25D07068384370607068400840
:1012E00040007060FFF73EFE01281BD00020014641
:1012F0008200401CA9501828FADB10490120FFF792
:1013000017FE0E4902202031FFF712FE0B49032081
:101310004031FFF70DFEFFF79BFF084900202268D0
:101320009047F8BDFFF794FF032028600349C01FD2
:10133000F5E700000000304884030020E8040020A6
:1013400070470000FFB5FFB0F2B00024A0211AA83A
:10135000FFF70FF90020A190A290A390A490A59070
:10136000A6901821DAA8FFF704F92C218BA8FFF723
:1013700000F92C2196A8FFF7FCF868216846FFF7D2
:10138000F8F84021CAA8FFF7F4F824215AA8FFF77B
:10139000F0F8242163A8FFF7ECF824216CA8FFF7EC
:1013A000E8F85821B4A8FFF7E4F8302142A8FFF785
:1013B000E0F830214EA8FFF7DCF82C2175A8FFF7E4
:1013C000D8F82C2180A8FFF7D4F80120FFF77CFD86
:1013D00000280AD091212022C905E0A8FEF704FFC9
:1013E000A022FE491AA8FEF7FFFE01208004FFF7A5
:1013F0006BFD002804D00C22F949A1A8FEF7F4FEE9
:1014000001200004FFF760FD002804D00C22F549FC
:10141000A4A8FEF7E9FE01200003FFF755FD002810
:1014200004D01822F049DAA8FEF7DEFE0420FFF708
:101430004BFD002805D009212C22C9068BA8FEF7F8
:10144000D3FE0820FFF740FD002804D02C22E749F6
:1014500096A8FEF7C9FEFF200130FFF73FFD0028E8
:1014600004D040221106CAA8FEF7BEFE0120FFF7F5
:1014700035FD002804D06822DD496846FEF7B4FE39
:101480000120FFF735FD002804D02422D9495AA8AD
:10149000FEF7AAFE01200003FFF72AFD002804D072
:1014A0002422D54963A8FEF79FFE01208003FFF7A1
:1014B0001FFD002804D02422D0496CA8FEF794FE1A
:1014C0001020FFF715FD002804D05822CC49B4A8FD
:1014D000FEF78AFEFF200130FFF70AFDF0AA517ADD
:1014E000A891002806D0002904D13022C54942A87D
:1014F000FEF77AFE01208002FFF7FAFC002804D0F4
:101500003022C1494EA8FEF76FFE01204005FFF7CB
:10151000EFFC002805D041212C22090675A8FEF712
:1015200063FE0120C005FFF7E3FC002804D02C2255
:10153000B64980A8FEF758FEB54A9068B090B54805
:101540004068AE90B4480068AF900020B34D810071
:101550004E193668401CE8ABC0B25E500828F5D37F
:10156000AB48006AB390AE480269B2924069AD4D93
:10157000B190286BAD90A86BAC90AA48403002693E
:10158000AB928069AA900120FFF7C8FC002802D125
:101590000120FFF7B7FCA448806A8000A248816A56
:1015A00002D40205114301E049004908816201208B
:1015B000FFF7B4FC002805D19A484030016A490879
:1015C00049000162F19803280ED12868A790286885
:1015D000C006C00F04D0296810208143296003E0B1
:1015E0002868042188432860904900200968904AAF
:1015F0005039A9918F4F11608D4E316804C9830015
:10160000401CFA50C0B231601428F5D3FFF7CCFC6F
:10161000F39AF499114308427ED18748016801602A
:10162000012000F07FFDFFF701FD00280ED0FFF73D
:10163000D9FCA9682020E02291430143A9602868D1
:101640000121490308432860012600E00026FEF737
:1016500097FD002000F066FDF198032816D1A798A9
:10166000400703D52868042108432860A798C006CE
:101670000CD571480321826A09038A438262C26AD7
:101680008A43C26228681021084328606B4880683A
:1016900000287DD0664BA999002019606549820019
:1016A0008A58196804C1401CC0B219601428F5D3C7
:1016B0005749B09888605749AE9848605649AF98E6
:1016C0000860564F0020E8AB81005A58C9190A60DB
:1016D000401CC0B20828F7D35248AD990163AC99B9
:1016E00081635048AB9940300161AA998161012022
:1016F000FFF7EAFB002815D091202022E0A9C005C1
:10170000FEF772FD00201B90209025902A902F90CC
:10171000349039903E9000E00DE2A0221AA92F48A3
:10172000FEF762FD01208004FFF7CEFB002804D005
:101730000C22A1A92A48FEF757FD01200004FFF75B
:10174000C3FB002804D00C22A4A92648FEF74CFDB8
:1017500001200003FFF7B8FB002804D01822DAA903
:101760002148FEF741FD0420FFF7AEFB00280BD017
:1017700093990920C0060162949941629099416150
:101780002C228BA9FEF730FD0820FFF79DFB00E01F
:10179000D2E100280AD09E99144801629F994162C3
:1017A0009B9941612C2296A9FEF71EFDFF20013076
:1017B000FFF794FB002804D04022CAA91006FEF7C8
:1017C00013FD0120FFF78AFB00283ED0009D009802
:1017D0004008400000906822694631E000007048EF
:1017E0000000604800003048000020480000104819
:1017F0000020004000200041003000410070004106
:1018000000600041005000410040004100100041D4
:1018100000ED00E00010004000E100E000E400E026
:1018200000E000E0000040480018006000000410E4
:1018300068030020580400200000504804000020E5
:10184000C24F3846FEF7D0FC3D600120FFF750FB49
:101850004025002810D05A9F5A98A8435A900C222D
:101860005AA9BB48FEF7C0FCB94814225EA9103043
:10187000FEF7BAFCB648076001200003FFF738FB0B
:10188000002810D0639F6398A84363900C2263A93B
:10189000B048FEF7A9FCAF48142267A91030FEF744
:1018A000A3FCAC48076001208003FFF721FB002860
:1018B00010D06C9F6C98A8436C90A74D0C226CA91B
:1018C0002846FEF791FCA448142270A91030FEF7B8
:1018D0008BFC2F601020FFF70BFB002804D0582250
:1018E000B4A99E48FEF780FCFF200130FFF700FB03
:1018F000002810D0A89800280DD1429D4298400899
:1019000040004290964F242242A93846FEF76CFCD4
:101910004D98F8623D6001208002FFF7E9FA002847
:101920000DD04E9D4E98400840004E908D4F242281
:101930004EA93846FEF758FC5998F8623D600120E0
:101940004005FFF7D5FA00280CD0759D7598400822
:101950004000759041273F06202275A93846FEF7C2
:1019600043FC3D600120C005FFF7C2FA00280BD000
:10197000809D80984008400080907B4F202280A965
:101980003846FEF731FC3D600120FFF7C7FA00281A
:101990000CD10120FFF7B6FA7448816A4900490862
:1019A00081627348016A490849000162714DFF2153
:1019B00001225F31286800F035FC05E000F04AFCA8
:1019C000002801D0042405E0694F403F38688003B7
:1019D000C00FF3D000221146104600F023FC002E69
:1019E00015D0FFF70FFBFFF72FFB0120FFF796FA4B
:1019F000614E002846D0B004016800680906090F4E
:101A000009010007000F0143102916D03AE0012216
:101A1000C821286800F006FC05E000F01BFC002847
:101A200001D0052403E038684004C00FF5D000223F
:101A30001146104600F0F6FBD7E74D48006A4F4AC2
:101A400006210840530002280AD0114628684C4F4E
:101A5000884211D0B04205D1914203D12A200AE038
:101A60001946F3E7B04201D1994203D0984203D11D
:101A7000914201D12920386078680007FCD4002009
:101A8000FFF702FBF19803284BD1FF2101225F31C0
:101A9000286800F0C7FB2868B04201D1042700E0A5
:101AA00001273348002640380168C906C90F16D1FE
:101AB00022E000F0CFFB002811D000221146104692
:101AC00000F0B0FB3046761CF6B2B84201D30224D7
:101AD00022E0FF2101225F31286800F0A3FB2448A7
:101AE000403800688006C00FE3D015E000F0B2FB7C
:101AF000002802D0032404E0054628680007C00F30
:101B0000F4D00120FFF70AFA002805D0032C03D0F7
:101B1000164801690F29FCD000221146104600F03A
:101B200081FB1849B39808621748B19941610021B7
:101B30008161B299016105E0002E03D0FFF762FADE
:101B4000FFF782FA7FB0204676B0F0BD002000405B
:101B50000020004100300041007000410060004161
:101B6000005000410040004100100041001800609A
:101B7000400040485C0300200090D0030024F400A3
:101B80000050004000ED00E000E000E070477047CA
:101B900000F0C8FE012805D0044880F3088801F051
:101BA00053F8FEE7FEF78CFAFBE700000000012087
:101BB0007047000070B50C460546FF283AD0042C4B
:101BC0001DD0052C1BD0062C19D0072C17D0032CA8
:101BD00001D1002D13D0012D13D0032C11D00220E0
:101BE000FFF746FA01208007016800680906090F1F
:101BF00009010007000F0143102907D01AE0012056
:101C000070BD0420FFF734FA0125EBE70B48012CE7
:101C100002D0022C07D008E0012D02D0002D0BD0FD
:101C200003E02A2102E0012D06D02821016041684D
:101C30000907FCD4002070BD2921F7E700500040BF
:101C400010B500F07FFC10BDF8B507460A481546F0
:101C500000780E46002801D100F074FCEFF31084E8
:101C6000012080F310882A463146384600F006F8F5
:101C7000E1B281F31088F8BDC427002070B50E468C
:101C800018214843134914464518E86A18350028B6
:101C900004D001280FD0022805D113E0284600F017
:101CA00085FCA04201D2002411E02246314628469C
:101CB00000F0A7FD0BE0284600F078FCA042F4D22B
:101CC0000446F2E73146284600F06BFD0446204604
:101CD00070BD0000C42700200FB408B504A900910E
:101CE0006A46039900F004F801B008BC04B0184734
:101CF000F7B598B007A802904020039000200C464A
:101D00000490189915460826069105902178641CC0
:101D1000002970D0252907D002A800F023FD0598DE
:101D20000028F3DA1BB0F0BD012200201346022781
:101D3000217823291BD02B2916D02D2902D0302918
:101D400006D101E0184300E03843641C002AEFD1BB
:101D5000002122781346303B0A2B0AD20A2359432A
:101D600089183039641CF4E704210843EDE7304357
:101D7000EBE70023D7B22E2F0AD1641C2278174636
:101D8000303F0A2F04D20A277B439B18303BF4E7ED
:101D90006C2A0DD0682A0BD0702A48D00BDC252A7B
:101DA0004FD0582A28D0632A0CD0642A4DD10EE097
:101DB0006278641CECE7732A2AD0752A13D0782A3B
:101DC00043D119E02868011D296001783AE02A68AA
:101DD000171D2F601768009101900A22394602A84A
:101DE00000F0EFFB31E02A68171D2F6017680A2208
:101DF0000091019007E02AE02A68171D2F601768FC
:101E0000102200910190394602A800F03FFC1CE02E
:101E10002868011D2960076839787F1C002914D0C3
:101E200002A800F09FFC05980028F5DA0DE028686C
:101E30000823011D296001680020102200960190EE
:101E4000E2E7252102A800F08DFC641C67E700286A
:101E500000DC67E70498002804D0024607A9189818
:101E6000FFF7F2FE04990598401805905AE770476D
:101E70007047704770470000F8B500240122C82160
:101E8000414800F0CFF9414D05E000F0E3F90028AA
:101E900001D0012403E068694007C00FF5D000229B
:101EA0001146104600F0BEF9002C01D02046F8BDC6
:101EB00036492020CA6930239A430243CA61344C10
:101EC000C101A06888430843A060324B996B324837
:101ED000814211D1586A0207586A120F4006410F19
:101EE000586A5D6A0005000F2D042D0F00955B6A8E
:101EF0009B029D0E012304E008221E2500231046AC
:101F00000321E6683F273F06BE432D062E43E660C9
:101F1000E5680126F6053543E56001271E25002BFF
:101F200008D0009BE6685B00AE431E43E660E368B2
:101F30003B43E360154B80335C694000AC43044392
:101F40005C6158693843586158690F24A401A04363
:101F50009201104358615869202210435861586912
:101F60000722D2029043C9020843586158690121EF
:101F700089020843586105488A10C1699143114399
:101F8000C1610020F8BD00000024F40000005048AA
:101F900000004048C01E0010CCECBCFC10B5FEF7A1
:101FA000A3F9044601F088FE002803D0012003496C
:101FB000000748602046FEF79BF910BD00ED00E0E9
:101FC000F8B505460024012264214C4800F02AF9A6
:101FD0004B4E3068012109040843306005E000F0F1
:101FE00039F9002801D0042403E030688003C00FD1
:101FF000F5D000221146104600F014F9002C6BD1E8
:10200000002D0AD028463F4F3F4D030000F017FC3B
:10201000085224292E3E43484D5201208007016872
:1020200000680906090F09010007000F0143102984
:1020300010D0B06802210843B0600020009000BFBB
:10204000401C00900628FADBB06804210843B06009
:102050000020F8BD0620F8BD0020FEF7FFFF2F602E
:1020600009E02020FEF7FAFF244803E04020FEF7B5
:10207000F5FF264828600122C821286800F0D2F820
:10208000306801214903084330601AE06020FEF700
:10209000E5FF1F48EEE78020FEF7E0FF1D48E9E777
:1020A000A020FEF7DBFF1C48E4E7C020FEF7D6FFC8
:1020B0001A48DFE7FEE700F0CDF8002801D005243C
:1020C00003E030684004C00FF5D0002211461046EE
:1020D00000F0A8F8002C01D02046F8BD286810496F
:1020E0003022B84205D14B681020934303434B6024
:1020F000AEE7486890434860AAE700000048E8015E
:10210000000040480090D0035C0300200024F4004D
:1021100000127A0000093D0080841E0040420F003A
:1021200000100040044904220028086901D010432F
:1021300000E090430861704700ED00E070B50D4687
:1021400006463349314888603249086132482021C7
:1021500042680A434260426840210A434260426842
:1021600080210A434260FFF787FE00284DD1FF21FE
:10217000002401222D31294800F054F82849012378
:1021800088681B040322D2039043184388600868C0
:1021900004221043086005E000F05CF8002801D03C
:1021A000032403E008680007C00FF5D000221146A1
:1021B000104600F037F8200027D1FF2D02D0012073
:1021C000FEF762FF1648803081693F221202914378
:1021D000012252031143816181698022114381618F
:1021E0008269302170239A430A4382613046FFF7A7
:1021F000E7FE002809D131462846FFF7DBFC00281E
:1022000003D101F0C1F862B6002070BD00000410D7
:1022100000ED00E004000020000050480024F4001D
:102220000000404870B50A4C0D46002A0AD07D21B6
:10223000C900FEF7A0F9401E684360610020A0615C
:10224000052002E0206940084000206170BD0000C8
:1022500000E000E003480069C00301D50120704799
:102260000020704700E000E07CB5002402252346F2
:102270000F4A10A112480095019401F0DFFC0146BD
:10228000012802D00FA000F0F5FCFF2200235F32EE
:1022900016A11B480095019401F0D0FC01460128CD
:1022A00002D018A000F0E6FC01F046FA7CBD000068
:1022B0008A020000626C654576745461736B00009D
:1022C000B52B0410424C45206576742068616E641D
:1022D0006C65207461736B20637265617465206640
:1022E00061696C3A20307825782E00007573617230
:1022F0007431526563656976655461736B000000E3
:102300009D34041075736172743120726563656960
:1023100076652068616E646C65207461736B206300
:102320007265617465206661696C3A203078257841
:102330002E0000007047000008B50248694600F012
:102340006FFC08BDA80400200C498A6A520003D51E
:10235000496A01600320704703214907CA68022ABD
:1023600004D0CA68032A05D00020704709690160BB
:102370000120704709690160022070470018006061
:1023800070B50C461A491B4A096AFDF7D7FE01468B
:10239000202800D82021184A106941180831D1623C
:1023A000936A01256D072B439362136B6D002B43DA
:1023B00013639604F3680025022B05D0F368032B02
:1023C00002D02378012B01D0257070BD0B4B1C79F6
:1023D0006406640E1C719D75DD7509090901516261
:1023E000916AC908C9009162916A3143916270BDD6
:1023F000A80400202603000000180060C000002090
:10240000F8B5324D06466F7E012903D0002A07D069
:10241000EC7D06E0002A01D06C7D02E0AC7D00E09E
:102420002C7E2A486946203800F0FAFB301A274EE5
:10243000C837203E3169264AC9198142254F316A81
:1024400015D2FDF77BFE244B5979401A011B0098E9
:1024500040187862B86AC008C000B8620022D80587
:10246000C260BA6A0243BA625879001910E0FDF7F7
:1024700065FE6A7F801A011B0098431803204007FD
:1024800003610223C360B86A5B079843B8621019FE
:10249000114A1379802423431371F0239375FF238A
:1024A000D3750A18411D8A4209D200200321490729
:1024B000C860B86AE1058843B8620120F8BD074AE0
:1024C000716AFDF73BFEA8770020F8BDC804002024
:1024D0002603000000180060C00000203506000040
:1024E00010B50348007D002801D000F0DBFA10BDD4
:1024F000C804002010B5806A002201464031CA831A
:10250000CA82FEF74FFB10BD01680A68FF23213322
:102510009A430A6001688A68044B1A408A60202244
:1025200084210A500021C16670470000FEFFFFEFC2
:102530007047000010B50248FEF736FB10BD0000E2
:10254000A026002010B5134CA8212046FEF711F854
:1025500003202061606110A0A0612046A830E061E6
:102560000120800220620020A0626062E0620AA175
:1025700021660C4961661021A1662067E0666067EC
:10258000094A0F210B1AD35C2354401C1028F9D39D
:1025900010BD0000C42700205465726D696E616C27
:1025A000000000006C2C0020883F04100269C16804
:1025B0008A4203D88068401A801800E0501A401EF2
:1025C0007047FFB583B00E4670420D9F0C9C009083
:1025D000002900DB0846012502E0FDF7DAFF6D1C4B
:1025E00005998842F9DA0698A84200D90546002CD8
:1025F00004D0002E01DB780700D5641EB80702D591
:102600000698002810D0F8070ED1002C0CD0A54257
:102610000AD22021641E039800F0A4F80398C06831
:102620000028F2DA07B0F0BD0398C0680028F9DB93
:10263000002E02DA2D21009E02E0780707D52B211B
:10264000039800F08FF80398C0680028EADBB80709
:10265000800F022810D1069800280DD1002C0BD035
:10266000A54209D23021641E039800F07BF803983C
:10267000C0680028F2DAD5E7019700943146069B3E
:10268000059A039800F002F8CCE70000FFB581B08E
:1026900001261F4635460A9C029802E0FDF76BFFB3
:1026A0006D1C03998842F9D2AF4200D93D460B9880
:1026B000C00718D1002C16D00B98800701D5002F29
:1026C00002D0202000900CE03020FBE7641E00992F
:1026D000019800F047F80198C06800283DDB002C05
:1026E00001D0A542F2D30198C068002835DB012F44
:1026F00001D97F1E06E031460298FDF73CFF0399A1
:10270000884202D303984643F1E7154F31460298B9
:10271000FDF731FF0146029A7143511A0291395C6B
:10272000019800F01FF80198C068002805DB3046CA
:102730000399FDF720FF0600E8D10B98C0070CD0E5
:10274000002C0AD0A54208D22021641E019800F076
:1027500009F80198C0680028F2DA05B0F0BD000061
:10276000993F041010B5044680686368421C934288
:1027700005D323681954A260E068401CE060A26899
:102780006068824209D121682069FFF75DFAA1687B
:10279000884203D00020C043E06010BD0020A0604C
:1027A00010BDF7B5054682B000200090EC681746D2
:1027B0002869A04201D9061B02E0A968201A0E1A56
:1027C000A868761E001BB04200D80646BE4200D361
:1027D0003E466868324600190399FDF762FE00988C
:1027E000BF1B801900900398A41980190390A86852
:1027F000A04200D10024EC60002FD9D1009805B090
:10280000F0BDF7B50446C7688068E168C51B60681D
:1028100016464018B54205D90199FDF742FEB81990
:10282000E060FEBD2A460199FDF73BFE0199761B4B
:10283000606849193246FDF734FEE660FEBD30B4EB
:102840007446641E2578641CAB4200D21D46635D4D
:102850005B00E31830BC1847002809DBC106C90E2D
:102860000120884003490860BFF34F8FBFF36F8F8B
:102870007047000080E100E0002805DBC106C90EBA
:1028800001208840014908607047000000E100E035
:102890008307FF22DB0E9A408907090E9940002822
:1028A00008DB830809489B001818036893430B430F
:1028B000036070470007000F0838830804489B0036
:1028C0001818C36993430B43C361704700E400E0E9
:1028D00000ED00E08307FF22DB0E9A408907090E16
:1028E0009940002808DB830809489B0018180368F2
:1028F00093430B43036070470007000F08388308B9
:1029000004489B001818C36993430B43C361704785
:1029100000E400E000ED00E00148807F7047000027
:10292000C804002010B50D484069002814D10C4897
:102930000169002902D1806B00280DD009490120CE
:102940008860FDF737FCBFF34F8F08490648C86021
:10295000BFF34F8F00BFFDE7012010BD800040484E
:1029600000005048040000200400FA0500ED00E0DB
:10297000F3B581B00446029800210170A07A0028C6
:102980003DD0264844C84838006817184E41EFF338
:10299000108572B6FFF7D0FC844605CC19238E460D
:1029A0005B03083C0021FB1871410092C31A8A4165
:1029B00009D3FF2273320021BA184E416146734693
:1029C000511A9E4126D262460A23D3187146002628
:1029D00071414B27FF43761E009AC0197241181AA5
:1029E00091410DD2227AE17A2068FFF709FD029920
:1029F00008700020A0720120607285F31088FEBD6F
:102A0000064900201039887285F310880299012048
:102A10000870FEBD024901204870EEE74004002026
:102A200060030020F8B500216C462170017B00296D
:102A300001D00120F8BD0CC001210171184900230B
:102A4000896808380F4601E00B460969002906D05D
:102A50000E6804684A684568341BAA41F4D30246EC
:102A60000161002B1AD01861874214D1694600F029
:102A700023F80B4A90606846007800280BD0EFF3EB
:102A8000108172B6107D547D431CA34200D0401CBF
:102A9000107581F3108868460078F8BD1746E3E7A3
:102AA0000004002003480169012211430161002153
:102AB0008160704700100060F3B585B00446029055
:102AC0000698002101704FE0207B00284BD0EFF3E7
:102AD000108772B600206946087003A92848FFF7DE
:102AE00047FFFFF729FC28CC083C1E1A2A468D41D7
:102AF00000210846891B9E46B446A8412DDA20498C
:102B0000204D03C901916E6873469E190025134636
:102B10006B41861B994114D21949497A002910D07A
:102B200073460199C01A914102D3164901200870D9
:102B300069466046FFF724FC68460078012803D008
:102B400008E001206946F2E70D48817A427A114394
:102B50008172457287F3108808E006990120087099
:102B600087F3108806E02469002CADD10698007820
:102B7000002802D0029807B0F0BD2046FBE7000015
:102B8000300400206003002010B5094C002809D053
:102B9000207B002805D12046183000F01FF80120C6
:102BA000207310BD02481830FEF756F90020F7E7F1
:102BB0000004002001A000F05DF8FEE7626C6520D3
:102BC0006576656E742068616E646C6520746173EF
:102BD0006B207374617274210A00000010B5FFF756
:102BE0007FFC02490120087110BD00000004002094
:102BF000094901200968002901D0002070470749D0
:102C0000CA69002AF9D1044A283212688968491E23
:102C10008A42F3D102207047FC0500209C0300206B
:102C200070B5074A30C812690A60416A531AC1690F
:102C3000044A1846FDF782FA00210019694170BD67
:102C4000001800603506000000210120FFF776FA29
:102C5000002800D0FEE7FDF76EFEFEF7F1FF044806
:102C600000F008F8FDF7D8FDFFF7FEFAFEE70000D8
:102C7000AC3F041010B501460020FFF72DF810BD41
:102C8000F8B5134E0F46F56804463068001D00F095
:102C90001BFC601C07D1002F05D031680D48091DB1
:102CA00000F050FCF8BD30682C1944603168AC422B
:102CB00004D2B06B091D00F02DFCF8BD706B091D2E
:102CC00000F028FCB06A8442F7D2B462F8BD00007C
:102CD0009C03002024060020F8B5054600F03EFCC9
:102CE0002A4EB068401CB0603068294F002803D0DD
:102CF0007069002827D02CE03560B068012828D101
:102D0000002414206043C01900F0F6FB641C052C5D
:102D1000F7D31F48643000F0EFFB1D48783000F017
:102D2000EBFB1B488C3000F0E7FB1948A03000F0AB
:102D3000E3FB1748B43000F0DFFB154864307063E4
:102D40001430B06305E03068E96AC06A884200D890
:102D50003560706A401C7062E863E86A31698842D5
:102D600000D9306114214843C019291D00F0EAFB45
:102D700000F000FC7069002806D03068E96AC06A7B
:102D8000884201D200F060FCF8BD00009C030020E6
:102D90007005002010B500F0E1FB0E4C2068002803
:102DA00015D10D4800F0A8FB0B48143000F0A4FB2F
:102DB0000948E0601430206100220C21052000F059
:102DC0005FFD2060002802D004A100F049FC00F063
:102DD000D1FB10BD8803002048050020546D7251BE
:102DE0000000000010B5026C0C46002A0CD0C1682F
:102DF0008B18C36081688B4201D2194601E00168DB
:102E0000C1602046FDF74DFB10BDF8B5856B174638
:102E100004460026026C002A11D0002F19D0E06869
:102E2000FDF73FFBE168206C091AE16022689142DE
:102E300002D2A168081AE060022F17D019E02068BA
:102E4000002816D1A06800F09BFF06460020A06075
:102E50000FE06068FDF725FB216C6068401860603A
:102E6000A168884205D32068606002E0002D00D090
:102E70006D1E6D1CA5633046F8BD10B50446006B91
:102E800000F086FB204600F083FB10BD0A490020BD
:102E90000A69002A00D001200A68D26A002A01D0FB
:102EA00000207047054A1268012AF9D80028F7D196
:102EB000886AC968401A70479C030020700500208A
:102EC000194D1A4E11E000F049FBF068C468201D4E
:102ED00000F0FAFAA868401EA8606868401E6860A2
:102EE00000F048FB2046FFF7C8FF68680028EAD1D9
:102EF0000E48A0380068012801D900F0A5FBFFF7B3
:102F0000C5FF0228DDD300F04FFCA86AE9688842BB
:102F100001D272B6FEE7FFF7B9FF022801D300F035
:102F200053FB00F093FFCCE79C0300201006002029
:102F3000FFB581B00A9D0C9C0E000ED091000F468B
:102F4000A522206BFDF7EEFA206B3F1FC019C708C2
:102F5000FF00780703D072B6FEE772B6FEE72218CC
:102F6000315C20321175315C002902D0401C0528EB
:102F7000F5D3002638200655052D00D30425E5623B
:102F8000A664201D656400F0C2FA2046183000F0E7
:102F9000BEFA24610520401B6462A061E6645020F3
:102FA00006553846049A019900F0DEF920600B9826
:102FB000002800D0046005B0F0BD000070B500240A
:102FC00041600B4D0061914206D8D11A826991424D
:102FD00006D2011D286907E09A4203D2994201D323
:102FE000012403E0011DE86800F094FA204670BD5A
:102FF0008803002010B5044600F0B0FAA06B00284A
:1030000004D0002400F0B6FA204610BD0124F9E7F0
:1030100030B585B0274D43E00198002840DB039C84
:103020006069002802D0201D00F04EFA04A800F0CC
:10303000A1F8024601980300FFF701FC0A06060604
:1030400032232F06063223320298A1690346411823
:103050002046FFF7B3FF002822D0616A2046884748
:10306000E06901281CD1002000900298A16900238A
:1030700042181946204600F05FFF002810D172B6B2
:10308000FEE70298A061002805D08118134620466B
:10309000FFF794FF04E072B6FEE7204600F078FAEE
:1030A000002201A9286800F019FD0028B4D105B05C
:1030B00030BD000088030020FEB50E46054600F036
:1030C00073FB01A800F056F804460198002802D0CE
:1030D00000F0BCFEFEBD1E4F002E10D03869006807
:1030E000002833D00026291B3246386800F0CAFA7F
:1030F00000F0ACFE0028EDD100F0A6FAFEBDA5421E
:10310000F1D800F0A3FEF8682646C068C468201D08
:1031100000F0DAF9E069012812D1A0692B464119C3
:1031200032462046FFF74AFF002809D00020034618
:10313000014600902A46204600F0FEFE002803D0FB
:10314000616A20468847FEBD72B6FEE70126CAE7DF
:10315000880300200648416B0968002905D0416BAF
:10316000C968C9684968816270470021C943FAE7A4
:103170009C03002070B5054600F098FD064E0446FD
:10318000B068844203D200F009F8012000E000207A
:1031900028602046B46070BD88030020F8B5164E44
:1031A00020E0C068C4680568201D00F08DF9616AE0
:1031B00020468847E069012814D1A0694019A84237
:1031C00006D924616060211DF06800F0A3F909E0D0
:1031D00000200346014600902A46204600F0ACFE3F
:1031E000002807D0F06801680029DAD13169F16060
:1031F0003061F8BD72B6FEE788030020034800681E
:10320000401C72B600D0FEE7FEE70000D8030020A5
:10321000094CE0680168002908D00021002907D086
:103220000020FFF749FFFFF7F3FEF2E70121F5E782
:10323000C0680068F5E7000088030020F8B5044680
:1032400000F08CF926464036052575572746243769
:103250000BE0606A00280AD0384600F0C3FD002861
:1032600001D000F039FA6D1E6DB2002DF1DC00279F
:10327000FF43777100F07EF900F070F9042575576F
:103280002046103000900BE0206900280AD00098FA
:1032900000F0A8FD002801D000F01EFA6D1E6DB2EE
:1032A000002DF1DC377100F065F9F8BDF8B5044682
:1032B000002500F079FA29490E460A464868083682
:1032C000103200280BD126480027C008C00081C654
:1032D000244B176053600CC00120083E4860002C4E
:1032E00007D00834600704D06007400F0823181A7D
:1032F00004191C4B601E5B1E984227D2174F306882
:10330000083701E0074618464368A34202D2036823
:10331000002BF7D1904219D03D6802683A604268AC
:103320000835121B102A0DD9061972600B4A446029
:103330000832746800E01A4613685F68A742FAD33F
:103340003360166040680A68101A086000F07EFD5D
:10335000002D01D100F0CBF82846F8BDDC03002099
:10336000A8060020F81F000010B50124031F240642
:103370001C601B1F1960191F024B0B601439403869
:103380000A6010BDFD31041010B503210020FFF7C5
:103390007FFA03210120FFF77BFA03210220FFF7C8
:1033A00077FA03210846FFF773FA03210420FFF799
:1033B0006FFA03210520FFF76BFA03210620FFF7C0
:1033C00067FA03210720FFF763FA03210820FFF7BC
:1033D0005FFA03210920FFF75BFA03210A20FFF7B8
:1033E00057FA03210B20FFF753FA03210C20FFF7B4
:1033F0004FFA03210D20FFF74BFA03210E20FFF7B0
:1034000047FA03210F20FFF743FA03211020FFF7AB
:103410003FFA03211120FFF73BFA00211220FFF7AA
:1034200037FA03211320FFF733FA03211420FFF7A3
:103430002FFA03211520FFF72BFA03211620FFF79F
:1034400027FA01211720FFF723FA00211820FFF7A0
:103450001FFA03211920FFF71BFA10BD0A4692003C
:10346000121F8258491E002A01D0012070470029EE
:10347000F4D100207047000070B5074C012120688E
:10348000FFF7ECFF0546206801211030FFF7E6FF4B
:1034900001462943084670BDF803002001A0FFF74C
:1034A000E9FBFEE775736172742072656365697686
:1034B000652068616E646C65207461736B20737441
:1034C000617274210A0000004368826801699A6091
:1034D000836842685A604A68824201D182684A60C1
:1034E000002202610868401E08600868704772B6D2
:1034F000FEE772B6FEE770470146083100224160E0
:10350000D243C160826001610021016070470021E7
:103510000161704730B50C68621C02D00246083267
:1035200002E0026904E01A4653681D68A542FAD910
:1035300053684B6099608A60516008610168491C5A
:10354000016030BD42684A6093688B60936859603F
:10355000916008610168491C0160704772B60448B7
:103560000168491C0160BFF34F8FBFF36F8F704735
:10357000D803002005490868002804D0401E0860D0
:1035800000D162B6704772B6FEE70000D803002093
:1035900010B5002815D00446083C00F005F909498B
:1035A000606800E011460A6853688342FAD32260DB
:1035B00004480C600838616802688918016000F0EE
:1035C00045FC10BDE40300207CB50546FDF7B1FBCA
:1035D0000446FFF70DFB01280DD11A48FDF73CFC0E
:1035E0007D20C0007D216843C900FCF7C4FF01466F
:1035F0001448FDF715FC72B6FFF7FAFA010018D06F
:10360000104801AA1038022900920EC816D00220D4
:10361000FDF7D6F968460079012808D9FDF789FB3E
:10362000002322461946FDF778FB00F0AFF862B69A
:103630007CBD62B60348FDF70FFC7CBD0320FDF79F
:10364000BFF9F4E78806002001200449000748601C
:10365000BFF34F8FBFF36F8F7047000000ED00E0A6
:1036600010B5074B0022D4001C59002C03D0521C6B
:10367000082AF8D310BDD2009950D118486010BD67
:103680003806002070B515460E460446FFF766FF63
:1036900020464030042282560021521C00D1017184
:1036A00005228256521C00D14171FFF763FFA06BC7
:1036B000002805D120462A463146243000F024F85F
:1036C0002046FFF7BBFD70BD02490A6A0260C96867
:1036D000416070479C03002001490120C861704788
:1036E0009C03002010B50C46002809D00549096844
:1036F0001831FFF70FFF01212046FFF7C1FA10BD77
:1037000072B6FEE79C03002070B514460D460028F3
:103710000DD0084909681831FFF714FF002C01D0BB
:103720000025ED4321462846FFF7AAFA70BD72B680
:10373000FEE700009C0300201CB510480024012275
:103740000190234652020EA100940F4800F076FA31
:10375000012803D100F0D0FB012803D0401C0CD17C
:1037600072B6FEE772B600210448C9432C38816264
:1037700001214161C46000F061F81CBDC803002054
:1037800049444C4500000000C12E04100549CA6898
:103790008B6A12189A4201D972B6FEE7CA681018ED
:1037A000C86070479C0300200248016B491C0163FC
:1037B000704700009C03002010B51D4C206B0028B2
:1037C00002D00120E06110BD0020E06120681949AD
:1037D000006B02688A4208D142688A4205D1826839
:1037E0008A4202D1C068884204D0216820683431FE
:1037F000FFF77FFE2069104902E0002815D0401E27
:10380000142242438A58002AF7D014224243511806
:103810004A680B46526808334A609A4201D152689E
:103820004A60D1682160206110BD72B6FEE70000D9
:103830009C030020A5A5A5A57005002010B50C4887
:10384000016AFF22120411430162016A120211434C
:1038500001620848002101618161074A4261072233
:10386000026106480160FCF72BFD002010BD00003E
:1038700000ED00E000E000E0FFF90000D8030020C8
:10388000F8B517460E46050016D0002E16D0704328
:103890005030FFF70BFD04000CD020465030002EB6
:1038A0000ED02060266420460121E56300F00AF86E
:1038B0004C2007552046F8BD72B6FEE70020E7E72A
:1038C0002460EFE770B50D46040026D0FFF746FEF2
:1038D000216CE06B484321684118A1600021A1637D
:1038E00021686160E06B216C401E484321682246DC
:1038F00041180020C0434032E160107150712046F1
:103900001030002D0BD0FFF7F7FD20462430FFF7D5
:10391000F3FDFFF72FFE012070BD72B6FEE72169AF
:103920000029F6D000F05EFA0028F2D0FFF78CFEF6
:10393000EFE7FFB5002583B01E460446002803D0FC
:103940000498002802D006E072B6FEE7206C00283A
:1039500001D072B6FEE7022E04D1E06B012801D03F
:1039600072B6FEE700F092F9002804D1059800280D
:1039700001D072B6FEE7FFF7F1FDA06BE16B884264
:1039800007D3022E05D00598002817D0002D18D097
:103990001BE0324620460499FFF737FA616A002996
:1039A00003D02046243000F01DFA002801D0FFF794
:1039B0004BFEFFF7DFFD012007B0F0BDFFF7DAFD9A
:1039C00022E06846FFF780FE0125FFF7D3FDFFF7F1
:1039D000EBFEFFF7C3FD2046403004214156491C51
:1039E00000D1017105214156491C00D14171FFF7F9
:1039F000C1FD05A9684600F0F3F8002806D020466E
:103A0000FFF71CFC00F022FA0020D5E7FFF7A6FD27
:103A1000A06BE16B884201D1012700E00027FFF78E
:103A2000A9FD002F0ED0204610300599FFF75AFE51
:103A30002046FFF703FC00F009FA00289BD1FFF7AE
:103A400003FE98E72046FFF7F9FB00F0FFF992E745
:103A5000FFB581B01E46040003D00298002802D0B2
:103A600006E072B6FEE7206C002801D072B6FEE7D1
:103A7000022E04D1E06B012801D072B6FEE7FCF7FC
:103A800033FC0090A06BE16B884208D3022E06D075
:103A900000240098FCF72CFC204605B0F0BD204621
:103AA0004030052545570746324620460299FFF724
:103AB000ACF9681C03D06D1C7D710124E9E7606AD4
:103AC0000028FAD02046243000F08CF90028F4D0E9
:103AD00003980028F1D001210160EEE7F7B5002539
:103AE00082B00446002803D00398002802D006E0E4
:103AF00072B6FEE7206C002801D072B6FEE700F037
:103B0000C5F80026002804D10498002801D072B618
:103B1000FEE7FFF723FDA76B002F15D02046039982
:103B2000FFF760F97F1EA7632069002807D02046B1
:103B3000103000F057F9002801D0FFF785FDFFF79E
:103B400019FD012005B0F0BD0498002802D0002D19
:103B500003D006E0FFF70EFD27E06846FFF7B4FD4F
:103B60000125FFF707FDFFF71FFEFFF7F7FC2046D3
:103B7000403004214156491C00D1067105214156AF
:103B8000491C00D14671FFF7F5FC04A9684600F016
:103B900027F8002820460AD0FFF750FB00F056F91E
:103BA0002046FFF727FA0028B3D00020CAE7FFF726
:103BB00021FA00280ED0204624300499FFF792FD08
:103BC0002046FFF73BFB00F041F90028A1D1FFF7A9
:103BD0003BFD9EE72046FFF731FB00F037F998E701
:103BE000F8B50C46050012D0002C12D0FFF7B6FC39
:103BF000114EF1686B682068CA1A471C0BD02F68F9
:103C0000366AB7420CD08B420AD8012404E072B65F
:103C1000FEE772B6FEE70024FFF7ACFC2046F8BDD5
:103C2000904205D9801A20602846FFF74DFDF2E743
:103C300000202060E9E700009C030020FFB585B06C
:103C4000164690000F9FFFF731FB05001AD0542055
:103C5000FFF72CFB040012D0256300210E9803917E
:103C60000197009002943246089B06990598FFF749
:103C70005FF92046FFF730F8012009B0F0BD284673
:103C8000FFF786FC0020C043F7E7000006484169C3
:103C9000002904D0006B002803D0002070470120C9
:103CA00070470220704700009C0300200148C06854
:103CB000704700009C030020F8B52F4F0026386B9A
:103CC000002803D0B869401CB8614DE0FD686D1C48
:103CD000FD600ED1786B0068002801D072B6FEE757
:103CE000786BB96B7963B863386A401C3862FFF748
:103CF00031FAB86A85420AD3786B0068002813D07D
:103D0000786BC068C4686068854210D2B862386851
:103D10001421C06A484319490858012800D90126CE
:103D2000B869002820D021E00020C043EEE7201D24
:103D3000FFF7CAFBA06A002803D020461830FFF71F
:103D4000C3FBE06A3969884200D9386114214843CD
:103D50000A494018211DFFF7F5FBE06A3968C96A76
:103D60008842C9D30126C7E7FFF7C5FBF8690028D9
:103D700000D001263046F8BD9C03002070050020CD
:103D800070B504460020002C25D0144D29688C42C3
:103D900001D072B6FEE7A16C00291DD0491EA164B6
:103DA000636CE26A9A4216D0002914D1201DFFF7F5
:103DB0008BFB606C0521E062081AA061E06A29694A
:103DC000884200D928611421484305494018211D23
:103DD000FFF7B8FB012070BD72B6FEE79C03002020
:103DE0007005002070B5C068C468002C0BD0204658
:103DF00018300646FFF768FB124D286B002804D0E8
:103E0000314611480FE072B6FEE7201DFFF75CFB5C
:103E1000E06A2969884200D92861142148430A4987
:103E20008C394018211DFFF78DFBE06A2968C96AAB
:103E3000884202D90124EC6100E00024FFF78AF9EE
:103E4000204670BD9C030020FC050020F8B5284DDD
:103E50000024286B2746002808D0FFF77FFB286B3B
:103E6000401E2863286B002802D03CE072B6FEE7B3
:103E7000A868012600281BD135E0C068C468204628
:103E80001830FFF721FB201DFFF71EFBE06A2969B0
:103E9000884200D928611421484316494018211D41
:103EA000FFF750FBE06A2968C96A884200D3EE61D7
:103EB00010488C3001680029DFD1002C01D0FFF7B9
:103EC00049F9AC69002C08D0FFF7F6FE002800D0B5
:103ED000EE61641EF8D10020A861E869002802D0D4
:103EE0000127FFF7B1FBFFF745FB3846F8BD00009F
:103EF0009C030020700500201CB5FEF74BFF0A480C
:103F0000006800280CD008490220091D019100908A
:103F10000023502205A10748FFF790FE002801D199
:103F200072B6FEE71CBD000088030020546D7220AD
:103F30005376630011320410FEB51D46034600207F
:103F4000089E002B12D00F4C2768002F0DD068461A
:103F50000EC006290FDAFFF799FE022808D00023C9
:103F60001A4669462068FFF7E4FCFEBD72B6FEE71C
:103F700000233246F5E700232A4669463846FFF714
:103F800067FDFEBD880300200000000000005454BF
:103F9000522052454747455300303132333435368D
:103FA0003738394142434445460000002D2D2D2D20
:103FB0002D2D2D2D2D2D2D2D2D2D2D2D2D2D2D2D31
:103FC0002D2D2D2D2D2D2D4170706C69636174691F
:103FD0006F706E2053746172742D2D2D2D2D2D2D2B
:103FE0002D2D2D2D2D2D2D2D2D2D2D2D2D2D2D2D01
:103FF0002D2D2D2D2D2D2D2D0A0000002C400410CF
:10400000C00000209C0200007E0704103440041011
:104010005C030020A000000004010410D440041040
:10402000FC030020802800002001041001FF01FF94
:1040300001A100000090D00300000000000000007B
:10404000000000000000000000000000040000006C
:10405000010000000000000002000000000000005D
:104060000000000000000000000000000000000050
:104070000000000000000000000000000000000040
:104080000000000000000000000000000000000030
:104090000000000000000000000000000000000020
:1040A0000000000000000000000000000000000010
:1040B000AAAAAAAAF81F0000000000000000000041
:1040C00000000000000000000000000000000000F0
:0440D00000000000EC
:04000005100400C122
:00000001FF
