:020000041004E6
:1000000000000120F1460410FD3B0410252C0410D3
:10001000AA5555AA45554C420000000000000000BA
:10002000000000000000000000000000E14A041091
:100030000000000000000000F7020410094C04104A
:100040005D0C0410EF460410A33E0410272C04108E
:10005000292C0410DB4A0410DD4A0410DF4A041086
:100060008D52041073370410A14F0410114704106F
:1000700003090410753C0410895204108B230410EA
:100080008D2304100D0C04108D0B0410910A041024
:10009000930A0410ED46041075370410AF0B0410DA
:1000A000A70B0410970A04100000000000000000D5
:1000B0000000000000000000000000000000000040
:1000C00000F002F800F0ECF80CA030C80838241852
:1000D0002D18A246671EAB4654465D46AC4201D180
:1000E00000F0DEF87E460F3E0FCCB64601263342C6
:1000F00000D0FB1AA246AB4633431847407F0000AE
:10010000707F0000103A02D378C878C1FAD852073D
:1001100001D330C830C101D504680C6070470000BD
:100120000023002400250026103A01D378C1FBD813
:10013000520700D330C100D50B60704710B5904214
:1001400016D98AB2030C090C0C46594380B25343AA
:10015000444350431B191A041B0C101859418022A8
:100160005203002312184B41520DD802104310BD08
:100170004843802252031218520D104610BD000051
:10018000EFF31482EFF30981154880F31488BFF36D
:100190006F8FF0B543464C4655465E466746F8B409
:1001A000104CEFF30883636006B4BFF34F8F30BF8A
:1001B00000BF00BF0B4C646884F3088882B003BCA6
:1001C000F8BC9846A146AA46B346BC46F0BC04BC5F
:1001D00080F3098881F31488BFF36F8F1047000004
:1001E00000000000040000208B0707D0521E22D31D
:1001F0000B78491C0370401C8B07F7D1830730D064
:10020000DB4219D0401E121F08D308C943701B0AD5
:1002100043801B0C0371001D121FF6D2D20707D3B7
:100220000B88437001D08A78C2701B0A83707047B4
:1002300001D00B7843707047121F06D308C90380A2
:100240001B0C4380001D121FF8D2D20705D30B8868
:10025000038005D08B788370704701D00B780370D2
:10026000704770B4103A03D378C978C0103AFBD203
:10027000530701D318C918C001D508C908C0D2074F
:1002800004D30B880380801C891C002A01D50B78BD
:10029000037070BC704700001FB51FBD10B510BDC6
:1002A00003488546FFF7F8FF06F0BEFA00F0DFFAD4
:1002B0000000012003B4FFF7F1FF03BC00F0E0FAF7
:1002C000084B19680868203080F30988022080F301
:1002D0001488BFF36F8F3FBCAE4608BC04BC62B647
:1002E00018470000A4030020EFF3108072B6704797
:1002F00080F310887047EFF309800E4B1A6820389E
:100300001060F0C044464D4656465F46F0C008B502
:1003100072B607F029F962B60CBC11680868103093
:10032000F0C8A046A946B246BB4680F309882038EB
:10033000F0C81847A403002070B505460C461646C1
:1003400002E00FCC0FC5103E102EFAD2082E02D3B9
:1003500003CC03C5083E042E07D301CC01C5361FCC
:1003600003E021782970641C6D1C761EF9D270BDE3
:1003700010B5202A04DB0146203A9140002010BD30
:10038000914020239C1A0346E3401943904010BD3E
:100390004343514330B55C18010C130C0D4692B227
:1003A0005D4380B251432C19054655430A0C09049C
:1003B0004D1962415843010C00044019514130BDB0
:1003C000FEB5054610460C46184373D0AE468C4623
:1003D0000020AD1A01469C4167D3664600270124E0
:1003E0003D46B61A9D4102D313463A46212465463E
:1003F00076462F04360C3E432D0CB61A9D4104D38D
:10040000150C1B042B4312041034654676462F0648
:10041000360A3E432D0AB61A9D4104D3150E1B021F
:100420002B4312020834654676462F0736093E43B1
:100430002D09B61A9D4104D3150F1B012B43120140
:10044000241D65467646AF07B6083E43AD08B61A8A
:100450009D4104D3950F9B002B439200A41C65463D
:100460007646EF0776083E436D08B61A9D411AD3CB
:1004700092185B41641C16E00018764665464941B7
:10048000B71A9D410191009009D36046B11A984175
:100490008E468446009801990025401C6941DD077D
:1004A00052082A435B08641EE6D57246634603B0D1
:1004B000F0BDFFE700200146C046C0462A4623465D
:1004C000F5E7034610B50B439B070FD1042A0DD364
:1004D00008C810C9121FA342F8D018BA21BA88421E
:1004E00001D9012010BD0020C04310BD002A03D057
:1004F000D30703D0521C07E0002010BD03780C780E
:10050000401C491C1B1B07D103780C78401C491C5C
:100510001B1B01D1921EF1D1184610BDF8B5042A5B
:100520002CD3830712D00B78491C0370401C521E39
:1005300083070BD00B78491C0370401C521E8307A5
:1005400004D00B78491C0370401C521E8B079B0F74
:1005500005D0C91ADF002023DE1B08C90AE0FFF717
:10056000EBFEF8BD1D4608C9FD401C46B4402C43B7
:1005700010C0121F042AF5D2F308C91A521EF0D473
:100580000B78491C0370401C521EEAD40B78491C9E
:100590000370401C012AE4D409780170F8BD431AA5
:1005A00070B593421BD28918801804E0491E401E82
:1005B0000B78521E03709307F8D106E010391038FB
:1005C00078C9103978C01038103A102AF6D203E0F2
:1005D000091F001F0B680360121FF9D570BDFFF7DC
:1005E000ABFE70BDF8B5064614460843800707D039
:1005F000751AA54219D20819102D13D2311907E026
:100600003046FFF7CCFFF8BD401E491E02780A7045
:10061000641EF9D2F8BD471B2A463946FFF77EFF14
:10062000641B3846A542F6D3011B22463046FFF72D
:1006300075FFF8BDD2B210B513029A1813049A18B8
:1006400000F00EF810BD01E004C0091F0429FBD220
:100650008B0701D50280801CC90700D0027070474B
:1006600000290BD0C30702D00270401C491E02298A
:1006700004D3830702D50280801C891EE3E7002291
:10068000EEE70022DFE7002203098B4273D3030A5F
:100690008B4258D3030B8B423CD3030C8B4221D3A8
:1006A00012E003460B437FD4002243088B4274D3ED
:1006B00003098B425FD3030A8B4244D3030B8B4263
:1006C00028D3030C8B420DD3FF22090212BA030C6C
:1006D0008B4202D31212090265D0030B8B4219D34D
:1006E00000E0090AC30B8B4201D3CB03C01A52416D
:1006F000830B8B4201D38B03C01A5241430B8B42B5
:1007000001D34B03C01A5241030B8B4201D30B039D
:10071000C01A5241C30A8B4201D3CB02C01A5241C4
:10072000830A8B4201D38B02C01A5241430A8B4287
:1007300001D34B02C01A5241030A8B4201D30B0270
:10074000C01A5241CDD2C3098B4201D3CB01C01A8A
:10075000524183098B4201D38B01C01A5241430994
:100760008B4201D34B01C01A524103098B4201D382
:100770000B01C01A5241C3088B4201D3CB00C01AEF
:10078000524183088B4201D38B00C01A5241430867
:100790008B4201D34B00C01A5241411A00D201468C
:1007A0005241104670475DE0CA0F00D04942031025
:1007B00000D34042534000229C4603098B422DD374
:1007C000030A8B4212D3FC22890112BA030A8B421C
:1007D0000CD3890192118B4208D3890192118B426B
:1007E00004D389013AD0921100E08909C3098B42F0
:1007F00001D3CB01C01A524183098B4201D38B0133
:10080000C01A524143098B4201D34B01C01A5241D5
:1008100003098B4201D30B01C01A5241C3088B421A
:1008200001D3CB00C01A524183088B4201D38B0005
:10083000C01A5241D9D243088B4201D34B00C01A8F
:100840005241411A00D20146634652415B101046A4
:1008500001D34042002B00D54942704763465B10EC
:1008600000D3404201B50020C046C04602BD10B5CD
:100870000446C046C0462046FFF71CFD10BD0000E0
:1008800001491820ABBEFEE726000200704730B5D4
:100890008C180278401C13071B0F01D10378401CF1
:1008A000120906D10278401C03E00578401C0D7047
:1008B000491C5B1EF9D101E00B70491C521EFBD193
:1008C000A142E6D3002030BD00228A614268116057
:1008D00018314160704702688A4206D1926902600D
:1008E000002A0BD1406009E01A4693698B42FBD184
:1008F0009B699361002B01D118324260002088610E
:1009000070477047F8B503241A4E054664071A4825
:1009100003700868A0624868E06288682063C8685D
:1009200060632868A0636868E063A8683060E8686E
:10093000706064206F463870A06D01273843A06551
:100940006F463878401E3870E06DC007C00F02D087
:1009500038780028F4D13878B0681060F0685060BA
:10096000306990607069D060034800789842CED1B9
:100970000020F8BD400000608403002010B5002274
:1009800082818273436843610361826102F06EFA7F
:10099000842801D0812010BD002010BD03207047A5
:1009A00003214907886908229043104388617047F2
:1009B000024841688022914341607047C000002096
:1009C000024841688022114341607047C000002006
:1009D00004494A684006D209D201400E02434A60E7
:1009E00070470000C0000020014908407047000027
:1009F00030DFCB0001218905084070470020704797
:100A00000121490608407047012109040840704748
:100A100080687047826881607047000050214843B9
:100A200001494018006870470001002050225043DF
:100A3000084A80188268120C0A708268120E4A7086
:100A4000C2688A70C268120ACA70C0688002800ECA
:100A500008717047000100205021484302494018A6
:100A600080688004800E70470001002050225043AF
:100A7000044A8018C26D890692099201890E0A43C0
:100A8000C26570478000002010B5FFF73BFF10BD26
:100A9000704704F055FE7047F8B5314C2060FFF701
:100AA000AFFF012600282CD001F040FF074604F0DC
:100AB00087FA05460146384602F051FE01002948F2
:100AC00008D0791B7203914204D20068D8210E54D9
:100AD000056003E000680021C030017602F097FD58
:100AE0000546FF280DD002F0A6FD002809D02846B3
:100AF00002F088FD0746284602F08EFD0146384682
:100B000088472068FFF780FF002801D0042413E005
:100B10002068FFF76FFF002801D001240CE0206857
:100B2000FFF76CFF002801D0022405E02068FFF7E2
:100B30005BFF002813D0002401F0C4FE02F067FD23
:100B40000546FF280BD00848A640006801683143DD
:100B50000160002006F058FB284602F0F5FBF8BDC6
:100B6000FC030020000400200804002010B500242D
:100B700006F038FB002805D103480068C07A002839
:100B800000D10324204610BD0004002010B503242A
:100B90006407E069616861600843FFF77DFF01F069
:100BA0002DFF606810BD10B502F020F810BD10B523
:100BB00001F0FAFF10BDF8B5054600200C46864648
:100BC000002D03D06B781846844201D38220F8BDF3
:100BD0002E6A315D8C46A14216D02746024602E0BD
:100BE000B94203D00A46B15C8142F9D1B05C984267
:100BF00008D06046B0549A4204D16146284604F0B9
:100C000011FB8646286A04557046F8BD10B5074C9E
:100C10002068800702D5064801F00CFC2068800699
:100C200002D5044801F006FC10BD00000000704829
:100C3000982700204C27002008B5074801210269A9
:100C40000A430261006908400090112001F088FC0D
:100C5000112001F079FC08BD40004048704710B5F4
:100C600002F03CF810BD0000074902460968002068
:100C7000C96A05E0CB88934201D108467047C9682C
:100C80000029F7D1704700001804002000B5FFF7D5
:100C9000EBFF002801D0007800BDFF2000BD000060
:100CA00010B542880446121D002192B2406803F03C
:100CB000BBF82146042001F0B8FF002808D0054801
:100CC000214600688830FFF7FFFD062006F09CFAF9
:100CD00010BD00001804002010B504460846FFF7B8
:100CE000D5FF80000019C1B202480068FFF763FF1A
:100CF00010BD00001804002030B50949034600204B
:100D00000A685421895A07E0C400956DA41C2C5B25
:100D10009C4204D2401C80B28142F5D8014830BDCB
:100D200018040020FFFF0000FFB50F4681B01546F4
:100D3000B84223D8134E31684031898A00291DD02A
:100D4000FFF7DAFF04463846FFF7D6FF0146326860
:100D50005420805A401E884200D281B220460BE0C7
:100D6000946DC300E65CAE4204D11B1DE458049BA5
:100D70009C4204D0401C80B28842F1D9024805B0A0
:100D8000F0BD000018040020FFFF000010B504466D
:100D9000FFF7B2FF0649884208D0064A1268936DF1
:100DA000C200921C9A5AA24200D0084610BD000010
:100DB000FFFF00001804002010B5FFF7B5FF05493C
:100DC000884205D00449C0000968896D081810BD23
:100DD000002010BDFFFF00001804002010B5FFF731
:100DE000D5FF0549884201D1002010BD0349C0004C
:100DF0000968896D081810BDFFFF00001804002065
:100E000010B5FFF779FF0549884201D1002010BDD8
:100E10000349C0000968896D081810BDFFFF000074
:100E20001804002007490A68916D4032D28AD20026
:100E3000083A8A18904203D8401A4003000C7047C1
:100E40000148704718040020FFFF000070B50446F9
:100E50000078022803D0002801D0204670BD20462B
:100E6000FFF7E0FF401C81B20F4854230268985AF4
:100E70000EE02378022B02D0002B10D006E0936DF9
:100E8000CD005B5D022B05D0002B03D0491C89B23D
:100E90008842EED8926DC8000838101870BD936D66
:100EA000CD005B5DF0E700001804002010B5FFF7EF
:100EB000CDFF408810BD000010B5FFF7B3FF074914
:100EC00054220968401C525A80B2824203D9896D6B
:100ED000C000081810BD002010BD0000180400203C
:100EE00070B506464068047A3088FFF7BDFE0546B7
:100EF00060061BD41E2C19D0162C06D0204600F0FC
:100F000045FA0E2803D3862070BD718806E04100A3
:100F10000848405AA988884200D20146308802F029
:100F20003CFFA860002803D1882070BD0020A86085
:100F3000002070BDB07F0410FEB50E4605460020AF
:100F4000694608816868047A204600F01FFA6A88BA
:100F5000B1888A420DD80E280BD21C4B4100595A39
:100F60000B0604D5802399438A4202D103E08A42CA
:100F700001D2042515E0411E022901D907280BD111
:100F8000284601AA694600F03DFA69460888898822
:100F9000884203D8002801D00020FEBD69460881A0
:100FA000012560060ED41E2C0CD0F088052102F01D
:100FB000F4FEB060031E07D0684601892A46204629
:100FC00000F0D3FD8620FEBD8820FEBD947F041076
:100FD000F8B5044642200090A0684822C68811480F
:100FE0000227006801238069009904F0E7FE0100F0
:100FF00016D08E800025009804F0CAFEA068C18833
:101000000120FFF769FEA06841884A0602D5C02288
:1010100091434180A0684188B94341802846F8BD8A
:101020000725FBE708040020FEB5054640680222BC
:10103000416868460931FFF7D7F868460488172CDD
:1010400001D9214600E017212748C089814203D2F7
:10105000172C02D8172400E00446AB6898780007E4
:1010600023D4022001902148DE8800680027403008
:10107000007A400700280EDA1D4838220068022155
:101080008069012304F09AFE01000CD08E80CC8090
:10109000019804F07DFEA868082241881143418030
:1010A000A86884800EE007271BE09888A04208D03B
:1010B0000222032142209B1D05F08AF8070001D07F
:1010C0000FE00027A8686946846807480325C0899F
:1010D000088060680222057260680930FFF784F8B2
:1010E00065803846FEBD00009C2C002000040020D6
:1010F00008040020F8B504460078002802D000213A
:101100000846F8BD6068022740684C22457AA0680E
:101110003946C6880C4801230068806904F04EFEF9
:1011200001000FD08E808D71384604F031FEA0682A
:1011300019228068842140680272A06801228068B8
:101140004280DDE70721DBE70804002070B5154683
:1011500042681C46137A4288049ED21E92B2D22B59
:1011600001D10C3A92B200238A4204D90D2030708A
:101170002380862070BD337022802B46072102F029
:1011800003FE002070BDF0B58FB0054610206A4602
:10119000107568680222416804A80D31FFF724F831
:1011A00007AA08A9686800F02DF968686A464088AF
:1011B000C01F80B20C90A868118C8668118302222F
:1011C00000F02CFE0446862804D007217068012414
:1011D00001724CE06846018B33461222062000F073
:1011E000C4FC20460FB0F0BD6846818B01AA008B7D
:1011F00000F0DBFE070040D00DA8009009AB0022F4
:101200003946284600F078FC002802D08628E9D12B
:1012100029E078886946088309980B224168686844
:101220000C9B02F0E1FD09990C9A098891421AD1B0
:10123000002818D10B9806AB81B20222304602F08A
:1012400027FE384600F0D3FE014668460185A41DFE
:10125000A1B20AAB0222304602F01AFE0B9884B209
:101260006846018D01836946088B401C0883A86885
:101270008188201D0B908142B6D2012C02D074804F
:101280000020AFE76846018C33460A22062000F0B2
:101290006CFC8620A6E7F0B5074691B080680DAAE1
:1012A0008068059006A9786800F0ACF800250895DC
:1012B000099569462C460122098BB86800F0AEFDFD
:1012C0000646862804D06846008BFFF799FD38E073
:1012D0006846018B12220420059B00F046FC304634
:1012E00011B0F0BD708869460883898E88422AD87B
:1012F00009982118B8688088814224D86946304608
:1013000000F080FE002D684623D0017C08988142C1
:101310001BD1201D81B206AB0222059802F0B8FD58
:10132000684604F001F808990346CA08A11D89B26D
:10133000059802F0ADFD0998201884B23046FFF7F9
:10134000BBFD0600CED1002D17D0059844800020AB
:10135000C6E7007C089010280DD00225C008801C2C
:101360000990059805214068A41C01720598A4B253
:1013700040684572CDE70125F0E76846018B0A22F7
:101380000420059B00F0F1FB8620A9E700B510289A
:101390002AD00BDC801E030004F065F90D18161A24
:1013A000161C161E16201622162416001E2827D0DC
:1013B00006DC12281AD016281ED0182804D11DE0E9
:1013C000522815D0D22815D00E2000BD002000BD17
:1013D000012000BD022000BD032000BD042000BD8F
:1013E000052000BD062000BD072000BD082000BD6F
:1013F000092000BD0A2000BD0B2000BD0C2000BD4F
:101400000D2000BD70B50B4641681546044602220A
:1014100018460931FEF7E8FE6168022228460B31C2
:10142000FEF7E2FE70BD0000F0B5044600788BB018
:10143000002815D0A268A08991884B1F984200D33C
:10144000481F85B2906823692A46092102F020FDD1
:10145000A0686D1D80684580002528460BB0F0BD52
:1014600060680222416802A80931FEF7BDFE6846A5
:1014700001890AAB0522204600F024FB020008D0B7
:10148000A068836868460189162000F06EFB8620FC
:10149000E4E760680222416809A80B31FEF7A4FE68
:1014A00065684B2268880323401F86B20A2001909A
:1014B000A068C7886846008906906846808C0590B9
:1014C000164801990068806904F078FC010022D078
:1014D0008F80069ACA80059A0A814E81CD60019854
:1014E00004F056FCA0681721806884254068022219
:1014F0000172A06802A9806840680930FEF774FE96
:10150000A0680222806809A940680B30FEF76CFED3
:1015100000206060A1E707259FE700000804002085
:10152000F0B58FB006460027406808AA0AA9FFF761
:1015300069FF706810244188072920D001AB102270
:10154000092102F021FC8020694608757078102876
:101550001ED002200D90B06881880E918568307889
:10156000002817D06C88012C01D96868477A201DA3
:1015700081B207AB0222284602F006FCA3E04168D4
:10158000022204A80D31FEF72FFE68460475DDE740
:101590000420DFE76846018D81837078102802D02F
:1015A0000921686806E001A800F0A0FE002805D027
:1015B00068681121017201246C8084E06846047619
:1015C00092E06846018C01AA808B00F0EEFC0C9042
:1015D00000287CD041880422B06800F01FFC8628D7
:1015E0000FD006A8009009AB002230460C9900F0FD
:1015F00083FA0090002811D0862875D0842803D063
:1016000009E0122069466EE0241DA1B207AB022258
:10161000284602F03DFC00980FB0F0BD0998012C5F
:1016200001880D981CD00818B84256D10C9869460C
:10163000408888830C9800F0DAFC69468885201D74
:1016400081B207AB0222284602F022FC0D98A41CAE
:10165000381AC0B200907078A4B2102815D020E0DB
:101660000818FF2801D2024600E0FF220E99891EC9
:101670008A4203D2FF2803D3FF2001E00E98801E88
:10168000C7B2686802244772D0E7201D81B20BAB55
:101690000222284602F0FCFB6846A41C818DA4B2FD
:1016A00081830998009A4368201D81B2284602F080
:1016B000EFFB00986946201884B26C80888B401C30
:1016C0008883022030700E98E119814201E002E027
:1016D0000AE000D875E7012C01D000209CE769469C
:1016E000088D88830A20087669460A7E70782B4622
:1016F000898B00F03AFA86208EE7F0B504468068C0
:101700008DB0878885682078002814D020460C305A
:101710000A906968022204A80B31FEF765FD69682A
:10172000022202A80931FEF75FFD0A986178068857
:101730000C2958D060E060780C2868682CD00B2108
:10174000017200206946088104AB0222052160680D
:1017500002F01AFB6846008A0090684600890690ED
:101760000AA8059003AE0322A068009900F056FB7A
:1017700086281BD0009800F014FC010018D00096B9
:101780002046059B069A00F0B7F90600CDD0862EBC
:1017900011D0842E19D024E00D210172606802223C
:1017A000416802A80B31FEF71FFDCDE7122000E0D3
:1017B00001206946087369460A7B60782B46098ACE
:1017C00000F0D3F986200DB0F0BD6868022202A9AE
:1017D0000930FEF709FD6868022204A90B30FEF704
:1017E00003FD3046EFE77A1E964201D80B20E0E772
:1017F00069460989711A8EB2791EB14200D27E1EE5
:10180000B4B2436822460521284602F041FB641C1D
:101810006C800020D7E7F0B50546806885B08188E8
:10182000039186680120694608802878002812D034
:1018300074886B46201D81B20222304602F0A4FA61
:101840006868694680780988401A0006470E28783B
:10185000002832D06DE00F21706801240172EFE79B
:101860004000401D81B201AB0222686802F08CFA90
:10187000694603228988A86800F0D0FA86280DD02E
:101880006846808800F08DFB002809D0A9680322F3
:10189000C98800F019FB020003D10BE0122200E01E
:1018A00001226846818833460E2000F05EF98620CA
:1018B00005B0F0BD0498401C80B20490B842CFD36C
:1018C00037E06846008801AB001D81B202226868DB
:1018D00002F05AFA287801280CD06846808800F077
:1018E00060FB0146A86802AAC08800F0B1FB84280A
:1018F00026D002E028460C30029003980299021B81
:101900000888824200DA104680B20490201D4B689D
:1019100081B23046049A02F0BBFA04986946201856
:1019200084B20888801C08807F1E74800220FFB269
:101930002870002F02D003988442C2D30020B7E75A
:10194000A8680023C18868468288022004F0BEFB94
:10195000050008D17480241D8425A1B26B460222A3
:10196000304602F095FA2846A2E70000FFB585B0A0
:101970001E460746FFF778F9050029D0A868002819
:1019800026D01C480068046B03E02188B94203D0CC
:10199000A469002CF9D105E0002C03D02146303099
:1019A000FEF799FFAB685868007A401EC7B20798E7
:1019B00000280FD002463846069900F0D6F828468F
:1019C00000F066F8002C03D00121204602F012FA44
:1019D00009B0F0BD142208496846FEF7ADFC684620
:1019E00047700295019486810E980490684600F035
:1019F00005F8EDE718040020CC7F041070B505460B
:101A00000078002810D168684168097A6970A9686F
:101A10008A68002A08D1FFF78FFA040010D168689D
:101A2000FFF75EFA04000BD186246878FFF7AEFC5E
:101A30000E2805D2144980000958284688470446D4
:101A40006868002809D0114A882C0ED0072C0CD0C9
:101A5000842C13D0012102F0CDF9002C01D0862C6A
:101A600002D1A86800F014F870BD01461068383043
:101A7000FEF72AFF092005F0C7FBEEE701461068D4
:101A80003030FEF721FF70BD5C7F04101804002089
:101A900010B504468068002813D042880021121D2A
:101AA00092B2406802F0C0F9A068FFF7F9F8E18847
:101AB0000020FFF711F96088400840006080002096
:101AC000A06010BDF8B504461E4615460F46806856
:101AD00000F0A4F986280BD0384600F062FA306096
:101AE000002807D0A1682A46C98800F0EDF9F8BDA2
:101AF0001220F8BD0120F8BDFFB581B004460A9D53
:101B00000020287021781E461746012913D0A068AE
:101B10002B46C0883246029900F0DAF8842814D0A7
:101B2000002806D131680A88BA421AD207202870E4
:101B3000862005B0F0BD2169002904D00C341C605A
:101B400028700020F5E70E20F1E702983B46428816
:101B5000A068C188022004F0B9FA0028E9D18420E5
:101B6000E7E74A68D2194A60E3E77FB51C461546A5
:101B7000410612D41E2810D0002C0ED0616801221C
:101B80000A72616802224872606801A90A30FEF791
:101B90002BFB60680573052060807FBDF0B50446AF
:101BA00080688BB086682078002843D16068022264
:101BB0004188C91E8DB2416801A80931FEF714FBA6
:101BC000002006906078D22815D0522817D0012026
:101BD0000690706813210527017201207080694604
:101BE00005AB3A4689882046FFF76CFF69460873C3
:101BF000002818D105E007270C3DADB2EFE7062716
:101C0000EDE7072F06D1A0686168C08802F028FFC1
:101C1000002808D103AA6168059800F073F800282D
:101C200009D0842809D069460A7B607833468988C0
:101C3000FFF79BFF00200BB0F0BD0A200290A068C8
:101C4000069EC0880A906846808806900D484A2201
:101C50000068676880690323029904F0AFF8010007
:101C60000DD00A9A8A808E71069A0A814D81CF60C2
:101C7000029804F08DF8842000216160DBE70720E2
:101C8000D9E70000080400207CB5009315460E46F5
:101C900004468188826801AB2846FFF757FA00287E
:101CA00015D12178890703D569468988618002E0CA
:101CB000A1886A4691802178C90708D0A068009061
:101CC0006846838829883246022004F0B1F97CBD39
:101CD000F8B50D461746064601461C46032228461F
:101CE00000F0F2F82070002801D08620F8BD3A46B6
:101CF0002946304600F0ACF98628F7D10E21217034
:101D0000F8BD0000F0B5054685B017460E468424A0
:101D10000888FEF7BBFF04906888019028780328A4
:101D200003D0042847D003203CE06968086A0028F3
:101D30006AD00A7D102A38D1098A354A914234D1B5
:101D400002AB03AA012130460097FFF7FFF9040018
:101D50005AD16846007BC107C90F6846017368689D
:101D60000121006A83682B48C07AC208521C04987B
:101D700000F0AAFA012803D16846007B002810D0A1
:101D800068680121006A806800902248C07AC30810
:101D90006846027B5B1C049800F0E0FA6868006A01
:101DA00025E01320387086242EE03B463246019908
:101DB000FFF76AFF27E069688869002824D00A7D58
:101DC000102AF2D1098A144A9142EED102AB03AA39
:101DD000022130460097FFF7B9F9040014D1694693
:101DE0008A893088294600F0A9FA686880690078F5
:101DF000C00709D003A800906846038931880220F3
:101E0000019A04F015F90446204605B0F0BD000023
:101E1000292B00009C2C002002290000F0B585B081
:101E200015460E460446142223496846FEF784FAF6
:101E30006A462249012000F0B8F8070016D0A078C1
:101E4000400635D5062D14D0072D12D0E088FEF7B8
:101E50001DFF7968096A8B681949C97ACA08012186
:101E6000521C00F031FA012822D104E0002005B014
:101E7000F0BD8620FBE76088010603D5C2218843B8
:101E8000608015E080210843608086243046FEF79C
:101E9000A5FF042D0DD100280BD00178032908D10E
:101EA0004068017D102904D1008A0649884200D18A
:101EB00000242046DBE70000BC7E0410FFFF00008A
:101EC0009C2C00202A2B0000F7B500260778154629
:101ED0003446324602213B0003F0C5FB05040404EE
:101EE0001A061E0002240AE0406803788278DE07A2
:101EF00000D002249B0701D54C231C434678032DB8
:101F00000CD0052D0ED0062D0ED0072D0ED012E0D0
:101F1000406882780478F1E70E20FEBDA0070AD45D
:101F20000846FEBD200702E0600700E060060028CA
:101F300001DB0320FEBD33462946019800F001F87D
:101F4000FEBDF8B51E4614460D46074602F062FD7A
:101F500000280FD0384602F04AFD072D10D0032D7F
:101F600000D0E408E10702D04107890F0BD06107D8
:101F70000BD403E0002C01D00E20F8BD0020F8BDEA
:101F8000C007F9D1F8BD0520F8BDC00707D031461C
:101F9000384602F01CFDB628F0D10C20F8BD0F2009
:101FA000F8BD10B5FEF71AFF10BD70B586B0164625
:101FB0000D4600F018F812E06088A84202D900200F
:101FC00006B070BD6946204600F01CF869463046F0
:101FD00003F064F9002804D02046FEF76DFF0400EA
:101FE000EAD12046ECE710B5FEF70AFF10BD10B5A8
:101FF0000178002903D0022901D0408810BDFEF7E6
:1020000055FF10BD10B50C461021217401780B004E
:1020100003F029FB05040D10141413004068007D23
:10202000012801D0094807E00520C00204E0074864
:10203000401C01E00548801CA08110BD41681422AD
:102040002046091DFEF7D0F810BD00000128000051
:10205000F8B50D460978164600240B0003F003FB83
:10206000050413181D212600124F396808466431F3
:102070000166686803F05DF9014638685C22115218
:102080005C30306013E01146284600F0D9F80EE0CD
:102090001146284600F024F809E0294600F076F8B9
:1020A00002E0294600F042F8044600E0862420467B
:1020B000F8BD00001804002010B5FEF77DFE0028D2
:1020C00000D0408810BD10B50C46FEF7DFFD6168FA
:1020D00089698A888B68022100F0F6F810BD00003B
:1020E000F8B5114D044628680E460146643008666E
:1020F000616802220978017060886946401C088086
:102100002868006E401CFEF76FF82868016E606852
:10211000C91C001D03F00DF929685C22C01C505237
:102120005C313160F8BD00001804002038B54B6800
:102130009B69002B23D0134C23685C3313604A68DF
:10214000137D102B14D1138A0F4DAB4210D122688E
:10215000134664331366022340329383FFF7B3FFC1
:102160006946088020680222006EFEF73DF804E010
:10217000216890695C3100F059F8002038BD842056
:1021800038BD00001804002002290000F8B5244CD6
:102190000D464B6821681E7D5C31102E0CD11E8AC5
:1021A000204FBE4208D11160206801467731016698
:1021B0001021403081832FE01B6A002B2ED011604C
:1021C00069680A7D102A22D1164B0A8A5B1E9A4240
:1021D0001DD122681146643111660121403291837C
:1021E000FEF754FDFF280DD06968096A8B680E4917
:1021F000C97ACA080121521C00F066F821686031D2
:10220000087109E0206800216030017104E0086A6B
:1022100021685C3100F00AF80020F8BD8420F8BD88
:10222000180400202A2B00009C2C002082684A60A1
:102230000278920701D5408800E0808808807047C6
:102240007FB51F4C064620680D4601466431016685
:1022500000221C4901207368FFF72EFF69460880A1
:10226000002824D0FEF7BAFDFFF7C1FE69460881B9
:1022700020680222006EFDF7B7FF20680222006E80
:1022800002A9801CFDF7B0FF206804215C221152D6
:1022900071680A7C102A0ED1006E0222001D0C31DA
:1022A000FDF7A2FF20684030818B891C02E0206886
:1022B00000214030818320685C3028607FBD0000B1
:1022C00018040020FFFF000010B548434403240C0D
:1022D000944201D9002010BD4A1E11434207185DE7
:1022E000520FC9B2D040084010BD000010B58AB0EE
:1022F000044614220D496846FEF71EF80B491422C5
:10230000143105A8FEF718F86946204602F0DEFFF2
:10231000002808D005A9204602F0D8FF002802D0E6
:1023200000200AB010BD0120FBE70000947E0410DD
:1023300038B5049C0094FFF719FB38BD38B5144636
:102340000D46FEF7A3FC696889698A6800928B884C
:10235000A207920F022100F001F838BD70B5484382
:102360004403240C049D9C4201D9862070BD4B1E61
:10237000194343070E465B0F285D9E401140B04352
:10238000994008432855002070BD704770470000F1
:10239000114C0022134695006351521C0A2AFAD3AD
:1023A0000D4A0725116002210C4E50606D078B000D
:1023B0001A18083A5719B74201D81268E250491C56
:1023C0000A29F4D3BFF34F8F06490548C860BFF30D
:1023D0004F8F00BFFDE7000034000020FFFF00002A
:1023E0000400FA0500ED00E070B50024014620313C
:1023F0004A79022A03D00421C163012418E002684B
:1024000013680E25AB431360026813685B085B001A
:102410001360436C3C22134001252A469A40036C0A
:102420005A604D7100220A71816B002900D08847E3
:10243000204670BDF0B4016C0C6801680B68456CF7
:102440003C26042235401746AF4027420ED05F0796
:102450000CD50B689B0602D40B6893430B60416C50
:1024600031408A40016C4A60016B1AE00227AF409C
:10247000024627402032002F17D09F0715D50B6842
:102480009B0605D40B680A24A3430B6001215171FC
:10249000436C022133409940036C59600021117153
:1024A000C16A002918D0F0BC08470827AF4027426E
:1024B00012D01B0710D50B680E24A3430B60436C8E
:1024C000012133400C469C40036C5C60C163517138
:1024D00000211171416BE4E7F0BC704710B5002496
:1024E000032000F009F8002801D0012401E000F0E9
:1024F00025F8204610BD0000F8B50F4E0024716885
:102500000546002915D07D20C000FEF7BCF807461F
:1025100000F0FCF83946FEF7B6F800F0FDF80028A8
:1025200007D1042D05D22946401E00F019F8356068
:1025300000E001242046F8BD7803002010B50021FA
:10254000481E00F00DF810BD002805DBC106C90EBD
:1025500001208840014908607047000000E100E068
:1025600010B503F0CBF810BDFFB585B00E9D00206F
:10257000EFF31086009072B607465D488760FEF75D
:10258000F5FA002851D00598FEF708FA0446059898
:1025900000F0D0F90390059801F043FB014605983F
:1025A000844200D304460398A04200D320468142CF
:1025B00000D2084604460020C04300F0D5FB002CA2
:1025C0000CD0012C10D06846007E002803D00120DA
:1025D000C00300F0D1FB022C0CD00FE038462F7066
:1025E00086F3108809B0F0BD30BF0120287086F353
:1025F00010887BE00320000300F0BEFB08990798D9
:10260000084300F0B9FB0021089800F0CBFB012142
:10261000079800F0C7FB06A90EC9204601F042FC4E
:10262000009000F0B5FB3349486086F310883048CD
:102630008068002829D02F4E7068002855D0706817
:1026400069460F710F72BC46010C2B4F8E46394004
:102650000F2703463F023B40194373463B4000228D
:10266000C0B2264F034307D0B8691B04184203D0F9
:1026700001206A4610720246002908D0B869084253
:1026800005D001206946087106E000242DE0002AEB
:102690002BD06046002806D070681949084202D045
:1026A0000F2002F0EDFF6846077A002F06D0706811
:1026B0001449084202D0102002F0E2FF706800F0D6
:1026C00023F868460079002806D070680C49084253
:1026D00002D00F2002F0E4FF002F06D070680949F5
:1026E000084202D0102002F0DBFF2C70009879E73E
:1026F000040000206C030020FFF0000000000040F8
:10270000000FFFF0FF00000F704700000148006855
:102710007047000060030020094910B5401E884240
:1027200001D9012010BD074C60610321081F02F090
:10273000E5FF0020A06107202061002010BD0000FF
:10274000FFFFFF0000E000E07047704770470000A7
:10275000F8B503680446D86919689A6806072546DB
:10276000360F8035002E60D0534EFF27213716409C
:102770000F40374372D0C70706D0CF0504D50127D5
:102780001F62AB683B43AB60830708D5D30706D015
:10279000276802233B62AB6804273B43AB604307D7
:1027A00008D5D30706D0276804233B62AB6802270D
:1027B0003B43AB60030709D520230B40334305D0CF
:1027C000266808233362AE681E43AE60AB68002BF8
:1027D00038D080060AD520200140C00502401143B0
:1027E00004D0E16E002901D020468847A8682168FE
:1027F0008968490601D4000729D5204602F030FD3A
:102800002068816849061ED5826840218A4382601B
:10281000A06F002817D029498163A06FFFF7E4FD5E
:1028200000280FD0A06F816B0BE0860616D501271C
:1028300020263F070E4017403E430FD0E16E17E0C1
:1028400020468847F8BD2046FFF780FFF8BD2046A8
:10285000FFF77CFF0020A860F8BDFFE706060AD559
:1028600001278026FF050E403A40164303D0216F12
:102870000029E5D1F0E742060DD54A060BD51968C7
:1028800020464022914319602021296000212167C0
:1028900000F016F8E0E7020205D54A0003D520460D
:1028A000FFF753FFD8E7C001D6D50029D4DA204678
:1028B000FFF74AFFD0E70000010000104D5204105E
:1028C00070470000F8B502F06DFB114C00256572F1
:1028D000A572EFF3108672B602F07AFB14CC171AC9
:1028E0008C4102F03BFF381AAC4186F3108800227D
:1028F0001146121AA14101DB0120F8BD0F2200216F
:10290000801A8C4101DA0220F8BD0020F8BD0000D9
:1029100050040020801A10B599410A220023FDF7C7
:1029200037FD0A05000B1043090B10BD10B502F06E
:102930004FFB10BDF8B5044600F0D0F8002840D099
:10294000684602F065FB2B4E0027717A002902D100
:10295000B17A002919D0012832D002F039FB04469F
:102960000D4602F0FBFE211822487D4130380069F7
:10297000002208187D411E214118554132687068B7
:10298000511AA8411CD3022403E0022818D00128C0
:1029900016D0184D303DA868002828D0007B0028AC
:1029A00025D002F015FB2A691E2380187941C3182F
:1029B000A8680022514105684268EB1A8A4101D299
:1029C0000120F8BD032C11D1016900290ED109495C
:1029D000183988420AD1002002F0F8FF0648016B3E
:1029E00001229207914301630320F8BD022420468F
:1029F000F8BD0000500400200018006038B5032026
:102A00004007C168022913D0C068032810D0094CC0
:102A10006946A06802F072FFA0606846007801284D
:102A200006D1207D627D411C914200D0401C207562
:102A300038BD000020040020F8B500256B46244C6A
:102A40001D70E1722346227210331A685968801A89
:102A50001018694103C465700120A070083C02F0A1
:102A6000B7FA2246303A9268536816681F46301A01
:102A70008F4118D3174882CC4068083C30186B410E
:102A8000081A9F410FD3107B00280CD012480179FF
:102A90004906490E01718575C575012002F096FF42
:102AA00068460078F8BD6946094802F083FE084888
:102AB000226830388068616818C80838D21AA14185
:102AC000EBD3007B0028E8D0024901200870E4E73E
:102AD0005004002064030020C00000200548017D50
:102AE000427D914202D10079002801D00020704738
:102AF0000120704720040020F8B506460F4602F07A
:102B000067FA0D46394604463F0D08030A220023A2
:102B10003946FDF755FC22182B464B41304602F052
:102B2000A3FEC4B2012002F051FF2046F8BD10B54B
:102B300002F09AFEC4B2012002F048FF204610BD08
:102B4000F8B5184C0546A0682B46064602460021FB
:102B500001E011461269002A07D09A42F9D1824257
:102B600001D1106901E012690A6100216A46117001
:102B70002973864214D0114602F0C0FEA060684658
:102B8000007800280BD0EFF3108172B6207D637DB2
:102B9000421C9A4200D0401C207581F31088F8BD79
:102BA000A060F8BD2004002008B50D490020087081
:102BB0000C48016B01229207914301630A49087D89
:102BC0004B7D421C9A4200D0401C0875054840309D
:102BD000C16801221143C160C068009008BD0000B7
:102BE0006403002000180060200400201CB501A927
:102BF000094802F0DFFD09480178002903D00021CF
:102C00000170FFF7D1FF064841680122114341607E
:102C1000406800901CBD00005004002064030020A8
:102C200040180060FEE77047704710B50C46042856
:102C300005D0052803D0062801D0A02010BD61686A
:102C4000A2780A7162886168120A4A7161688871A3
:102C50006168000AC8716088001D608002202072CF
:102C60002046FDF78BFE0028E8D06088001F6080BA
:102C7000812010BD03490969884301D000207047B5
:102C8000012070474000404803494969884301D00A
:102C9000002070470120704740004048034989697F
:102CA000884301D000207047012070474000404811
:102CB00008B504490A6A02430A62096A01400091A0
:102CC00008BD0000400040480349096A884301D01C
:102CD00000207047012070474000404870B50C4606
:102CE00000F000FA0546802801D3022070BD00F0F4
:102CF000DFFA002801D03A2070BD052C05D0132C36
:102D000003D01A2C01D0122070BD2146284600F0B5
:102D1000D6FA002070BD0000012805D0022805D099
:102D2000032806D001207047074A04E0064A2432EF
:102D300001E0054A48320020135C0B54401CC0B22D
:102D40002028F9D3002070476C04304804480078EC
:102D5000002803D103480068002800D001207047F4
:102D60007403002000043048024982B20A61000C5A
:102D7000886370470000504804498A6883B21A4348
:102D80008A600A6B000C02430A63704700005048D7
:102D900003480169806B89B2000408437047000052
:102DA0000000504882B2084B000C0129D96805D0B8
:102DB0009143D960596B8143596370471143D9607E
:102DC000596B0143F8E7000000005048064881684D
:102DD00004229143816001684905C90FFBD08168D5
:102DE00002229143816070470000404808B50849BD
:102DF00088680222104388600020009000BF401CB9
:102E000000900628FADB886804221043886008BD19
:102E10000000404805488168890704D5806840075C
:102E200001D5012070470020704700000000404895
:102E3000034801680122520391430160704700007A
:102E400000004048034A9168E023994301439160A0
:102E50007047000000004048034A116A0623994366
:102E6000014311627047000040004048F8B5064633
:102E70000225008800F01AF904002BD072B6314602
:102E800020467430FDF720FD00F0CBFB0546FFF730
:102E90004DFD0122920280182946064600F0FEF9F7
:102EA000012819D000F0C2FB254603462035287CB6
:102EB00000F062F900280BD0687F984208D0A08EFD
:102EC000002805D00120E034E076152004F09CF9BC
:102ED00062B684252846F8BD25462035287C00F0BA
:102EE0004BF9002807D0A08E0028F1D0287C31466D
:102EF00000F05CF9ECE700F099FB697F8142E7D1D3
:102F00002046FDF785FD0646E06F0004C70F287CCC
:102F100000F02AF90090287C012100F00FF9014609
:102F200020462830864223D1002F21D1009A012A41
:102F30001ED01848666F00688030C168307BC006BC
:102F4000C00E801C0F1839462046FDF763FD314640
:102F5000204600F05BF82667287C012100F0F8F895
:102F60000028B5D078780028B2D0001D7870AFE77F
:102F70008642ADD08E42ABD0002FA9D10098012857
:102F8000A6D02046FDF744FD0178102211430170C0
:102F90009EE7000000040020FEB513460D4600F039
:102FA00075F80446C030067D1946284600F094F9AD
:102FB000074600F0EDF805463D20005D6946FDF747
:102FC00035FD2946684600F016F8002801D028464D
:102FD000FEBD30467843000C002E03D03146FDF78D
:102FE00052FB08462018C030407DFEBD8908414391
:102FF000880C401C7047CA08D300C91A4907805C76
:10300000490F01228A40104070470000F8B50C4675
:10301000C16F10260A04A18901D5A57B10E0628842
:103020008030521A408D95B2A84205D20546E07B09
:103030004006400EE07303E0A069002800D100269E
:10304000002904D1207A800701D5022000E0012068
:10305000CF060643FF0EE81982B20B48616900688B
:103060008030C068001D00F086FB20610648A57313
:1030700000688030C168B81C0E5403480068803076
:10308000C068FF1CC555F8BD000400200649FF229A
:1030900009681D328031C9695043FF318131096FA0
:1030A00049680818704700000004002030B5044645
:1030B0000A4900208C4210D00023094D08E0184630
:1030C000FFF7E4FFC18EA14207D000205B1CDBB2FA
:1030D00029682031097D9942F1D830BDFFFF0000F9
:1030E00004040020F0B5FF24054600230A4F0B4ED0
:1030F0000BE01846FFF7CAFFC08EA84203D1BD42BD
:1031000001D01C4606E05B1CDBB230682030007D3D
:103110009842EED82046F0BDFFFF000004040020D6
:1031200000B5FFF7B3FF7C3000BD00B50B46FFF7DD
:10313000ADFF990008188030406800BD00B50B460F
:10314000FFF7A4FF9900081880304068801C00BD7C
:1031500010B50C46FFF7E4FF0078002C02D0000702
:10316000C00F10BDC006FBE710B50121FFF7DDFF62
:1031700000880006C00F10BD00B5FFF787FF2030A4
:10318000007B032801D0002000BD012000BD00000D
:10319000054925224143090C5143401A80B2252894
:1031A00000D32538C0B27047EB060000FEB50B46D1
:1031B000FFF76CFF0446006C0290C71AA06C0090E9
:1031C0006BD44000B84268D826462036707FFDF7A1
:1031D00043FC0190002508200123009AC1B28A40D7
:1031E000BA4204D8BF1A1A468A4051198DB2401EFD
:1031F00040B20028F1DAE08F2746401BE087E03735
:10320000B87E00280AD0707FFDF708FC010C414011
:103210008AB2E18F307CFFF7BFFE10E0717C252081
:103220006843091801986843081A80B2FFF7B0FF95
:1032300070740199401A253080B2FFF7A9FF01464A
:10324000707FFDF713FC606CE16C4200891AE16449
:10325000009A29465143029A0B46521A1218608D61
:10326000FFF7C4FE616C814201D8084604E0081AE9
:103270000D2800D20D206064121A2264E16C400017
:103280000918E164E06DC018E065707F00F060FA35
:10329000707F00F059F80020F876FEBD081AC00FC4
:1032A00001214840704710B5FFF7F0FEA43010BD73
:1032B00010B5FFF7F8FF00788007C00F10BD10B5FC
:1032C0000C46FFF7E3FE80210C43A03084711620EA
:1032D00003F09AFF10BD0000F0B5FF244840002322
:1032E0000234650002462240C609D201264032431C
:1032F00006462E407601324346092E4032430D4E9B
:1033000007463740FF003A43C70837403A4307466D
:10331000760037407F0040083A43304002431001B6
:10332000801840185B1CDBB280B2032BDAD3484014
:10333000F0BD00000404000001238B4082401046D1
:10334000834200D818467047F0B50646AFB001205A
:10335000039000F045F904460120A07300207C4F43
:10336000099039680872054600F042F90A903F68F2
:1033700001207874397C0809000109090843387470
:103380000207120F0120798A90400C37014202D0C7
:10339000002003F039FF387996210007000F3871BB
:1033A0009620009003984843A060F0091BD0FF2EA0
:1033B00026D07606760E05962C200A99704345187D
:1033C000FFF7B4FA2968081AFF382D2809D5A87C18
:1033D000102806D0202804D0012009900020A073D6
:1033E00051E00020A073FF2E0AD02C200A997043D0
:1033F000401801210175817C082901D104218174C3
:103400000099039848430090FFF790FA00994018FC
:1034100000F0A4F80028F7D10EA8089006A805909F
:10342000002000F0E5F84B4A8646D27A002001469B
:1034300094460CE02C220B46534373449B7C042B94
:1034400003D10FAB1954401CC0B2491CC9B28C4502
:10345000F0D8002844D00FA9059B089A00F0F0F896
:1034600005900020C04360600598FF280BD02C21F8
:1034700048430A9945186846007E002803D028680A
:103480000E99081A6060FDF78BFA00F0A9F804465F
:103490000598FF284ED00820A87428680090206066
:1034A000059860732A6A6968E86890470598FDF78F
:1034B0008FFAFDF785FAE87C8007C1170998491C47
:1034C000002813D001F0C0FD012020733879E97C79
:1034D0000007000F0901084338710098386031E097
:1034E000FF200021059A0E911170B9E70122009882
:1034F000FFF7A2FA0028E7D00398400003901028B5
:1035000000D229E71448A1250068062612220123CB
:103510004069294602F052FC040013D000212671B4
:1035200061710A46A01DFCF75FFE2146284602F0A5
:103530002FFC07E0FFF7C6F9FDF73AFAFF206073AA
:103540000020207302490120096808722FB0F0BDE5
:10355000000400209C2C002008040020F1B582B05B
:103560000020009000F044F8064600251B4F2FE095
:103570002C2068438419A07C0E21084218D0042016
:10358000A07422680299104600F0E9F800280FD1D3
:103590000298811AE269E0689047218A091821821D
:1035A000217D08187F2800D97F20207501200090F8
:1035B000A07C3021084209D0A16A002901D0E0682E
:1035C00088470020A074E074012000906D1CEDB2CB
:1035D000F87AA842CCD80098FEBD00009C2C0020B0
:1035E000024800688030006A704700000004002034
:1035F00003492C22096850438031496A40187047BA
:103600000004002010B5FFF7F3FFC06810BD10B52F
:10361000FFF7E6FF407B10BD10B5FFF7E9FF406AFA
:1036200010BD10B5FFF7DCFF006810BD10B5FFF747
:10363000D7FF407B10BD10B5FFF7DAFF807C10BDCF
:10364000FFB58BB00D460020FFF7D2FF0990962002
:1036500002900D99002008600E990646087070E0EF
:10366000801BC7B200200446009013E0285D2C2187
:103670004843099940180A90002C05D00068009929
:1036800000F072F8002803D00A98006806940090B1
:10369000641CE4B2BC42E9D3E819069A2038C17F21
:1036A000AA5CC27706987F1E2954F8B20690285C5F
:1036B0002C21484309994718002E18D008982C212E
:1036C000285C48430999441803CC083C41180298E7
:1036D0000818009900F048F8002811D002990098C5
:1036E000411A0D9801600E98012101702CE0069896
:1036F00008903968786809180298081803901EE045
:103700002168039800F030F8002809D00B98401E7B
:10371000C0B208900D99002008600E99087013E05F
:103720003A7D797DB87DFFF707FE0746227D617DF2
:10373000A07DFFF701FEB84201D206980890761CE2
:10374000F6B20B9886428BD30898285C0FB0F0BD78
:1037500070B514460D46FFF74BFF30C070BD401AE0
:10376000C00F012148407047081AC00F012148408E
:1037700070477047704770B50C461F21521E0A43B0
:103780000546521C002011044E0D16D0211D6A1A48
:103790002846002A01DD082A03DB2022FCF7FFFE71
:1037A00004E0082208C9521E08C0FBD1203520467B
:1037B000761E24683604360CE8D170BDFFB587B09C
:1037C0001D4606AB002A08D000280CD0202A04D3BE
:1037D000203A12040068120CF6D11A80040002D0BC
:1037E00000272E4620E028460BB0F0BD6846008B2F
:1037F000202820D22021091A89B2B14200D33146B3
:10380000009108992018C919001D009A00F0FEF9CE
:103810000028E9D100986946381887B20098301A14
:1038200086B2002008832468002E01D0002CDDD150
:10383000E81B0BB0F0BD69462038F3E70346491E8C
:1038400030B44809401C00250104090C72B61ED092
:10385000188888421BD35D680129284610D00124AE
:10386000CA07E407E24200D000680B4CCA031219F1
:10387000120C05D00468521E20681204120CF9D1F3
:1038800002685A60002202601888401A188062B6E6
:10389000284630BC704700000080FFFF0021002850
:1038A00004D0491C006889B20028FAD10846704744
:1038B0000021002804D0491C006889B20028FAD1F0
:1038C0004805000C7047F8B51C460D466B46002AAB
:1038D00008D0002823D0202A04D3203A12040068FC
:1038E000120CF6D11A80060019D014E06846008840
:1038F0002021091A8FB2A74200D3274631183A4631
:103900002846091DFCF770FCED19E01B84B23668EF
:10391000002069460880002C03D0002EE6D18120CB
:10392000F8BD0020F8BD002914D010B500230A46C8
:10393000144612685B1C9BB2002AF9D172B6426829
:10394000226041600188C918018062B6002003F03E
:103950006BFC10BD7047000070B50C4600212300C1
:1039600020D0203189B2914218D32268002A46D053
:103970001546002113461268491C89B2002AF9D164
:1039800072B642681A60456002885118018062B6BA
:10399000002003F049FC0020206030E0234624682A
:1039A000002CDED1511A89B2491E4909491C002553
:1039B0000C04240C72B61ED00188A1421BD34568AA
:1039C000012C2A4610D00126E107F607F14200D06B
:1039D00012680D4EE1038919090C05D01268491EC1
:1039E00012680904090CF9D11168416000211160C5
:1039F0000188091B018062B61D60002D01D00020E6
:103A000070BD862070BD00000080FFFFF8B5044641
:103A1000500900061E460F46000E06D0002C1BD093
:103A2000401E24680006000EF8D1D006C00E0FE03C
:103A300020210D1AB54200D3354620182A463946B2
:103A4000001DFCF7D1FB7F19701B86B22468002093
:103A5000002E03D0002CEBD18120F8BD0020F8BD52
:103A6000F8B5002815D02020FFF7ECF90220FFF769
:103A7000F3F95D48012102680A43026001684908C0
:103A800049000160026A01210A430262006A08409B
:103A900000905648816B564A914210D1816A0905BF
:103AA0000A0F816A09040E0F816A836A0903090FEC
:103AB0005B02806A5D0F4001440F012303E008228E
:103AC0000726114600234B48876B3F093F010F43F0
:103AD0008763416BF027B943360131434163416B42
:103AE0000909090111434163002B0DD081686A0760
:103AF000C908C900520F114381608168382291437F
:103B00006207920E114381603A488030016889094A
:103B100089010A310160026840210A43026042685B
:103B200092099201121D4260426880231A4342604A
:103B300042688A434260816A890989018162C16A57
:103B4000890989011031C162016B8909890120311C
:103B50000163416B8909890130314163816B8909B6
:103B6000890138318163C16B890989013931C163A8
:103B70002048C0300168890989013A3101604168F3
:103B8000890989013B3141608168890989013C319A
:103B90008160C168890989013D31C1601648816829
:103BA000090A0902553181604169090A0902663131
:103BB0004161816A090A0902553181620E49403129
:103BC0008A68120A12021D328A604A68120A1202B8
:103BD00059324A60CA68120A12023232CA60C16A95
:103BE00001221143C162F8BD40004048C01E0010D0
:103BF000CCECBCFC4016006040150060EFF3088080
:103C00000149FEF7C5FBFEE70100ECBC10B5FCF76F
:103C100058FC10BD134610B50A461946FCF70AFDBC
:103C200010BD10B500F006F8002801D0012010BD2D
:103C3000032010BD04480068012802D00120C043C1
:103C4000704700207047000088030020EFF31080C9
:103C500072B607490A68032A04D080F3108801204D
:103C6000C043704701220A6080F31088002070472B
:103C700088030020F8B52E4E706801274007C00F5A
:103C80002C4C2D4D00280DD0706804210843706025
:103C9000706888437060FFF7D9FF2F60226829465B
:103CA000781F904770680007C00F0ED07068082119
:103CB00008437060706888437060FFF7C7FF022098
:103CC000286022681C49801F90477068C007C00F99
:103CD00025D070683843706070684008400070609C
:103CE000FFF734F801281BD0002001468200401C59
:103CF000A9501828FADB10490120FFF70DF80E49EA
:103D000002202031FFF708F80B4903204031FFF76C
:103D100003F8FFF79BFF0849002022689047F8BD91
:103D2000FFF794FF032028600349C01FF5E7000058
:103D3000000030488C0300200805002070B5114AAF
:103D400001231268834312689B00491E81249B183B
:103D50004909491C89B272B615898D420ED31E8855
:103D60005B88AD19ADB25B18AB4207D88000135A1F
:103D700000245B1813521089401A108162B6204645
:103D800070BD00000C04002010B51C4613460A4606
:103D900040682146FFF797FD10BD091D8AB210B596
:103DA0000146002000F002F810BD0000F8B50D46F5
:103DB0000C49521E096800240E681F210A431D3257
:103DC00097B23946FFF7BAFF002809D13946F068A3
:103DD000FFF734FD041D006860600020E07325805B
:103DE0002046F8BD0C04002010B54068FFF7E6FC43
:103DF00010BD0000F8B50E460A49001F09680746C5
:103E00000C68FFF74BFD05463946E068FFF78BFD70
:103E100072B6B100605A401B60522089401920815F
:103E200062B6F8BD0C040020F7B5074617481646E1
:103E3000006804688120002F11D03846FFF738FD54
:103E40000546B0420CD2301A81B20198FFF776FFD6
:103E5000002804D132463946E068FFF77DFDFEBDFB
:103E600032463946E068FFF777FD6D1E761E690918
:103E70007209891A72B6019A9200A35A5B1AA35268
:103E800022895118218162B6FEBD00000C04002079
:103E900010B51C4613460A4640682146FFF7B6FD9A
:103EA00010BD7047FFB5FFB0F2B00024A0211AA8E2
:103EB000FCF7E7FB0020A190A290A390A490A5900E
:103EC000A6901821DAA8FCF7DCFB2C218BA8FCF7C4
:103ED000D8FB2C2196A8FCF7D4FB68216846FCF798
:103EE000D0FB4021CAA8FCF7CCFB24215AA8FCF740
:103EF000C8FB242163A8FCF7C4FB24216CA8FCF7B1
:103F0000C0FB5821B4A8FCF7BCFB302142A8FCF749
:103F1000B8FB30214EA8FCF7B4FB2C2175A8FCF7A8
:103F2000B0FB2C2180A8FCF7ACFB0120FEF7A2FE21
:103F300000280AD091212022C905E0A8FCF754F9F5
:103F4000A022FE491AA8FCF74FF901208004FEF7D1
:103F500091FE002804D00C22F949A1A8FCF744F9ED
:103F600001200004FEF786FE002804D00C22F5494B
:103F7000A4A8FCF739F901200003FEF77BFE002816
:103F800004D01822F049DAA8FCF72EF90420FEF735
:103F900071FE002805D009212C22C9068BA8FCF748
:103FA00023F90820FEF766FE002804D02C22E749FA
:103FB00096A8FCF719F9FF200130FEF765FE0028EE
:103FC00004D040221106CAA8FCF70EF90120FEF722
:103FD0005BFE002804D06822DD496846FCF704F93E
:103FE0000120FEF75BFE002804D02422D9495AA8FC
:103FF000FCF7FAF801200003FEF750FE002804D079
:104000002422D54963A8FCF7EFF801208003FEF7CE
:1040100045FE002804D02422D0496CA8FCF7E4F81F
:104020001020FEF73BFE002804D05822CC49B4A84B
:10403000FCF7DAF8FF200130FEF730FEF0AA517AE3
:10404000A891002806D0002904D13022C54942A8F1
:10405000FCF7CAF801208002FEF720FE002804D0F9
:104060003022C1494EA8FCF7BFF801204005FEF7F9
:1040700015FE002805D041212C22090675A8FCF761
:10408000B3F80120C005FEF709FE002804D02C2259
:10409000B64980A8FCF7A8F8B54A9068B090B54832
:1040A0004068AE90B4480068AF900020B34D8100E6
:1040B0004E193668401CE8ABC0B25E500828F5D3F4
:1040C000AB48006AB390AE480269B2924069AD4D08
:1040D000B190286BAD90A86BAC90AA4840300269B3
:1040E000AB928069AA900120FEF7EEFD002802D174
:1040F0000120FEF7DDFDA448806A8000A248816AA5
:1041000002D40205114301E04900490881620120FF
:10411000FEF7DAFD002805D19A484030016A4908C7
:1041200049000162F19803280ED12868A7902868F9
:10413000C006C00F04D0296810208143296003E025
:104140002868042188432860904900200968904A23
:104150005039A9918F4F11608D4E316804C9830089
:10416000401CFA50C0B231601428F5D3FEF710FE9F
:10417000F39AF499114308427ED18748016801609F
:10418000012000F005FEFEF745FE00280ED0FEF7E8
:104190001DFEA9682020E02291430143A960286800
:1041A0000121490308432860012600E00026FBF7AF
:1041B000E7FF002000F0ECFDF198032816D1A79846
:1041C000400703D52868042108432860A798C00643
:1041D0000CD571480321826A09038A438262C26A4C
:1041E0008A43C26228681021084328606B488068AF
:1041F00000287DD0664BA99900201960654982008E
:104200008A58196804C1401CC0B219601428F5D33B
:104210005749B09888605749AE9848605649AF985A
:104220000860564F0020E8AB81005A58C9190A604F
:10423000401CC0B20828F7D35248AD990163AC992D
:1042400081635048AB9940300161AA998161012096
:10425000FEF710FD002815D091202022E0A9C0050E
:10426000FBF7C2FF00201B90209025902A902F90F2
:10427000349039903E9000E00DE2A0221AA92F4818
:10428000FBF7B2FF01208004FEF7F4FC002804D005
:104290000C22A1A92A48FBF7A7FF01200004FEF782
:1042A000E9FC002804D00C22A4A92648FBF79CFFB7
:1042B00001200003FEF7DEFC002804D01822DAA952
:1042C0002148FBF791FF0420FEF7D4FC00280BD017
:1042D00093990920C00601629499416290994161C5
:1042E0002C228BA9FBF780FF0820FEF7C3FC00E01F
:1042F000D2E100280AD09E99144801629F99416238
:104300009B9941612C2296A9FBF76EFFFF2001309B
:10431000FEF7BAFC002804D04022CAA91006FBF719
:1043200063FF0120FEF7B0FC00283ED0009D0098FE
:104330004008400000906822694631E00000704863
:10434000000060480000304800002048000010488D
:10435000002000400020004100300041007000417A
:104360000060004100500041004000410010004149
:1043700000ED00E00010004000E100E000E400E09B
:1043800000E000E000004048001800600000041059
:104390006C03002078040020000050480400002036
:1043A000C24F3846FBF720FF3D600120FEF776FC48
:1043B0004025002810D05A9F5A98A8435A900C22A2
:1043C0005AA9BB48FBF710FFB94814225EA9103068
:1043D000FBF70AFFB648076001200003FEF75EFC0A
:1043E000002810D0639F6398A84363900C2263A9B0
:1043F000B048FBF7F9FEAF48142267A91030FBF76D
:10440000F3FEAC48076001208003FEF747FC00285C
:1044100010D06C9F6C98A8436C90A74D0C226CA98F
:104420002846FBF7E1FEA448142270A91030FBF7E0
:10443000DBFE2F601020FEF731FC002804D058224C
:10444000B4A99E48FBF7D0FEFF200130FEF726FC02
:10445000002810D0A89800280DD1429D429840080D
:1044600040004290964F242242A93846FBF7BCFEFA
:104470004D98F8623D6001208002FEF70FFC002895
:104480000DD04E9D4E98400840004E908D4F2422F6
:104490004EA93846FBF7A8FE5998F8623D60012006
:1044A0004005FEF7FBFB00280CD0759D7598400871
:1044B0004000759041273F06202275A93846FBF73A
:1044C00093FE3D600120C005FEF7E8FB00280BD0FD
:1044D000809D80984008400080907B4F202280A9DA
:1044E0003846FBF781FE3D600120FEF7EDFB00281A
:1044F0000CD10120FEF7DCFB7448816A49004908B1
:1045000081627348016A490849000162714DFF21C7
:1045100001225F31286800F0BBFC05E000F0D0FC10
:10452000002801D0042405E0694F403F386880032B
:10453000C00FF3D000221146104600F0A9FC002E57
:1045400015D0FEF753FCFEF773FC0120FEF7BCFB11
:10455000614E002846D0B004016800680906090FC2
:1045600009010007000F0143102916D03AE001228B
:10457000C821286800F08CFC05E000F0A1FC0028B0
:1045800001D0052403E038684004C00FF5D00022B4
:104590001146104600F07CFCD7E74D48006A4F4AB0
:1045A00006210840530002280AD0114628684C4FC3
:1045B000884211D0B04205D1914203D12A200AE0AD
:1045C0001946F3E7B04201D1994203D0984203D192
:1045D000914201D12920386078680007FCD400207E
:1045E000FFF73EFAF19803284BD1FF2101225F31FA
:1045F000286800F04DFC2868B04201D1042700E093
:1046000001273348002640380168C906C90F16D172
:1046100022E000F055FC002811D00022114610467F
:1046200000F036FC3046761CF6B2B84201D30224C4
:1046300022E0FF2101225F31286800F029FC244894
:10464000403800688006C00FE3D015E000F038FC69
:10465000002802D0032404E0054628680007C00FA4
:10466000F4D00120FEF730FB002805D0032C03D046
:10467000164801690F29FCD000221146104600F0AF
:1046800007FC1849B39808621748B19941610021A5
:104690008161B299016105E0002E03D0FEF7A6FB0F
:1046A000FEF7C6FB7FB0204676B0F0BD002000408C
:1046B00000200041003000410070004100600041D6
:1046C000005000410040004100100041001800600F
:1046D00040004048600300200090D0030024F40014
:1046E0000050004000ED00E000E000E0704770473F
:1046F00001F03AF8012805D0044880F3088802F058
:1047000093F8FEE7FBF7DCFCFBE70000000001206C
:104710007047000070B50C460546FF283AD0042CBF
:104720001DD0052C1BD0062C19D0072C17D0032C1C
:1047300001D1002D13D0012D13D0032C11D0022054
:10474000FEF78AFB01208007016800680906090F4F
:1047500009010007000F0143102907D01AE00120CA
:1047600070BD0420FEF778FB0125EBE70B48012C18
:1047700002D0022C07D008E0012D02D0002D0BD072
:1047800003E02A2102E0012D06D0282101604168C2
:104790000907FCD4002070BD2921F7E70050004034
:1047A00010B500F0E3FD10BDF8B507460A48154600
:1047B00000780E46002801D100F0D8FDEFF31084F8
:1047C000012080F310882A463146384600F006F86A
:1047D000E1B281F31088F8BDE427002070B50E46E1
:1047E00018214843134914464518E86A183500282B
:1047F00004D001280FD0022805D113E0284600F08C
:10480000E9FDA04201D2002411E0224631462846AB
:1048100000F00BFF0BE0284600F0DCFDA042F4D2D4
:104820000446F2E73146284600F0CFFE0446204613
:1048300070BD0000E42700200FB408B504A9009162
:104840006A46039900F004F801B008BC04B01847A8
:10485000F7B598B007A802904020039000200C46BE
:104860000490189915460826069105902178641C35
:10487000002970D0252907D002A800F087FE0598EE
:104880000028F3DA1BB0F0BD0122002013460227F6
:10489000217823291BD02B2916D02D2902D030298D
:1048A00006D101E0184300E03843641C002AEFD130
:1048B000002122781346303B0A2B0AD20A2359439F
:1048C00089183039641CF4E704210843EDE73043CC
:1048D000EBE70023D7B22E2F0AD1641C22781746AB
:1048E000303F0A2F04D20A277B439B18303BF4E762
:1048F0006C2A0DD0682A0BD0702A48D00BDC252AF0
:104900004FD0582A28D0632A0CD0642A4DD10EE00B
:104910006278641CECE7732A2AD0752A13D0782AAF
:1049200043D119E02868011D296001783AE02A681E
:10493000171D2F601768009101900A22394602A8BE
:1049400000F053FD31E02A68171D2F6017680A2216
:104950000091019007E02AE02A68171D2F60176870
:10496000102200910190394602A800F0A3FD1CE03E
:104970002868011D2960076839787F1C002914D038
:1049800002A800F003FE05980028F5DA0DE028687B
:104990000823011D29600168002010220096019063
:1049A000E2E7252102A800F0F1FD641C67E700287A
:1049B00000DC67E70498002804D0024607A918988D
:1049C000FFF7F2FE04990598401805905AE710B5D4
:1049D0000C4600F01FF8002807D0817A002904D087
:1049E000007FA04201D3002010BDB62010BD10B53D
:1049F000002400F00FF800280AD00089C10407D570
:104A00000124810401D5032402E0400400D50524DB
:104A1000204610BD70B500281CD003050F480E4A73
:104A200000681268203000211B0D047D80320FE0E9
:104A300008467C267043156A0830285A0005000D88
:104A4000984203D17C225143681870BD491CC9B2F9
:104A50008C42EDD8002070BD10040020040400201A
:104A6000F0B58BB00F464E88FFF7D4FF050032D06B
:104A700007A902F09BFB002802D0B1200BB0F0BDCB
:104A8000083EB1B26B460C223846FFF77DF9684606
:104A90000178407802026846807803046846C0784E
:104AA00004061C43144368690C43411C01D0A04216
:104AB0000CD2F2B203AB394607A802F0BFFA0822C3
:104AC00005A901A8FFF7A2F8002801D00520D5E725
:104AD00000206C61D2E78020D0E7704770477047B4
:104AE00070470000F8B500240122C821414800F0B9
:104AF000CFF9414D05E000F0E3F9002801D0012491
:104B000003E068694007C00FF5D000221146104647
:104B100000F0BEF9002C01D02046F8BD3649202017
:104B2000CA6930239A430243CA61344CC101A06868
:104B300088430843A060324B996B3248814211D1BF
:104B4000586A0207586A120F4006410F586A5D6A98
:104B50000005000F2D042D0F00955B6A9B029D0E32
:104B6000012304E008221E25002310460321E668E5
:104B70003F273F06BE432D062E43E660E56801262B
:104B8000F6053543E56001271E25002B08D0009B64
:104B9000E6685B00AE431E43E660E3683B43E360C8
:104BA000154B80335C694000AC4304435C61586939
:104BB0003843586158690F24A401A043920110435F
:104BC0005861586920221043586158690722D2025F
:104BD0009043C9020843586158690121890208437A
:104BE000586105488A10C16991431143C161002091
:104BF000F8BD00000024F4000000504800004048C8
:104C0000C01E0010CCECBCFC10B5FBF76DFB0446DD
:104C100002F02AFF002803D0012003490007486062
:104C20002046FBF765FB10BD00ED00E0F8B505463A
:104C30000024012264214C4800F02AF94B4E3068D0
:104C4000012109040843306005E000F039F900282B
:104C500001D0042403E030688003C00FF5D00022A7
:104C60001146104600F014F9002C6BD1002D0AD02B
:104C700028463F4F3F4D030000F0F5FC0852242921
:104C80002E3E43484D520120800701680068090606
:104C9000090F09010007000F0143102910D0B06867
:104CA00002210843B0600020009000BF401C00902B
:104CB0000628FADBB06804210843B0600020F8BD84
:104CC0000620F8BD0020FEF7BDF82F6009E0202087
:104CD000FEF7B8F8244803E04020FEF7B3F8264872
:104CE00028600122C821286800F0D2F8306801212C
:104CF0004903084330601AE06020FEF7A3F81F481C
:104D0000EEE78020FEF79EF81D48E9E7A020FEF7B9
:104D100099F81C48E4E7C020FEF794F81A48DFE74A
:104D2000FEE700F0CDF8002801D0052403E030684C
:104D30004004C00FF5D000221146104600F0A8F83C
:104D4000002C01D02046F8BD286810493022B84216
:104D500005D14B681020934303434B60AEE748688E
:104D600090434860AAE700000048E801000040487E
:104D70000090D003600300200024F40000127A00A9
:104D800000093D0080841E0040420F0000100040DA
:104D9000044904220028086901D0104300E0904330
:104DA0000861704700ED00E070B50D4606463349D6
:104DB00031488860324908613248202142680A43FC
:104DC0004260426840210A434260426880210A43AF
:104DD0004260FFF787FE00284DD1FF210024012209
:104DE0002D31294800F054F82849012388681B0414
:104DF0000322D203904318438860086804221043BA
:104E0000086005E000F05CF8002801D0032403E00E
:104E100008680007C00FF5D000221146104600F0C8
:104E200037F8200027D1FF2D02D00120FEF718FE11
:104E30001648803081693F221202914301225203B9
:104E4000114381618169802211438161826930212E
:104E500070239A430A4382613046FFF7E7FE002839
:104E600009D131462846FFF755FC002803D102F04E
:104E70007BF862B6002070BD0000041000ED00E079
:104E800004000020000050480024F40000004048C6
:104E900070B50A4C0D46002A0AD07D21C900FBF7E7
:104EA000F2FB401E684360610020A061052002E023
:104EB000206940084000206170BD000000E000E073
:104EC00003480069C00301D50120704700207047E6
:104ED00000E000E07CB50024022523460F4A10A123
:104EE00012480095019402F081FD0146012802D08C
:104EF0000FA001F0AFFCFF2200235F3216A11B4878
:104F00000095019402F072FD0146012802D018A01C
:104F100001F0A0FC02F0E8FA7CBD00008A0200006B
:104F2000626C654576745461736B000061630410B4
:104F3000424C45206576742068616E646C6520740F
:104F400061736B20637265617465206661696C3A98
:104F500020307825782E00007573617274315265A7
:104F600063656976655461736B0000004D720410CF
:104F70007573617274312072656365697665206846
:104F8000616E646C65207461736B2063726561741B
:104F900065206661696C3A20307825782E00000023
:104FA00070470000002003214907C8600348816A58
:104FB000012292079143816270470000001800604F
:104FC00010B503204007406900F00AF810BD00004A
:104FD00008B50248694601F063FA08BDC80400201C
:104FE000F8B506466946084801F05AFA04460648EC
:104FF0000D46416A0098054A801BFBF79FF8294639
:105000000022201A9141F8BDC80400203506000096
:105010000C498A6A520003D5496A0160032070472F
:1050200003214907CA68022A04D0CA68032A05D0A6
:10503000002070470969016001207047096901601B
:105040000220704700180060EFF3108072B6054927
:10505000096903225207891C11610221D16080F382
:10506000108870470018006070B50C461A491B4A3A
:10507000096AFBF763F80146202800D82021184A66
:10508000106941180831D162936A01256D072B43DD
:105090009362136B6D002B4313639604F368002532
:1050A000022B05D0F368032B02D02378012B01D00B
:1050B000257070BD0B4B1C796406640E1C719D75C8
:1050C000DD75090909015162916AC908C900916237
:1050D000916A3143916270BDC8040020260300002C
:1050E00000180060C0000020F8B5324D06466F7E03
:1050F000012903D0002A07D0EC7D06E0002A01D068
:105100006C7D02E0AC7D00E02C7E2A4869462038A8
:1051100001F0C6F9301A274EC837203E3169264AB9
:10512000C9198142254F316A15D2FBF707F8244B84
:105130005979401A011B009840187862B86AC00873
:10514000C000B8620022D805C260BA6A0243BA62DF
:105150005879001910E0FAF7F1FF6A7F801A011BF5
:10516000009843180320400703610223C360B86A14
:105170005B079843B8621019114A137980242343BE
:105180001371F0239375FF23D3750A18411D8A42CA
:1051900009D2002003214907C860B86AE1058843A5
:1051A000B8620120F8BD074A716AFAF7C7FFA8770D
:1051B0000020F8BDE804002026030000001800606D
:1051C000C00000203506000010B50348007D00280F
:1051D00001D000F089FB10BDE8040020F8B50746B7
:1051E0000E4605460837FFF7F3FE0091297804467E
:1051F000491DC840C008301A06B2387B761E002808
:1052000002D03846FDF79CFC2A783046F117083268
:10521000FBF7AEF8009B02194B413846FDF787FCBF
:10522000C0B2F8BD10B542780024914206D1017D8C
:105230000830002908D0FDF783FC05E0426A4900E8
:10524000515EFFF7CBFF0446204610BD10B5806AC3
:10525000002201464031CA83CA82FDF777FA10BDA9
:1052600001680A68FF2321339A430A6001688A684B
:10527000044B1A408A60202284210A500021C16612
:1052800070470000FEFFFFEF7047000010B50248B6
:10529000FDF75EFA10BD0000C026002010B5027CAC
:1052A0000B7C9A4202D00020C04310BD102A05D0CA
:1052B000202A06D0C068C968401A10BD8089898933
:1052C000FAE71022FEF7A2FC10BD000010B50C4654
:1052D0008AB0014614226846FAF786FF1422214656
:1052E00005A8FAF781FF6846007C0024802806D0D4
:1052F0000C220C496846FAF777FF6846C48108A873
:105300000079802806D00C22064905A8FAF76CFF20
:1053100068464484102205A96846FEF777FC0AB067
:1053200010BD0000E07F0410017C802900D00C300B
:10533000704710B50B46027C01460C31102A08D08C
:10534000202A0CD0014610221846FAF74DFF1020F3
:1053500010BD02221846FAF747FF022010BD0422B2
:105360001846FAF741FF042010BD000010B5134C99
:10537000A8212046FBF785F903202061606110A079
:10538000A0612046A830E061012080022062002058
:10539000A0626062E0620AA121660C496166102188
:1053A000A1662067E0666067094A0F210B1AD35C8B
:1053B0002354401C1028F9D310BD0000E42700201E
:1053C0005465726D696E616C000000008C2C0020C9
:1053D000387D04100269C1688A4203D88068401A87
:1053E000801800E0501A401E7047FFB583B00E468B
:1053F00070420D9F0C9C0090002900DB084601259F
:1054000002E0FBF74EF96D1C05998842F9DA06981F
:10541000A84200D90546002C04D0002E01DB7807F5
:1054200000D5641EB80702D50698002810D0F807EA
:105430000ED1002C0CD0A5420AD22021641E039864
:1054400000F0A4F80398C0680028F2DA07B0F0BDB5
:105450000398C0680028F9DB002E02DA2D21009E97
:1054600002E0780707D52B21039800F08FF8039806
:10547000C0680028EADBB807800F022810D1069820
:1054800000280DD1002C0BD0A54209D23021641E7A
:10549000039800F07BF80398C0680028F2DAD5E79B
:1054A000019700943146069B059A039800F002F894
:1054B000CCE70000FFB581B001261F4635460A9CA7
:1054C000029802E0FBF7DFF86D1C03998842F9D2DD
:1054D000AF4200D93D460B98C00718D1002C16D01A
:1054E0000B98800701D5002F02D0202000900CE0FF
:1054F0003020FBE7641E0099019800F047F80198FE
:10550000C06800283DDB002C01D0A542F2D30198F1
:10551000C068002835DB012F01D97F1E06E0314627
:105520000298FBF7B0F80399884202D303984643E8
:10553000F1E7154F31460298FBF7A5F80146029AAC
:105540007143511A0291395C019800F01FF80198DB
:10555000C068002805DB30460399FBF794F8060085
:10556000E8D10B98C0070CD0002C0AD0A54208D275
:105570002021641E019800F009F80198C0680028F5
:10558000F2DA05B0F0BD0000497D041010B5044604
:1055900080686368421C934205D323681954A26053
:1055A000E068401CE060A2686068824209D121681E
:1055B0002069FFF7F9F8A168884203D00020C043B2
:1055C000E06010BD0020A06010BDF7B5054682B0B8
:1055D00000200090EC6817462869A04201D9061BFC
:1055E00002E0A968201A0E1AA868761E001BB042B5
:1055F00000D80646BE4200D33E46686832460019CF
:105600000399FAF78BFF0098BF1B8019009003984D
:10561000A41980190390A868A04200D10024EC606E
:10562000002FD9D1009805B0F0BDF7B50446C76882
:105630008068E168C51B606816464018B54205D908
:105640000199FAF76BFFB819E060FEBD2A4601998F
:10565000FAF764FF0199761B606849193246FAF738
:105660005DFFE660FEBD30B47446641E2578641CA0
:10567000AB4200D21D46635D5B00E31830BC1847A7
:10568000002809DBC106C90E0120884003490860D3
:10569000BFF34F8FBFF36F8F7047000080E100E0D2
:1056A000002805DBC106C90E0120884001490860B9
:1056B0007047000000E100E08307FF22DB0E9A4004
:1056C0008907090E9940002808DB830809489B00D8
:1056D0001818036893430B43036070470007000FDB
:1056E0000838830804489B001818C36993430B4388
:1056F000C361704700E400E000ED00E08307FF2293
:10570000DB0E9A408907090E9940002808DB8308C0
:1057100009489B001818036893430B4303607047C4
:105720000007000F0838830804489B001818C36955
:1057300093430B43C361704700E400E000ED00E0D9
:10574000BFF34F8F04490348C860BFF34F8F00BFBA
:10575000FDE700000400FA0500ED00E00148807F4D
:1057600070470000E804002010B50D48406900288B
:1057700014D10C480169002902D1806B00280DD09A
:10578000094901208860FAF715FDBFF34F8F0849DA
:105790000648C860BFF34F8F00BFFDE7012010BD72
:1057A0008000404800005048040000200400FA0532
:1057B00000ED00E0F3B581B00446029800210170CD
:1057C000A07A00283DD0264844C8483800681718F9
:1057D0004E41EFF3108572B6FFF7FAFB844605CC15
:1057E00019238E465B03083C0021FB18714100928F
:1057F000C31A8A4109D3FF2273320021BA184E41DD
:1058000061467346511A9E4126D262460A23D31836
:105810007146002671414B27FF43761E009AC0193E
:105820007241181A91410DD2227AE17A2068FFF76D
:105830005BFC029908700020A0720120607285F361
:105840001088FEBD064900201039887285F3108843
:10585000029901200870FEBD024901204870EEE760
:105860006004002064030020F8B500216C4621701C
:10587000017B002901D00120F8BD0CC0012101717C
:1058800018490023896808380F4601E00B4609696A
:10589000002906D00E6804684A684568341BAA418E
:1058A000F4D302460161002B1AD01861874214D14B
:1058B000694600F023F80B4A90606846007800289B
:1058C0000BD0EFF3108172B6107D547D431CA342C0
:1058D00000D0401C107581F3108868460078F8BD30
:1058E0001746E3E720040020034801690122114321
:1058F000016100218160704700100060F3B585B040
:10590000044602900698002101704FE0207B002899
:105910004BD0EFF3108772B600206946087003A9D8
:105920002848FFF747FFFFF753FB28CC083C1E1A17
:105930002A468D4100210846891B9E46B446A8414F
:105940002DDA2049204D03C901916E6873469E19D6
:10595000002513466B41861B994114D21949497A97
:10596000002910D073460199C01A914102D31649FB
:105970000120087069466046FFF776FB68460078AC
:10598000012803D008E001206946F2E70D48817A3A
:10599000427A11438172457287F3108808E00699B4
:1059A0000120087087F3108806E02469002CADD12F
:1059B00006980078002802D0029807B0F0BD204673
:1059C000FBE70000500400206403002010B5094CE0
:1059D000002809D0207B002805D12046183000F08F
:1059E000F9FC0120207310BD02481830FDF7A8F81B
:1059F0000020F7E720040020704710B50888FFF763
:105A0000FBFF10BD704770B5FFB0FFB082B0054618
:105A10000C464A686E460988304600F010F82807A0
:105A200003D501216068FEF7E5F9684681780088B2
:105A3000321DFFF7E7FF7FB07FB002B070BD10B539
:105A4000144652880180521E92B291088170031D43
:105A500005212046FEF798F910BD704770B5FFB0DC
:105A6000FFB084B005460C464A686E460988304649
:105A700000F011F8280703D501216068FEF7BAF994
:105A80006846828881780088B31DFFF7E6FF7FB003
:105A90007FB004B070BD10B51446528801806168B3
:105AA000921E497A817092B28280831D062120461F
:105AB000FEF76AF910BD704730B5FFB0FFB083B094
:105AC00005460C464A68098801A800F013F8280723
:105AD00003D501216068FEF78DF903A800906846A0
