:020000041004E6
:100000000000012091990510AD8C0510859D04100C
:10001000AA5555AA45554C420000000000000000BA
:1000200000000000000000000000000011AD0510FD
:100030000000000000000000EF0204100DAF0510EA
:100040002D3C04108F9905107D990510539E0410C6
:10005000559E04100BAD05100DAD05100FAD05102C
:1000600045BB05105385051079B10510399A051067
:10007000150C04103996051041BB0510258A041093
:10008000278A0410452E0410D12304107D22041069
:100090007F2204108D990510BD86051029280410B3
:1000A000EB2304108F220410000000000000000069
:1000B0000000000000000000000000000000000040
:1000C00000F002F800F0E7F80CA030C80838241857
:1000D0002D18A246671EAB4654465D46AC4201D180
:1000E00000F0D9F87E460F3E0FCCB64601263342CB
:1000F00000D0FB1AA246AB4633431847BC56020059
:10010000EC5602000023002400250026103A01D3FB
:1001100078C1FBD8520700D330C100D50B607047BF
:1001200010B5904216D98AB2030C090C0C465943FB
:1001300080B25343444350431B191A041B0C10183C
:10014000594180225203002312184B41520DD8020C
:10015000104310BD4843802252031218520D10461E
:1001600010BD0000EFF31482EFF30981154880F30E
:100170001488BFF36F8FF0B543464C4655465E4634
:100180006746F8B4104CEFF30883636006B4BFF31E
:100190004F8F30BF00BF00BF0B4C646884F30888EA
:1001A00082B003BCF8BC9846A146AA46B346BC46FA
:1001B000F0BC04BC80F3098881F31488BFF36F8F0F
:1001C0001047000000000000040000208B0707D04B
:1001D000521E22D30B78491C0370401C8B07F7D1A9
:1001E000830730D0DB4219D0401E121F08D308C944
:1001F00043701B0A43801B0C0371001D121FF6D2B3
:10020000D20707D30B88437001D08A78C2701B0ACB
:100210008370704701D00B7843707047121F06D36C
:1002200008C903801B0C4380001D121FF8D2D2079F
:1002300005D30B88038005D08B788370704701D07D
:100240000B780370704770B4103A03D378C978C044
:10025000103AFBD2530701D318C918C001D508C9F9
:1002600008C0D20704D30B880380801C891C002A95
:1002700001D50B78037070BC704700001FB500F00B
:10028000CDFB04000020002124F04CFF401C6060E6
:100290001FBD10B510BD04488546FFF7EFFF20F0E5
:1002A000A9FD00F0EFFB00000000012003B4FFF700
:1002B000F0FF03BC00F03EFC084B196808682030D2
:1002C00080F30988022080F31488BFF36F8F3FBC4E
:1002D000AE4608BC04BC62B618470000F805002012
:1002E000EFF3108072B6704780F310887047EFF319
:1002F00009800E4B1A6820381060F0C044464D4605
:1003000056465F46F0C008B572B624F0C9FD62B625
:100310000CBC116808681030F0C8A046A946B24667
:10032000BB4680F309882038F0C81847F80500203C
:1003300070B505460C46164602E00FCC0FC5103EC0
:10034000102EFAD2082E02D303CC03C5083E042E89
:1003500007D301CC01C5361F03E021782970641C46
:100360006D1C761EF9D270BD10B5202A04DB014643
:10037000203A9140002010BD914020239C1A034652
:10038000E3401943904010BDFEB5054610460C46AB
:10039000184373D0AE468C460020AD1A01469C41EE
:1003A00067D36646002701243D46B61A9D4102D315
:1003B00013463A462124654676462F04360C3E43C2
:1003C0002D0CB61A9D4104D3150C1B042B431204AB
:1003D0001034654676462F06360A3E432D0AB61A75
:1003E0009D4104D3150E1B022B43120208346546AF
:1003F00076462F0736093E432D09B61A9D4104D390
:10040000150F1B012B431201241D65467646AF07CD
:10041000B6083E43AD08B61A9D4104D3950F9B0024
:100420002B439200A41C65467646EF0776083E43B0
:100430006D08B61A9D411AD392185B41641C16E0F0
:100440000018764665464941B71A9D4101910090D2
:1004500009D36046B11A98418E46844600980199A6
:100460000025401C6941DD0752082A435B08641ED1
:10047000E6D57246634603B0F0BDFFE700200146B3
:10048000C046C0462A462346F5E70000F7B50F46AA
:100490000026009C2578641C002D05D000F03AFA57
:1004A0000068405DC007F5D12B2D02D02D2D18D04E
:1004B000641E3946029A204600F038FA002F04D014
:1004C0003968A14201D100993960710502240029DF
:1004D0000BDA4042002803DD00F024FA0460A00794
:1004E000FEBD012080020643E3E70028F8DA00F0B1
:1004F00019FA04600048FEBDFFFFFF7F10B5024AF5
:1005000000F068FA10BD000080060020034610B518
:100510000B439B070FD1042A0DD308C810C9121F23
:10052000A342F8D018BA21BA884201D9012010BDDF
:100530000020C04310BD002A03D0D30703D0521CB3
:1005400007E0002010BD03780C78401C491C1B1BE1
:1005500007D103780C78401C491C1B1B01D1921E4B
:10056000F1D1184610BD000030B5441C03E00178FD
:10057000401C00290DD08107F9D10B4BDD0104C8C7
:10058000D11A91432940FAD0001B0A0603D0C01E9D
:1005900030BD001B30BD0A0401D0801E30BD0902F1
:1005A000FCD0401E30BD000001010101F8B5042A55
:1005B0002CD3830712D00B78491C0370401C521EA9
:1005C00083070BD00B78491C0370401C521E830715
:1005D00004D00B78491C0370401C521E8B079B0FE4
:1005E00005D0C91ADF002023DE1B08C90AE0FFF787
:1005F0009FFEF8BD1D4608C9FD401C46B4402C4373
:1006000010C0121F042AF5D2F308C91A521EF0D4E2
:100610000B78491C0370401C521EEAD40B78491C0D
:100620000370401C012AE4D409780170F8BD431A14
:1006300070B593421BD28918801804E0491E401EF1
:100640000B78521E03709307F8D106E0103910386A
:1006500078C9103978C01038103A102AF6D203E061
:10066000091F001F0B680360121FF9D570BDFFF74B
:100670005FFE70BDF8B5064614460843800707D0F4
:10068000751AA54219D20819102D13D2311907E095
:100690003046FFF7CCFFF8BD401E491E02780A70B5
:1006A000641EF9D2F8BD471B2A463946FFF77EFF84
:1006B000641B3846A542F6D3011B22463046FFF79D
:1006C00075FFF8BDD2B210B513029A1813049A1828
:1006D00000F00EF810BD01E004C0091F0429FBD290
:1006E0008B0701D50280801CC90700D002707047BB
:1006F00000290BD0C30702D00270401C491E0229FA
:1007000004D3830702D50280801C891EE3E7002200
:10071000EEE70022DFE78178C27803780904120649
:10072000114342781002184308437047002203091E
:100730008B4273D3030A8B4258D3030B8B423CD3B7
:10074000030C8B4221D312E003460B437FD40022DB
:1007500043088B4274D303098B425FD3030A8B4255
:1007600044D3030B8B4228D3030C8B420DD3FF22BF
:10077000090212BA030C8B4202D31212090265D08D
:10078000030B8B4219D300E0090AC30B8B4201D340
:10079000CB03C01A5241830B8B4201D38B03C01A87
:1007A0005241430B8B4201D34B03C01A5241030BFE
:1007B0008B4201D30B03C01A5241C30A8B4201D3AF
:1007C000CB02C01A5241830A8B4201D38B02C01A5A
:1007D0005241430A8B4201D34B02C01A5241030AD1
:1007E0008B4201D30B02C01A5241CDD2C3098B42B6
:1007F00001D3CB01C01A524183098B4201D38B0133
:10080000C01A524143098B4201D34B01C01A5241D5
:1008100003098B4201D30B01C01A5241C3088B421A
:1008200001D3CB00C01A524183088B4201D38B0005
:10083000C01A524143088B4201D34B00C01A5241A7
:10084000411A00D201465241104670475DE0CA0F7E
:1008500000D04942031000D34042534000229C463E
:1008600003098B422DD3030A8B4212D3FC22890148
:1008700012BA030A8B420CD3890192118B4208D31E
:10088000890192118B4204D389013AD0921100E080
:100890008909C3098B4201D3CB01C01A5241830994
:1008A0008B4201D38B01C01A524143098B4201D3C1
:1008B0004B01C01A524103098B4201D30B01C01AEC
:1008C0005241C3088B4201D3CB00C01A5241830866
:1008D0008B4201D38B00C01A5241D9D243088B42BC
:1008E00001D34B00C01A5241411A00D2014663465F
:1008F00052415B10104601D34042002B00D54942C3
:10090000704763465B1000D3404201B50020C046EB
:10091000C04602BD10B500F081F8001D10BD00BF3B
:100920000548020000487047ACB10020F7B51546F5
:1009300082B00027029C2078641C0197302802D0E6
:10094000002D15D015E020780127641C782804D0EC
:10095000582802D0002D09D00BE0002D01D0102D19
:1009600007D1207800271025641C02E0082500E04C
:100970000A250026009610E000990127694308180F
:1009800029467143020C80B200908E1838048642CA
:1009900001D3012001902078641C294600F042F820
:1009A0000028E9DA0398002805D0002F01D0641E42
:1009B00000E0029C04600198002806D0FFF7B2FF17
:1009C00002210160C81E05B0F0BD00993004084343
:1009D000F9E70000F8B515460E46040003D12C686F
:1009E000002C00D10CA4204600F03CF8041920781B
:1009F00000280ED027463146384600F022F8041968
:100A00002078002802D000202070641C38462C601A
:100A1000F8BD0027FAE7000000000000004870471A
:100A2000CCB100203A2800D23038202302469A4325
:100A3000412A01D310463738884201D30020C043F1
:100A4000704730B503461D78002D03D00A4603E0F9
:100A5000AC4201D1181A30BD1478521C002CF7D1C9
:100A60005B1CF0E730B503461D78002D08D00A4620
:100A70001478521C002C03D0AC42F9D15B1CF3E774
:100A8000181A30BD10B50446C046C0462046FFF7D0
:100A90000DFC10BD82078B079A4237D170B5920FBB
:100AA0000AD0032402780B78401C491C002A2BD062
:100AB0009A4229D12042F5D11D4EF40104C808C93B
:100AC000951B9543254010D19A4207D104C808C907
:100AD000951B9543254008D19A42EFD012BA1BBA14
:100AE00001209A4200D2404270BD12BA1BBA2DBA00
:100AF00018241000E0401900E140401A05D12E00F2
:100B0000E64002D1083CF4D1D01A70BD02780B78CF
:100B1000401C491C002A09D09A4207D102780B7860
:100B2000401C491C002A01D09A42EFD0D01A7047CD
:100B30000101010101491820ABBEFEE726000200B9
:100B4000704770B58C180578401C6B075B0F01D19E
:100B50000378401C2A1106D10278401C03E0067875
:100B6000401C0E70491C5B1EF9D12B0705D40023D5
:100B7000521E0DD40B70491CFAE70378401CCB1AA7
:100B8000921C03E01D780D70491C5B1C521EF9D5A8
:100B9000A142D8D3002070BD01460020096802E0C0
:100BA000401C896980B20029FAD170470021016098
:100BB0004060704702688A61002A02D10A461832F2
:100BC00042600160704700228A61426811601831FA
:100BD0004160704702688A4206D192690260002A29
:100BE0000BD1406009E01A4693698B42FBD19B69A7
:100BF0009361002B01D11832426000208861704758
:100C000001688A690260002A00D140600020886182
:100C10000846704770470000F1B590B0109E13F081
:100C2000FFFC074600200B9001208D4C0A902068A5
:100C300000F062FF0690206800F065FF3546E03561
:100C40000790A87817F098FA142804D1A8780322FE
:100C50000A2117F0AEFB109C0698C03400287ED005
:100C60008048394600680831C030007E0E903878E0
:100C7000C20908A81BF062F83878B91C4006C20FF8
:100C80000CA81BF05BF838780007000F03900528CC
:100C900001D108F019FD3146207DE2898C316B4687
:100CA00007C3237A04AA0CA8039916F04DFA009002
:100CB00004980099000A000208430490C0B2FE287C
:100CC00002D10498FD380490F06F089A01689142AF
:100CD00003D140680999884201D0FF200090039811
:100CE000032808D10098FF2805D0207A800702D574
:100CF0000E98012805D004A816F054F8002820D03A
:100D00002BE0304600F00CFF01200B90A07E012864
:100D10000BD1E0895449884207D069460A7C04AB6C
:100D2000C1B20133A1201EF0E7FEA87801F01AF944
:100D30000120A0740021304600F09EF800200A90A7
:100D40000DE00398052808D10098FF2805D0207AE7
:100D5000C00702D00E98012806D00020A080079975
:100D6000069808431AD01BE0304600F0D9FE08F080
:100D7000ABFC04ABE0890393012200216B4607C35F
:100D8000AB78697A38460DF043FF04A815F04AFFA6
:100D900000202870A87816F09DFFE0E70020A080D2
:100DA0002879002826D0A188002926D1401E287144
:100DB000207A80071BD00221A180012130461AF041
:100DC000E3FFAA780146104601F056F8A87801F032
:100DD000C9F8304600F0FCFE08F076FC0020A07454
:100DE0000146304600F048F81AF09CFA1DE0002059
:100DF000A080E2E7A088002820D01948006800F011
:100E000082FE002811D0304600F0E2FEA07D0128CD
:100E100024D016493046143000F00EFFA088401E42
:100E2000A08000200A9000F0FBFC0B98002802D064
:100E3000A088401EA0800A9811B0F0BD08F044FCC4
:100E4000304600F0C5FE60890021401E6081109888
:100E500000F02EF8A87816F03DFFE6E74621D9E726
:100E60003C06002040060020FCFF0000EE020000CF
:100E7000FF21E03081707047F8B505460446C03563
:100E8000A87D20F03BF906462746E037B878314682
:100E900001F07EF8B878314601F038F800F0C0FC77
:100EA00013F0C6FB0246A87C214602F010FDF8BDF7
:100EB000F3B505460446E0358BB00027A87817F057
:100EC0005BF926468036142804D0F16A0C9808187D
:100ED00000900EE008F020FC074617F047F838189D
:100EE00032300127F06216E07168F06A40187F1C0A
:100EF000F062F16A009817F077FA0028F4D1C82060
:100F0000005D000707D4012008F030FF0005F16AFA
:100F1000000D4018F0622646C036F07CC1078207FB
:100F2000C90FD20F40078918C00F0818401E28713A
:100F3000307A800700D00220B080012120461AF0CC
:100F400023FFAA780146104600F096FFA87801F02A
:100F500009F80020B0742046283011F095F820469A
:100F6000403011F091F8204680300890416AC06A04
:100F70000A1A7089002802D16B78012B03D0002A4D
:100F800065DA002963D02978002960D0317A354BA1
:100F9000090742D5344920460968943020314A7DFA
:100FA000920651D58A7FD20717D000210291039172
:100FB00004910591411C007801910090186820303F
:100FC000007BC00701D0002000E010200123002298
:100FD0003C2180301DF00AFF36E0C97F890733D5F8
:100FE000002109910A910491059106910791411CF4
:100FF000007809AA029203920191009018682030AB
:10100000007BC00701D0002000E010200123002257
:101010003C2180301EF0AAF816E000280CD03C21BC
:10102000327B101AC0B200901868B27B2030007B6F
:10103000C00703D0002002E04321F1E71020A123E4
:1010400018430A4B1DF002FE204602F02CFC0898C3
:10105000C16AA87817F07AF90020B07438460DB04C
:10106000F0BD00003406002040060020FF0F000005
:10107000F8B503241A4E054664071A480370086839
:10108000A0624868E06288682063C8686063286876
:10109000A0636868E063A8683060E86870606420F6
:1010A0006F463870A06D01273843A0656F463878C9
:1010B000401E3870E06DC007C00F02D0387800289D
:1010C000F4D13878B0681060F06850603069906092
:1010D0007069D060034800789842CED10020F8BDF6
:1010E00040000060EC04002008B50B480121026AB2
:1010F00091430ED0026801210A4302600168490849
:1011000049000160026A01210A430262006A084044
:101110000090002008BD000040004048F7B58CB0AA
:101120006B4604AD08AC00210F26575C761A491CAB
:101130009F551029F8DB002103277A1A9200865C5C
:101140008B00EE54865A5B19360A5E708658491C2D
:10115000360C9E708258120EDA700429EDDB0023E3
:10116000224669462846FFF783FF00203B46810060
:10117000625C0919CD782D062A438D7849782D04B3
:1011800009020D43191A2A438D000D99401C4A513A
:101190000428ECDB0FB0F0BD70B5BAB005460020F6
:1011A0000C46009020206946087210200A90389062
:1011B0001E46039201A800F07FF92246294601A8A5
:1011C00000F008F86A46314601A800F03FF93AB04D
:1011D00070BD0000F7B5002590B00F46044600280A
:1011E00004D0002F06D11298002803DD61204001B1
:1011F00013B0F0BD1298002804DB102804DA20791F
:10120000800601D49048F3E72079410701D4810793
:1012100002D58D48401CEBE7402108432071204651
:1012200014300C901DE00026B00004904019C01945
:101230000390FFF770FA00BA010A03980902C07818
:1012400008AA01430498761C00194069414004989B
:10125000042E1150E8DBA26808A80C99FFF75EFF86
:10126000059D12992846103005908842DBDB2079D5
:1012700080061FD400291DDD0026B0000390401910
:10128000C0190090FFF747FA00BA010A0098090256
:10129000C07808AA01430398761C001940694140B0
:1012A0000398042E1150E8DBA26808A80C99FFF7F8
:1012B00035FFC7E00020039004900590069003A935
:1012C0000846A268FFF72AFF03988721C00F48430A
:1012D0000399049A4900D20F114303910499059A86
:1012E0004900D20F114304910599069A4900D20F83
:1012F000114305910699129A490041402846103041
:10130000069190421CD10026B0000D904019C019E2
:101310000790FFF700FA00BA010A07980902C0789F
:1013200003AB01430D98761C001942690D981858BB
:10133000424051400D9808AA1150042EE4DB78E099
:1013400003988722C00F5043039A049B5200DB0F7F
:101350001A430392049A059B5200DB0F1A4304922E
:10136000059ACB0F52001A4305924A004240129848
:101370000692421BD017800F0026801880100D9215
:10138000009019E0B0000F904019C0190E90FFF7BF
:10139000C2F900BA010A0E980902C07803AB0143F2
:1013A0000F98001942690F981858424051400F9801
:1013B00008AA11500098761CB042E3DCB000011975
:1013C00003AA49691258514008AA11500D9B0021E7
:1013D0001B1A42199C4696460BE072465218BA5C9C
:1013E000CD0018235B1B9A4008AB1D586A401A5069
:1013F000491C8C45F1DC002909D0CD00182108AA30
:101400004D1B13588021A9404B40135005E008A9FB
:101410000A580123DB075A400A5008A903AA05E02D
:10142000B00003195B6915586B400B50761C042EF5
:10143000F6DBA26808A80C99FFF770FE207904215A
:10144000084320710020D3E61D0C0000F8B51646B5
:101450000F46040009D0002E07D025468035E86DE0
:10146000401E102804D31348F8BD61204001F8BD88
:101470002079400604D4002211462046FFF7AAFE38
:101480002079022108432071002018210CE0C217A6
:10149000920F121892089200121983075269DB0EFC
:1014A000CB1ADA403A54401CEA6D8242EFDC00204D
:1014B0003260F8BD1F0C000010B5040007D00223F5
:1014C0000022A16800F01AF8010003D00CE06120AE
:1014D000400110BD002010222261024683001B192A
:1014E000401C5A610428F9DB606A102801D00248C8
:1014F00010BD084610BD00001D0C0000F0B500280E
:1015000007D0002905D05B079B0F002A04D1012BCF
:1015100002D061204001F0BD446A102C03D0182C89
:1015200001D0202C05D1012B05D00469641E102C9C
:1015300001D31848F0BDC2600479F9252C4004712C
:10154000012B20D000231C469D002D185B1C6C61D4
:10155000042BF9DB002313E0DC17A40FE418A40824
:10156000A40025182E461436B4461C1BD65CE40095
:1015700018276D693C1BA640354366465B1C3560E9
:1015800004699C42E8DC0279D20700D18160002026
:10159000F0BD00001F0C000010B50E4C2078800735
:1015A00007D50D48007817F08FF82068022188438E
:1015B00020600A4C207800280AD0002020700848BB
:1015C0000188084808F080F9002801D00120207027
:1015D00010BD000060030020C70300207E03002030
:1015E0007C030020C00B00200548002100688030EB
:1015F0000172417203218172C172002070470000A4
:101600004006002070B504460A4890250068012273
:101610000069134629461BF085F9010003D02846CE
:101620004C601BF069F9044800688030017A491C5D
:10163000017270BD440600204006002010B5002253
:101640008281827343684361036182610CF080F898
:10165000842801D0812010BD002010BD70B5C17B51
:1016600004464906490EC1730A48902500680022C5
:101670000069012329461BF055F9010003D02846D3
:101680004C601BF039F9044800688030417A491CED
:10169000417270BD440600204006002010B50C4881
:1016A0001BF082FD002812D1094828301BF07CFD78
:1016B00000280CD1064848381BF0C8FD05490880B1
:1016C000034824381BF0C2FD03490880002010BDE8
:1016D0007C040020E40300205E030020F0B50646F1
:1016E00037780020303F01210222032404253B00EB
:1016F0001AF0B5FC172A0D0F11131517191B1D2A07
:101700002A2A2A2A2A2A1F21232527292A000120BA
:101710001AE0022018E0032016E0042014E005205F
:1017200012E0062010E007200EE008200CE009205F
:101730000AE00A2008E00B2006E00C2004E00D205F
:1017400002E00E2000E00F2076780001303E3300EA
:101750001AF085FC170E280D0F11131517191B0E03
:101760000E0E0E0E0E0E1D1F212325270E001043F8
:10177000F0BD2043F0BD2843F0BD052112E0062155
:1017800010E007210EE008210CE009210AE00A21FF
:1017900008E00B2106E00C2104E00D2102E00E21FF
:1017A00000E00F210843F0BD03235B0759684F2277
:1017B00011409043014359607047032149078869EC
:1017C00008229043104388617047042801D01220FA
:1017D00070479D207047012907D0002907D00229B2
:1017E0000CD00023032903D005E0062307E00623DD
:1017F000012A0AD04122D118401A70470523012A34
:1018000001D04322F7E7B522F5E7B322F3E7000062
:10181000024841688022914341607047C000002027
:10182000024841688022114341607047C000002097
:10183000034841690122D20511434161704700000C
:10184000C000002003484169012292071143416111
:1018500070470000C0000020024841690422114383
:1018600041617047C000002003498A68120A1202D1
:1018700002438A6070470000C000002004498A6863
:10188000FF231B029A43000202438A607047000054
:10189000C0000020006802490A6808607047000024
:1018A000C000002004494A68FF231B029A4300023B
:1018B00002434A6070470000C00000200349CA6824
:1018C000120A12020243CA6070470000C0000020E2
:1018D00004498A68FF231B049A43000402438A6078
:1018E00070470000C000002003498A681202120AF3
:1018F000000602438A607047C000002004494A681D
:101900004006D209D201400E02434A6070470000EF
:10191000C000002004494A68FF231B049A430004C6
:1019200002434A6070470000C000002003494A6833
:101930001202120A000602434A607047C0000020EB
:101940000449CA68FF231B029A4300020243CA608B
:1019500070470000C000002003490A69120A120201
:1019600002430A6170470000C00000200449CA68B1
:10197000FF231B049A4300040243CA60704700001F
:10198000C0000020044AD1683F231B06800699430B
:1019900080080143D1607047C000002010B5FFF7F8
:1019A00037FF4020FFF77EFF3F20FFF7B3FF0920FE
:1019B000FFF7BCFF7420FFF78BFF3820FFF794FF81
:1019C0007620FFF751FF3A20FFF758FF1020FFF76E
:1019D000CDFF1020FFF7D6FF0220FFF7BDFF142038
:1019E000FFF76CFF0520FFF7ABFFFFF735FFFFF7B1
:1019F0001FFF01208007016800680906090F09011F
:101A00000007000F014300220123274820293BD370
:101A100003705E2141702549896B8170C3705D211F
:101A200001712249496B417183715221C1711F4972
:101A3000896801724372122181721D498968C172DD
:101A40000373152141731A4949698173C3731A21BC
:101A500001741749896A417483742221C17414493D
:101A600040318C6804754375212484754C68C475B5
:101A7000037623244476C96881761B21C3760177D7
:101A80000B49C96A41778277074910390860486075
:101A900008460C308860CA600C38FFF7FBFE05482A
:101AA0000361FFF7CFFE10BDC0AE002040160060FE
:101AB00040150060001400600149084070470000B4
:101AC00030DFCB00012189050840704700207047B6
:101AD00001218907084070470121490608407047E5
:101AE00001214903084070470121890408407047DB
:101AF0000121090408407047C00FC0077047012149
:101B000089060840704740210840704701210906B6
:101B10000840704770474168802291434160704798
:101B2000416849084900416070478068704710B5B6
:101B30001422002117F0C4FC10BD10B501210BF0D8
:101B40007DFD10BD10B501210BF089FD10BD704762
:101B5000826881607047416880221143416070470C
:101B6000C168012292071143C1607047C168012218
:101B700052061143C1607047C1680122D207114368
:101B8000C1607047C168012292061143C16070476D
:101B9000C268012109068A430A43C260704742684D
:101BA00004218A430A43426070470268016070471B
:101BB00010B500210BF05BFD10BD704710B5012181
:101BC0000BF055FD10BD4168402211434160704744
:101BD000416801224908490011434160704710B52E
:101BE00001210BF033FD10BDC2680903120D12056F
:101BF000090B0A43C2607047C168012212051143F4
:101C0000C1607047C2680121C9058A430A43C260A6
:101C10007047C268012189058A430A43C260704740
:101C200010B54268012189028A430A4342600121BA
:101C30000BF00CFD10BD0000044A08031169044BB1
:101C4000000919400143116170470000C0000020E5
:101C5000FF0000F050225043054A8018402200291E
:101C6000C16D01D0114300E09143C1657047000090
:101C7000800000205021484305494018C16D0122D1
:101C800052059143C165C16F12029143C16770470C
:101C9000800000205021484305494018C16D0122B1
:101CA00052051143C165C16F12021143C1677047EC
:101CB00080000020502148430149401800687047C7
:101CC0000001002050225043084A80188268120CFC
:101CD0000A708268120E4A70C2688A70C268120A5C
:101CE000CA70C0688002800E087170470001002031
:101CF000502148430149401870470000140100205A
:101D00005021484301494018704700001C01002041
:101D10005021484302494018C06D8002C00F7047EF
:101D20008000002050214843024940188068800408
:101D3000800E70470001002050214843024940189E
:101D4000C06D0006C00F704780000020502148433E
:101D500002494018C06D8004800E7047800000204A
:101D600050225043064A8018826F120A0A60C36FDD
:101D70001B0613430B60C06F0004000E48607047E1
:101D8000800000205021484302494018C06D4000A7
:101D9000400F7047800000205021484302494018FE
:101DA000C06D4001400F70478000002010B5044610
:101DB00050200649604340185022002117F080FB54
:101DC00001212046FFF746FF10BD0000DC00002087
:101DD00050225043024A8018026801607047000098
:101DE000000100204A780B7812021A43502358430E
:101DF0000A4BC018836812049BB213438360CA78ED
:101E00008B78120209791A4309040A43C1689202C5
:101E1000890D8905920A1143C160704700010020B5
:101E200050225043044A801842680902120E1206DA
:101E3000090A0A43426070470001002050225043C3
:101E4000044A801842681202120A09060A434260D4
:101E5000704700000001002050225043054A8018BE
:101E600082683F231B0289069A43890C0A438260D9
:101E7000704700000001002050225043054A80189E
:101E8000C26D3F231B0289069A43890C0A43C2652F
:101E9000704700008000002010B55022084C4243DB
:101EA00012190B68946F1B02E4B21C4394674A68D2
:101EB00009681202090E11430BF0E2FB10BD00008D
:101EC000800000205021054A10B541438918C96F90
:101ED000921389B211430BF0D3FB10BD8000002098
:101EE0005021484303494018C16D80229143C16588
:101EF000704700008000002050225043024A8018A2
:101F0000426E41667047000080000020502250431E
:101F1000054A8018C26D07231B0749079A434908E1
:101F20000A43C265704700008000002010B55022AF
:101F3000044C424312190B68546F536749680BF005
:101F4000ADFB10BD800000205021054A10B5414373
:101F50008918896F8022C9B211430BF09FFB10BD15
:101F6000800000205021484303494018C16D802261
:101F70001143C1657047000080000020502250438B
:101F8000024A8018026E016670470000800000203F
:101F900050225043054A8018C26D07231B0649078B
:101FA0009A4349090A43C265704700008000002037
:101FB00050225043044A80188268C90652095201CF
:101FC000C90E0A438260704700010020502250432E
:101FD000044A8018C26D890692099201890E0A434B
:101FE000C2657047800000205021484303494018D3
:101FF000C16D0122D2035140C165704780000020AD
:102000000CB501A9684600F049F80098002802D0F4
:1020100001980B2801D97F2010E00621484376382B
:10202000009902E04908801D00911E29FAD8FF227C
:10203000A2325143024A8918890A081840B20CBDDD
:10204000A04600000246002901D0084901E00749E6
:10205000203901200B56934203DC401CC0B22028DB
:10206000F8D3012801D9401EC0B27047BD510610F7
:102070000246002901D0084901E007492039012022
:102080000B56934203DA401CC0B22028F8D3202814
:1020900000D11F2070470000BD5106101CB5074A33
:1020A000536A0093936A0193019C009B2406DBB260
:1020B000240C23430360D06A08601CBD80160060B6
:1020C00010B517F033F80649002017F019F8044945
:1020D0000120103117F014F802490148086010BDC2
:1020E00008B00020F40400207CB50D4C069D0228A9
:1020F0000FD00C4E266001930B46014600953046EA
:1021000016F0DCFD002803D0022805D00120C043D2
:102110007CBD044E1036EDE70020C0437CBD0000BE
:10212000F404002008B0002010B5144613460A46F7
:1021300001460648006816F0A9FE002801D001DA21
:10214000204610BD0220C04310BD0000F404002052
:1021500010B5022805D0032802D1002016F05AFF3E
:1021600010BD0448044900688842F9D016F0ECFE1E
:1021700010BD0000F404002018B00020FFB583B0AB
:102180000F46184C0C9D0146022F08D016482060BF
:10219000002002AE022907D000290DD00FE012481E
:1021A000103020600120F4E700962B46069A05992E
:1021B000206816F0E3FF0AE0216816F0A1FF0196FF
:1021C00000953946069B059A206816F0EBFF00281B
:1021D00003D0042803D00120C04307B0F0BD022083
:1021E000C043FAE7F404002008B00020002901D021
:1021F000054901E004492039421E1F2A01D37F20EE
:102200007047085670470000BD510610002804D0E2
:102210001220C0430870082003E01420C043087057
:1022200006201070704710B506F0E4FF10BD0000E6
:102230007F280BD07F2908D0042A06D8044B091A1E
:102240009A565143C910081840B270470846704763
:102250009851061010B5FEF70BFF10BD7FB5044670
:1022600016460D46684606F039FF68460378237027
:10227000407828706846807830707FBD704719F0CC
:102280004BFF10B516F00AFC00F028FE10BD704799
:1022900010B5C17A002480290CD8418B172909D3A5
:1022A00001229202914205D8C189172902D3121F37
:1022B000914201D982240EE0014628220748FDF709
:1022C00085FF21F08BFF05494968814201D58724AC
:1022D00001E019F061FE204610BD000084B100202D
:1022E000F8B5314C2060FFF7F7FB012600282CD011
:1022F00007F012FA074618F05FFF05460146384618
:1023000016F072F80100294808D0791B7203914237
:1023100004D20068D8210E54056003E00068002153
:10232000C030017615F00FFF0546FF280DD015F0DF
:102330001EFF002809D0284615F000FF0746284652
:1023400015F006FF0146384688472068FFF7D0FBA6
:10235000002801D0042413E02068FFF7B3FB002815
:1023600001D001240CE02068FFF7B0FB002801D069
:10237000022405E02068FFF79FFB002813D000240B
:1023800007F0A2F915F0DFFE0546FF280BD008483C
:10239000A6400068016831430160002022F022FA63
:1023A000284615F097FCF8BD3C06002040060020AA
:1023B0004406002003490968CA680260087C0009D5
:1023C000704700004006002010B522F01BFA10BD37
:1023D00010B503246407E069616861600843FFF792
:1023E0007FFF07F001FA606810BD10B507F0AAFB87
:1023F00010BD10B50320FFF7ABFE002010BD08B5DF
:1024000000210B460091014626220220FFF76CFEB8
:10241000002800D0812008BD08B5034626210020F1
:10242000009102460221FFF7A9FEC01C01D0002046
:1024300008BD812008BDF0B585B006466846154642
:1024400006711C460F460622401DFDF7BFFE01AA7D
:102450003946304600F019F8002802D0B32005B004
:10246000F0BD03982168884201D98720F7E72060F2
:1024700003982B4680B200900C2201210220FFF726
:102480007DFE0028EBD08120E9E7F7B5002782B078
:10249000144605460C2623460022012138460096A4
:1024A000FFF76CFEC11C0BD001270622611C0398AC
:1024B00017F002F80028EED12078A842EBD10020D6
:1024C00005B0F0BDF0B587B017461C460E46054670
:1024D00001AAFFF7DAFF00280CD10398A04206D129
:1024E000A2B239460C20FFF71FFE00281BD00220A5
:1024F000FFF72EFE6846057106223146401DFDF7A6
:1025000065FEA0B200903B460C2201A90394012075
:10251000FFF7EAFD040005D08125601C05D0A01C52
:1025200003D003E0002007B0F0BDB42506223146F9
:1025300004A8FDF74BFE6846847504AB072204210E
:1025400042201AF043FF2846EDE70FB470B596B06D
:1025500029A80022023002AB1146064600F09CF882
:10256000002852D1502202A91AA816F0A5FF00286F
:102570005FD00220FFF7ECFD18A8C17A6846C07A48
:10258000814242D118A8407AC0060ED46846407AEB
:10259000C0060AD5022213A92BA8FDF717FE18A919
:1025A000487A1021084318A9487218A8407A800672
:1025B00016D46846407A800612D509A921A81022AF
:1025C00002310230FDF702FE11A906220231304627
:1025D000FDF7FCFD18A9487A2021084318A9487284
:1025E00018A8407A400610D46846407A40060CD5B8
:1025F0000DA925A8102202310230FDF7E7FD18A928
:10260000487A4021084318A9487218A8407A00095E
:102610000FD00020034650221AA90090FFF764FD56
:10262000040005D08125601C08D0A01C06D006E05F
:10263000002016B070BC08BC04B01847B4250622B0
:1026400031466846FDF7C2FD684684716B46072235
:10265000052142201AF0BAFE2846EAE738B5502193
:102660000091094C0346002211462078FFF786FDB1
:10267000C11C05D0801C05D001202070002038BD71
:10268000B32038BD862038BD5C06002001490020FB
:10269000087070475C060020FFB5002583B01C461B
:1026A00016460F46002A07D0012F05D1039840791E
:1026B0008009012800D10125124900200870204618
:1026C0001E3001902030009014E0002D04D00199BC
:1026D000039818F009FB0BE0002E04D06078C007C7
:1026E000C00FB84206D106220399009816F0E4FE06
:1026F000002805D02046FFF7B1FF0028E5D0B32021
:1027000007B0F0BD5C060020F8B50024254626463B
:1027100000231A46194628460096FFF72FFD01258B
:10272000C01C02D0641CE4B2F2E72046F8BD10B52C
:102730000C4694B001466B4601222046FFF7ACFFE1
:10274000040002D10220FFF703FD204614B010BDA3
:102750003EB53622012115481BF094FA144C154958
:1027600020600246C97A2032117500210170417043
:102770008170E123C37080230371022343713020F1
:102780001072517202AA01A96846FFF767FD6946F7
:102790000878097A00010902C01C084369460979D2
:1027A00009030843216848853EBD0000500600200B
:1027B0003406002084B10020FFB583B01F460FAB64
:1027C00070CB1BF04BFAFFF7C3FF1822012113480F
:1027D0001BF058FA124908600021017521F0E6FF4C
:1027E000684670C003A807C83B460AF0D3FD17F03F
:1027F00005F801F00BFA0B4800682030007BC00799
:102800000AD10E9807F0F8FB17F06CFD02F048FFB4
:102810000599049801F0B0FE07B0F0BD5006002005
:10282000600600203406002010B507F069F910BDDD
:1028300010B5002803D0002A01D00B2B01D982202B
:1028400010BD0446037008344170036A5954491E90
:10285000FBD5A26060610020207310BDFFB585B07C
:102860000D4604000BD060780290854207D2217893
:1028700005200003002788401E46834202D982209B
:1028800009B0F0BD18F0B2FC7200921913019A1849
:10289000130A4907C0089A180843130C21789A189C
:1028A0001018491DC840694608800197206A079999
:1028B000405DA84209D0002904D02946204600F0F6
:1028C00041F806E08221019101E0002901D1A842EE
:1028D00036D16846616A00886A00885268460021DD
:1028E000415E039118F082FC86466378206A1A469E
:1028F0008446805C13E0666A4700F75B2678714681
:10290000761DF140CE08B91B0FB203997F1E8E1BB6
:1029100036B2761EB74204DC02466146885C9842B5
:10292000E9D16046815C4155206A85540298824213
:1029300006D168460021415E204618F007FE01904E
:1029400001989DE7F8B5054600200C468646002D07
:1029500003D06B781846844201D38220F8BD2E6ADA
:10296000315D8C46A14216D02746024602E0B942AC
:1029700003D00A46B15C8142F9D1B05C984208D0DC
:102980006046B0549A4204D16146284618F002FECF
:102990008646286A04557046F8BD0000FFB5154804
:1029A00081B087880A9D14460E46BC4202D10020A1
:1029B00005B0F0BD1048042201196846FDF7F6FD88
:1029C000002D10D16846C178019881420BD1062EA6
:1029D00003D068468078B04205D10498002800D022
:1029E00004800120E4E768460088001984B20025CD
:1029F000DBE70000EE04002008AF002002488188D9
:102A00004088081A80B27047EE04002070B50C466A
:102A1000094D0146A888FF220132121AA24201DAAA
:102A2000002070BD054A10182246FDF7BFFDA8889A
:102A30000019A880012070BDEE04002008AF00201E
:102A400070B50646FFF7DAFF0446FF200130011B90
:102A5000B14201DA002070BD074DA988401AB0428A
:102A600008DA0648698822464118FDF703FE00206F
:102A70006880AC80012070BDEE04002008AF00200B
:102A8000034A800851431B225043081825307047E1
:102A900034230000F1B55C4B5C499D446944086EE9
:102AA000142148435A4900264018079040890028BD
:102AB0000DD0002003460090564806214288534816
:102AC0006844006EFFF76AFF002804D009204F4BCE
:102AD00064339D44F0BD2020FFF7B2FF00287DD075
:102AE0004A4813A96844006E16F00AFB11A8149D09
:102AF00007F024FA1198129913AA029101901BCAA7
:102B000003AA1BC211A8009010AB404A17A913A832
:102B100015F05CFD0446042801D0002CD7D110A884
:102B200000883A49884201D0002CE3D0002816D012
:102B30000121FFF7A5FFEFF3108772B616F00AFC2C
:102B4000002825D010A8028817A9284619F0C2F934
:102B500087F310880126F0022D18002CCAD02B49CB
:102B60001598491E401E0843401B401CC00A08A976
:102B70000876012080042818C00A08770EA90FA83B
:102B800000F09AFF072835D0079816F0F5FB9EE76E
:102B900087F31088002E29D003AC0FCC08AC0FC4EB
:102BA0000198029903C42020FFF74AFF00281FD094
:102BB00020206C4620800320A07008AE0FCE01AE0E
:102BC0002FC606220CA906A8FDF7B2FB20216846F5
:102BD000FFF71CFF08AC0122217800E008E0142078
:102BE00041430B4808188273002070E707206EE706
:102BF00008206CE708A8027E017F04486844006E44
:102C000018F088F863E70000A0F7FFFF0008000055
:102C1000E0AE0020EE040020F0B5414B00269D44BC
:102C20000446374635461BE00C20A1686843085C23
:102C300014213C4A414389184989002900D00127C1
:102C400000210B46009138494A880621FFF7A6FE6D
:102C5000002804D00920324B5B429D44F0BD6D1C1E
:102C60002079A842E0DC002F15D00121FF22C90203
:102C700001A8FDF727FD002523E029460C22A068C6
:102C80005143425C091D475828491046694416F0D3
:102C900037FA002801D00020DDE72548684407F016
:102CA0004DF92348234B684400900120C002C01B0B
:102CB00082B26B4401A91846C919183815F086FC70
:102CC0006D1C2079A842D8DC0121CF023846FFF7DD
:102CD000D7FEEFF3108572B616F03CFB002809D042
:102CE0003A4601A9206819F0F5F885F31088002507
:102CF0000C4F10E085F310880720ACE70C20A1688A
:102D00006843085C14214843C01916F035FB0028BD
:102D100000D006466D1C2079A842EFDC30469AE7C9
:102D2000DCF7FFFFE0AE0020EE0400200408000006
:102D3000140800001C080000F0B5354B01270446BC
:102D4000FF029D4418300690E169A069019002914C
:102D5000201D0FC807AD0FC50698009005AB3A4679
:102D60000BA9201D15F032FC05466946888AB84239
:102D700001D0002DE8D0002816D00021FFF780FEFA
:102D8000EFF3108672B616F0E5FA00282CD06946EB
:102D90008A8A0BA9606919F09DF886F3108860692A
:102DA000C0196061002DCFD0E1681A48491E014367
:102DB00060696A46091A491CC90A1173012189040C
:102DC0004018C00A107403A904A800F075FE072873
:102DD000207916D0142148430F49401816F0CCFA38
:102DE0000C4B2D339D44F0BD86F3108807AD0FCDFD
:102DF000241D0FC4062201A90698FDF799FA0720A1
:102E0000EEE76B461A7B197C17F084FFE8E70000B9
:102E1000D4F7FFFFFF070000E0AE002070B50024EC
:102E2000074D09E020460DF017FD002802D020468E
:102E30000DF012FD641CE4B2E87AA042F2D870BD35
:102E400084B1002010B5074C2068800702D50648E1
:102E500005F028FF2068800602D5044805F022FF0F
:102E600010BD000000007048280A0020740A0020ED
:102E700030B5446C3C252C400125A540046C6560B0
:102E8000046863608368102B036803D0996000684E
:102E9000C26030BD9A600068C16030BD38B50025A1
:102EA000890614D504460BF095FD028B69460A800D
:102EB000408B4880E08E00990AF04EFD3A2805D0FC
:102EC0008034206820218843206000E001252846C6
:102ED00038BD10B5FFF7E2FF10BD000070B561A06E
:102EE00007C89AB00BAB07C361A003C810AA03C2FE
:102EF000052406210020083A1AF010FB00287DD195
:102F000004225D490EA8FDF751FB0E98C1B20020C6
:102F10001AF000FB002871D11AF0A0F900286DD139
:102F200019AA18A917A86D4607C500230A22194631
:102F3000204619F068FD002860D10BAA0A2105F08F
:102F4000EFFD00285AD119F04EFD002856D102207D
:102F500019F07AFF002851D1012548481021072691
:102F60000023019103902A460096029529461846AF
:102F700019F008FF002873D13F49042208310FA837
:102F8000FDF714FB3C4904220C3112A8FDF70EFB9F
:102F900000243B480794099408950A94007804A9F2
:102FA000039431C1129800900196029413220221D9
:102FB00000200F9B19F0B6FE002851D1FEF76EFBE2
:102FC00000284DD12F48304A0078122119F05DFFBA
:102FD000002845D128490422103113A8FDF7E6FA4C
:102FE00025490422143114A8FDF7E0FA1399149826
:102FF00089B2012380B21A46009100E030E00190CE
:103000000021184619F028FF002829D11A49042266
:10301000183115A8FDF7CAFA174904221C3116A861
:10302000FDF7C4FA7D2000010190029016983C2122
:1030300082B21598009181B20923012019F0E8FEAF
:1030400000280DD1124911488860124801881048A3
:1030500006F03AFC0006000E02D10F480470002072
:103060001AB070BD424C45616461707465720000B5
:10307000E00100E1800200007409002040E201004C
:10308000C7030020C8030020E70300208199051032
:10309000C00B00207C0300207E03002070B51C22A2
:1030A000012116481AF0EEFD154C164D2060288CB3
:1030B0000326401E3043401C810804220F48C91CCF
:1030C0001AF0E0FD216804224860688C401E3043FD
:1030D000401C81080948C91C1AF0D4FD216804224B
:1030E0008860A88C401E3043401C81080348C91CDE
:1030F0001AF0C8FD2168C86070BD000050060020AD
:103100004406002084B10020FFB5FE480F4689B078
:10311000457E817D0291C17D0791C17A0191007E3A
:1031200008901646E02101201AF0A2FDF64C21215C
:103130002060090101201AF09BFD21688031C861DF
:10314000202101201AF094FD21688031C969FF31E6
:10315000813108673C2101201AF08AFD2168803105
:10316000C969FF318131096F0860FF211D31019864
:103170001AF07EFD21688031C969FF318131096F04
:10318000486004210C201AF073FD21688031C96960
:10319000FF318131096F0861382101981AF068FD0B
:1031A00021688031C969FF318131096F8860382118
:1031B00001981AF05DFD21688031C969FF318131C4
:1031C000096F012FC8600AD10E2101981AF050FD35
:1031D00021688031C969FF318131096F48611398D5
:1031E000012832D1082101981AF042FD216880316E
:1031F000C969FF318131096F8861082101201AF006
:1032000037FD2168BF4F8031C969FF31FF3102317D
:103210008860B87F00280AD004211AF029FD2168AF
:103220008031C969FF31FF31023189680860787FD8
:1032300000280AD001211AF01BFD21688031C969DC
:10324000FF31FF310231896848601498012810D19C
:10325000202101981AF00CFD21688031C969FF31E5
:103260008131096FC861112101201AF001FD216827
:103270004866129811F0CEF90746014601981AF0F7
:10328000F7FCA14C216880314861394601981AF059
:10329000EFFC2168803188612C2101981AF0E8FC4C
:1032A0002168803148620999E02031430F4641434B
:1032B000012044311AF0DCFC21688031C8603946B5
:1032C000D820414301202C311AF0D2FC21688031F2
:1032D0000861102101201AF0CBFC216880310862BE
:1032E000042101201AF0C4FC216880318862342155
:1032F00001201AF0BDFC014620688030C16211F047
:1033000021F8FF21041D1131002E7DD002981AF002
:10331000AFFC0690242101201AF0AAFCA06224210F
:1033200001201AF0A5FCE062242101201AF0A0FC83
:103330002063282101201AF09BFC606328210120D2
:103340001AF096FCA0632C2101201AF091FC0027B2
:10335000E06307E0442101201AF08AFCB9007F1CD9
:103360006050FFB207988742F4D30094214622466A
:1033700028313432E36B16F0C5FC0022002E04D055
:103380005C2102981AF074FC02460699029800F03B
:103390007DF91298082400282FD0002E2DD00299F4
:1033A000A820414301201AF063FC0146029811F065
:1033B00023FD142101201AF05BFC0690B821089827
:1033C0001AF056FC21460490A94001201AF050FC46
:1033D00006460C2101201AF04BFC074618210198E3
:1033E0001AF046FC019B01970293039000962B462E
:1033F000049A0699089812F036FA2146A9400C461C
:1034000001201AF035FC00E041E00646214601208B
:103410001AF02EFC07460C98002851D021460120B6
:103420001AF026FC1021A94006900C4601201AF043
:103430001FFC0490214601201AF01AFC2821039059
:10344000A94001201AF014FC0190012202212F480A
:103450001AF018FC2C4C022221688031C969FF3116
:1034600081310864012129481AF00CFC216801AB64
:103470008031C969FF3181314864019A0498039908
:103480000096049283C3681CC2B2069B21E001200F
:103490001AF0EEFB0690242101201AF0E9FBA0624D
:1034A000282101201AF0E4FB606300202246214617
:1034B000034634322831009016F024FC002264E7E1
:1034C0000020019002900490681C03970096C2B2FD
:1034D00000232946084613F073F90A4C0122E17AC9
:1034E0000A48491C1AF0CEFB074D02222968803198
:1034F0000865E17A05481AF0C5FB296880314865FE
:103500000DB0F0BD84B10020400600205006002020
:1035100010B5042201210F481AF0B4FB0E4C102202
:10352000206001210B481AF0ADFB21680C220860D5
:10353000012108481AF0A6FB216824220968C86006
:103540000648818903481AF09DFB21680968C9680B
:10355000886010BD500600205406002084B1002071
:103560000023032804D0022806D001280ED008E04A
:1035700008484143084803E0FF20A430414307487E
:103580000B1807484243D018000A704704484143CB
:103590000448F5E7381A0000E92601000612000089
:1035A00047030000C6200000F8B510F0CBFE064629
:1035B0000025FF360746E13658E0FF201130396814
:1035C00068430C182046E03000908078FF284BD0EC
:1035D0000098C279D0072DD0204680300268C1699A
:1035E0001160016A006841600098C07902280FD319
:1035F000204800688030C069FF306130007C0028BE
:103600000FD080202146005900228C3114F060F93F
:10361000184800688030C069FF306130007C0128A4
:103620000FD0204680300268C1689160016900684F
:10363000C16013E0104801688020005918F07EFB3B
:10364000D2E7204680300268C16891600268016953
:10365000D16000680021083014F0A8F920468030BD
:10366000E16F0268E26701606D1CEDB2307DA84237
:10367000A3D8F8BD400600203406002010B525214F
:10368000401DFDF753F8084610BD0000F7B50C4685
:10369000054610F057FE0146FF31E13101220D755C
:1036A0004A7500268C463546046029E0FF21113119
:1036B0000268714351180A46FF23E0329370D370B9
:1036C00000230C46DB43C034E38115700B46557074
:1036D00080330127DD61FF045F609F601D622575F7
:1036E0000723E374D571FF235372029A002A05D091
:1036F0005C22029B7243D2188A655565761CF6B22D
:103700006146097DB142D1D80A48094A0068803033
:10371000C169FF3181314A61C169074AFF31813195
:10372000CA60C0690549FF3081300161FEBD0000FB
:1037300025990510400600206D6C0510A935041070
:10374000F8B504462546E035FF2027466872C037A5
:10375000387AC00704D00CF033FE6872FF285DD0C1
:1037600014F048FDA870FF28387A59D0C00604D458
:1037700014F040FDE870FF2859D020465C30E06727
:103780001030264680363060E879C00759D0E06FA7
:10379000F1690160E06F316A4160E06FF16881605A
:1037A000E06F3169C160E87902280AD3214600221E
:1037B0008C31E06F14F08CF8E06F0021083014F0C9
:1037C000F5F8E06F316880688860E06F3168006804
:1037D0000860E06F3168C068C860E06F31684068B9
:1037E0004860706A002804D005F096FF716A40189E
:1037F00070620120287000902346797DA8781433E8
:1038000022460DF08FFBA8782521FEF717FB387AAA
:10381000C00620461CD40EF0DFFB1BE00C20F8BDD8
:10382000C00702D0687A0CF027FC0720F8BD387A70
:10383000C00702D0687A0CF01FFCA87814F0CDFC09
:10384000F3E70B4800220168E06F18F077FAA4E76D
:103850000EF0C6FBA878F16A14F078FDF06A14F057
:10386000ABFC012802D0A87814F034FA0020F8BD8F
:103870003406002010B572B60446E034A07814F087
:103880006BFDE07814F068FD62B6A07814F0C6F91C
:10389000002020706070607AFF2801D00CF0ECFBF3
:1038A000FF20607210BD10B50446E034E07814F0DB
:1038B00053FDA07814F050FD002020706070607AF5
:1038C000FF2801D00CF0D8FBFF20607210BDFEB5C0
:1038D0001446064600200A46C0320D460090002ECF
:1038E0000BD0042020700192107A2F4640074037F9
:1038F000002816DB002E10D015E0138900205F078A
:1039000001D50120EEE79F07BF0F022F03D09B07D1
:10391000E8D10220E6E70620E4E7288F801D6070EA
:103920000BE0002E3FD0387C801D6070E96F204690
:10393000062208300931FCF749FCE96F0622A01C79
:10394000491CFCF743FC20782F2108402070E96FC8
:103950000978C90729D00121009189010843207005
:10396000E96F097AC901084320701AF025F8217817
:10397000400108432070002E19D03F8A296C01981D
:103980000089420701D5002E14D00825400701D533
:10399000002E10D060193A46FCF718FCE819801E7A
:1039A00060700020FEBD0C20BFE70099D5E72F8F87
:1039B000A96AE4E70E25AD1E6570F2E7F0B50026B2
:1039C00089B09446374604280AD0092808D0C8226E
:1039D0000C46555C2834062807D0082805D006E098
:1039E0000C4634340126002501E00C46403407AA79
:1039F0000392059406AA00920297049501966246E6
:103A00000EF01BF809B0F0BDF3B5274B0D469D44F1
:103A10000121FF22C90201A8FCF754FE002423E083
:103A200020460C225043A9680646885D1F49694418
:103A3000496A884217D01E49694415F061FBA8689D
:103A40001C4F361D86596F44384606F077FA1748E2
:103A50003B46801B82B201A88119083318461838EA
:103A6000009714F0B3FD641C2879A042D8DC012132
:103A7000CE023046FFF704F8EFF3108472B615F06B
:103A800069FC00280BD0324601A9286818F022FAF8
:103A900084F310880020074B18339D44F0BD84F355
:103AA00010880720F7E70000DCF7FFFF00080000A0
:103AB000040800001408000070B50C46054618E024
:103AC00001210020FEF7DCFFEFF3108672B615F03F
:103AD00041FC002811D02A7801230021094809F06F
:103AE000F1FB86F310882878401C28702078401E4F
:103AF000207020780028E3D170BD86F3108807205D
:103B000070BD000000100040FEB53D4E0020316841
:103B10006C4682005218126953884200401CC0B2A1
:103B2000A3520328F5D372B600200D68086062B670
:103B3000E80702D000201AF0EDFFA80702D5012007
:103B40001AF0E8FF680702D502201AF0E3FF280701
:103B500002D503201AF0DEFFE80602D504201AF091
:103B6000D9FF00251CE0E0780F2814D2211D254A3A
:103B7000800012582046904700280CD0002020F0EA
:103B800031FE2AE0E1784D2905D2231D1E4A890025
:103B900052581946904730682188381800690180CA
:103BA00069006846415A3068AF00381800690288D9
:103BB000920892001418028808348A420DD0A17825
:103BC0008A070AD08907890F012901D104460834E0
:103BD000A0788008C106D5D5C5E772B63068381818
:103BE0000069418802888A4202D100210180418017
:103BF00062B66D1CEDB2032DD2D31AF00FFEFEBDDE
:103C000044060020905506105C54061010B5FFF7CE
:103C100045FA1AF01DFE18F041FE03480422002167
:103C2000006815F04DFC10BD4406002070470000F0
:103C3000034801690F22114301612221016070478D
:103C40000010004005490A690F231A430A61400623
:103C5000000C8861112008607047000000100040CF
:103C600010B5074A13690F24234313618003000C26
:103C700090610348403001603320106010BD0000A7
:103C80000010004070B5044605F04EFA0546104E8F
:103C900008E0601C06D005F047FA401BA04201D3A3
:103CA000032070BD3069C043C007F2D13069C04302
:103CB0000007800F01D0002070BD0648B26841683F
:103CC0001143416030690C2108433061012070BD0F
:103CD0000010004098AE002038B51048002104685C
:103CE0000846283400F08AFB694648702034E07C9E
:103CF000C10704D001216A4611708843E074C0B244
:103D0000810705D502216A461170FD210840E07443
:103D10006946022018F0AEFF38BD000038060020CA
:103D200010B5FFF7D9FF10BDFFB587B00F460020D3
:103D3000694608734648164605682835012A1DD885
:103D400006F08AF8002805D12C462034A07C0028F3
:103D500002D085200BB0F0BD03A8079900F05FF9F1
:103D60000028F7D1607D69463043607507200875EB
:103D7000012F05D0022F09D0002F12D08220E9E7B1
:103D8000087B10210843694608730AE0087B20215C
:103D900008436946087305A903A800F017FB00282B
:103DA000D8D100260096684601960178DF200143AD
:103DB0006846017041780920014368460822417035
:103DC0008270022F03D106200143684641701AF029
:103DD000A9FB01280AD168464178122001436846B0
:103DE0004170817807200143684681701DF082F997
:103DF00001280AD168464178E020014368464170B5
:103E00008178802001436846817068461BF0C0FEBF
:103E1000FF216846017041708170C17001719F215E
:103E2000417186712021C1711CF03AF92846363063
:103E300000F0CCFD00288DD16846007B8106890FFB
:103E400003D0617D022211436175A074002081E7D7
:103E5000380600207CB51348066828361AF062FB45
:103E6000002803D010480024857D17E00125002498
:103E70002046142250430246F16A12328A5C012A1B
:103E80000AD1801C085C800706D5684604706A4623
:103E90000121002000F054FD641CE4B2AC42E7D3E1
:103EA0007CBD00003806002084B10020F0B5304809
:103EB00085B0056800266846067201200146049018
:103EC00068462C4601734834E07C28353746002884
:103ED00006D00127800601D5012601E000200490CC
:103EE00003A902A800F04EF8074315D00498002853
:103EF00018D06846007B002814D01E4F684616F084
:103F0000CAFE002E03D02978002000F077FA684618
:103F1000007A012808D00AE0607D0221084360751C
:103F200005B0F0BD144F1BE0002000F0C9FF68464B
:103F300000F04CFD002E03D02978012000F05EFA3D
:103F40006846007A012801D100F0BAFF284606220F
:103F500069463C30FCF73AF9607DFD210840607508
:103F6000034801223B4611460068FEF777FCD7E77D
:103F700038060020A0BB0D003075000010B509F018
:103F800091F810BDF3B5204881B0056800242835AC
:103F90001AF020FB002802D01C48837D00E001239A
:103FA0000020019A01211070029A074606461170FE
:103FB0001BE014216143EA6A8C461231515C96463B
:103FC000012910D1624671461332895C00290AD05A
:103FD0000120022900D1012762467146921C895CAA
:103FE000890700D50126641CE4B29C42E1D3012874
:103FF00002D1019A01211170012F01D0012E02D1AD
:10400000029A00211170FEBD3806002084B1002004
:1040100002780907090F0A4302700020704710B5A3
:10402000FFF7F6FF10BD000010B5104B04461B68EB
:1040300000204833002C06D0012C09D0022C07D0D8
:10404000032C10D10AE0997CC90700D1852010BD4E
:10405000997CC907FAD0002A05D110BD9A7C920735
:10406000F4D5C907F9D0822010BD00003806002021
:10407000F7B582B000200090124800240068C76A9B
:10408000E000001BC6B2B81905460622029915F0D9
:1040900013FA0006000E0ED1A979039881420AD1C5
:1040A000012000900498002809D0B81907220021A7
:1040B00015F006FA03E0641CE4B2042CE0D3009887
:1040C00005B0F0BD3806002070B50246284800242F
:1040D000807D884201D8822070BD2648002A006871
:1040E000406D02D014225143401841788A06D30F04
:1040F000CA060907D20FC90F002B02D0002A02D12D
:1041000003E0002901D0002070BD028946680578CF
:104110003146104600F0DAFB1749884204D03018C7
:104120008078410709D50AE0002D1ED0012D04D06A
:10413000022D02D0032D0AD117E0D42415E0002D62
:1041400007D0012D08D0022D0BD0032D01D0122451
:104150000BE08007F1D108E08007800F0128ECD147
:1041600003E08007800F0228E7D1204670BD0000E1
:1041700084B1002038060020FFFF0000FFB506468E
:10418000264885B004680F462834254600F090F98B
:1041900002900020203401902075B0090CD0E07C02
:1041A000C006800F05D00021084600F027F900283E
:1041B0001ED10097019B03E0700707D501230097EC
:1041C000029A0799089800F07BF81EE0F006800F2D
:1041D00021D0F00604D56878012801D0032806D143
:1041E000300707D56878002804D0022802D0D120F3
:1041F00009B0F0BD00F05CF9394600F0B1FD0028CF
:10420000F6D12978012000F0F9F80028F0D1E17CFE
:104210003143E174ECE71220EAE7000038060020A1
:10422000FFB5844624488E46026895B01146303169
:104230001E9F0E910F911046916B3C3228301192C7
:104240001091416A1291806A13901CA0006814902A
:10425000087B0026012801D102200743002402A880
:1042600014A9095D394218D0A30011A9CD580EA98F
:10427000C95832010B8883521318498859802988FC
:1042800099806988D980A9881981E9885981298903
:1042900099816989761CD981F6B2641CE4B2032C39
:1042A000DED30190634672460097179918981BF069
:1042B000BFF819B0F0BD000038060020010204006C
:1042C00038B5049C0094FFF7ABFF38BD00B585B04E
:1042D000142207496846FCF72BF806486B4600682D
:1042E000054A6C304088012103F012F905B000BD89
:1042F0002053061038060020FFFF000010B5FFF71E
:10430000E5FF10BD70B50D4606467022012121481B
:1043100019F0B8FC204C012E206014D10622012196
:104320001C4819F0AFFC21680E228863012119484E
:1043300019F0A8FC21680E22C8640121154819F063
:10434000A1FC21680865012D18D0216800201422E5
:10435000C86201210F4819F095FC216801224865C7
:1043600004210C4819F08EFC216802220862032106
:10437000084819F087FC2168486270BD01221C21A1
:10438000044819F07FFC21681422C8620348817D2B
:10439000E0E70000500600203806002084B100202D
:1043A00070B50446E1200D46800009F051F8012067
:1043B00009F0CEFA002801D0862070BD2078202197
:1043C0000843207009202870002070BD10B5FFF749
:1043D000E7FF10BD70B50022054613461BF0AEFC8A
:1043E0000446002D06D104481C220168C86A002139
:1043F00015F066F8204670BD3806002010B5FFF7AE
:10440000E9FF10BDFEB5114E002534682746483738
:10441000787D2834800717D5684616F03CFC68463E
:1044200000F0D4FA05000FD12046062269463C3040
:10443000FBF7CCFE0122064B11463068FEF70EFA60
:10444000787DFD21084078752846FEBD380600209D
:10445000A0BB0D0070B503460F480024006801257D
:104460004830807C0A468006800F002804D00D70FA
:10447000184600F039F807E000F01AF8002805D0D7
:104480001570184600F03AF8204670BD00201070F4
:10449000184600F01FF8F7E73806002003480068C8
:1044A0004830407DC007C00F70470000380600202C
:1044B00000B5074800684830807CC10601D501205E
:1044C00000BD800601D5032000BDFFF7E7FF00BD5A
:1044D0003806002010B5034906220968FBF776FE6E
:1044E00010BD00003406002010B5034906220968FB
:1044F0006431FBF76BFE10BD3806002010B5034990
:10450000062209685E31FBF761FE10BD3806002007
:1045100070470000034610B50B480268002048327F
:10452000D27C940601D5012010BDD406A40F03D07F
:10453000184600F091F910BD1B242242FBD018460A
:1045400000F076F910BD00003806002010B50028F4
:1045500002D1084600F03EF810BD10B5FFF7F6FF97
:1045600010BD10B5002A03D0084600F002FC10BDB3
:1045700000F098F810BD000010B5FFF7C3FE054825
:104580000723034A03210068FEF752F910BD00001B
:1045900005E605103806002070B50D4B1C68283460
:1045A000462813D12034E07C00060FD5207D022858
:1045B0000CD1802010700025C8B25570114618F03B
:1045C00059FBE07C4006400EE074257570BD00008C
:1045D0003806002070B51F4E142235685043696DAF
:1045E000801C0A5C00242835920702D500220A5458
:1045F000012419F097FF002803D01748817D00207F
:104600000BE00121002014224243EB6A921C9A5CC9
:10461000920700D50024401CC0B28842F3D3002C7E
:1046200017D000213068FEF78DF90C48022400688D
:1046300040308079C0070CD009482422006802214C
:104640008069002318F06EF9010002D0204618F0AE
:1046500053F970BD3806002084B1002040060020C8
:104660004406002038B50E4A146823466C3348349B
:10467000E27C150601D500280CD0DC20024008D0D1
:1046800068460270002545706946022018F0F2FA6B
:10469000E57438BD5980052020F0A4F838BD00002D
:1046A0003806002010B5FFF7DDFF10BD38B5124801
:1046B00004682834FFF722FE002814D0882816D07A
:1046C000852814D02034E07C80214006400EE07420
:1046D00000202075684601708621417069460220DD
:1046E00018F0C8FA38BD02202034207538BD0520E6
:1046F00020F078F838BD000038060020F0B5002220
:104700008DB00F46019211460592012F04D0017918
:10471000001D042918D018E08288041D100718D441
:10472000E57DE01CA6690190A0780590D00605D42F
:10473000002205990198FFF79BFC014600290BD048
:104740000125012F62D06FE00122057AC668002A98
:1047500002D001200DB0F0BD34492846096800257B
:1047600028318C4601210AE07218203AD27F002AB3
:1047700007D0735C012B07D08918491C89B281428C
:10478000F2D3012F12D04FE0491C88B2614620318C
:10479000C97CCA0702D0305CC00703E08907F0D5A6
:1047A000305C80070028ECD00125EAE7002D3BD0E3
:1047B0002088C10638D44006800F012834D10198E2
:1047C00004900598039000200990604647680025F2
:1047D000E800401BC6B2002006900790B8190722D7
:1047E00006A914F069FE0006000E05D06D1CEDB29E
:1047F000042DEDD3099D17E0BE1901250622304690
:104800000499FBF7E3FC0398B07101E001290BD197
:1048100020784006810F02D0800F022804D10122A7
:1048200005990198FFF724FC284693E738060020F5
:1048300010B5FFF763FF10BD00220079012906D0F3
:10484000002806D0012804D0042802D002E0C007C6
:1048500000D001221046704710B5FFF7EDFF10BDE4
:10486000F3B5194900250C6881B0283481070DD0B3
:104870006178002900D0D1250527FF02012801D049
:10488000022600E00126002D02D01BE02026002792
:10489000FFF70EFE029900F063FA050012D12178AD
:1048A0000120FFF7ABFD05000CD12034E07C304344
:1048B000E074202E06D004483B4601220221006805
:1048C000FDF7CCFF2846FEBD3806002030B5034674
:1048D0000948032B0CD300228C5C022C03D18D18C9
:1048E0006D78012D05D0521CA21892B29A42F3D3D2
:1048F00030BD104630BD0000FFFF0000FFB58BB09B
:104900001BA871C894468E46149A19990A961A9F44
:1049100007AE31C60591179806970390169915981A
:10492000189C0092029101900494624671460B9883
:1049300000F0A0F80FB0F0BD10B500F0F9F810BD10
:1049400010B500F015F910BDF8B50C46064619F083
:104950003CFE074619F034FE054619F03BFE1049AF
:10496000012C04D0022C05D0042C0AD015E00868D4
:104970003C300CE0002D10D000280ED00868C06C30
:1049800005E0002F09D0002807D00868006D0E222E
:104990003146FBF71BFC0020F8BD8220F8BD00006B
:1049A0003806002070B5064600200446064D05E096
:1049B000314620461BF0E7F8641CE4B2A97DA14211
:1049C00001D90028F4D070BD84B1002010B5FFF7E4
:1049D000E9FF10BD70B5234E034630680029446DD1
:1049E00002D014214A43A41821780225012B1CD09F
:1049F000A178890716D50021FDF7A4FF1A480226E1
:104A0000006840308079C0070CD018482422006824
:104A100029468069002317F085FF010002D0304647
:104A200017F06AFF0020A07070BD002300290DD090
:104A3000012902D0022909D104E0A0780C4B2843B7
:104A4000A07003E0A07804210843A070A0786178EA
:104A50000843A070002BE7D0012200213068FDF749
:104A6000FDFE70BD380600204006002044060020F0
:104A700020BF0200FFB505462B488DB006682B48C5
:104A80002836807D17468C46A84202D8822011B075
:104A9000F0BD2C4614204443F26A0021601C1154DE
:104AA000F90602D5F16A20220A54B90704D5F16A41
:104AB00008230A5C1A430A5479070AD5F26A1023BC
:104AC000115C194311543A0703D54023F26A194384
:104AD0001154F90704D0F16A01230A5C1A430A54FD
:104AE000F16A60460855FFF7E3FC84461EA807C834
:104AF00008900CAB09A80EC01AA80FC8049005A80E
:104B00000EC017A80DC8039361466B4607C316ABCA
:104B100010AA394628461BF091F80028B7D1012188
:104B2000F26A12341155B2E73806002084B1002031
:104B300070B504460C481E46807D1546A04201D83B
:104B4000822070BD20461BF0A1FF010009D107485B
:104B5000142300685C43426D231DD650406D083419
:104B60000553084670BD000084B1002038060020BF
:104B7000F7B5384884B000680024283000903648E3
:104B80000F46807D16462546B84202D2122007B055
:104B9000F0BD049838431DD1002108461BF00AF8E7
:104BA000044617E006206843315C049801280FD1C1
:104BB00000981423C26A084658431230105C01283A
:104BC00000D0D324002C03D10120FFF77DFA044646
:104BD0006D1CEDB2BD4202D2002CE3D035E0002CBA
:104BE00033D10498002803D0FFF70CFC04002CD12B
:104BF0003246394604981AF0DDFF040025D100251D
:104C000021E0284606214843315C029101218019A8
:104C100001910179002902D14088002801D00220A9
:104C200001900121029A0498FFF7D4FE049801280C
:104C30000DD0002100981423C26A02985843133003
:104C40006D1C1154EDB2BD42DBD320469FE70199A4
:104C5000F0E700003806002084B1002070B504465B
:104C60000C481646807D0D46A04201D8822070BDBA
:104C700020461BF047FF01000AD1074814230068B3
:104C80005C432346426D0C33D650406D10340553BF
:104C9000084670BD84B1002038060020F8B51446DF
:104CA0000E46054619F091FC074619F093FC104991
:104CB000012C02D0042C03D017E00868303005E046
:104CC000002F12D0002810D00868806B0B6829785C
:104CD00028331970697859709978062221439970A0
:104CE0003146FBF773FA0020F8BD8220F8BD0000C2
:104CF00038060020F0B5844617488BB004680025BC
:104D0000204630300090A06B019014A000682B4624
:104D10002834099009A8C05C08420FD09A00684660
:104D2000875806222E465643387902AA9055B21863
:104D30003888508078886D1C9080EDB25B1CDBB2A7
:104D4000022BE7D360780A46014602AB60461BF0AF
:104D500018F80BB0F0BD0000380600200104000078
:104D600010B5FFF7C7FF10BD10B5FFF777FF10BDF7
:104D7000704710B5FFF7FCFF10BD0000FFB53148CC
:104D800081B005680E460024283519F019FC47004B
:104D90007F1C19F01AFC800007433046B84300D04E
:104DA0008224A9783046884300D0D1240198402835
:104DB00004D03320405D05E0852405E03320405DCC
:104DC000E72108400028F7D12F462037B87C41075B
:104DD00004D40199DF22114200D08524000704D4B5
:104DE0000198800601D5852429E0002C27D1787D03
:104DF000800703D5FFF706FB040021D1019823218A
:104E0000084204D031460198FFF72AFD16E0F0076A
:104E100003D03878002800D1D224700703D5A86ABF
:104E2000007B002802D0002C02D008E0D22406E04B
:104E30003146049B039A0198FFF7A0F904462046E7
:104E400005B0F0BD3806002009495B2209688823B7
:104E5000525C6C311A4208D0498800050905090DD9
:104E6000000D814201D101207047002070470000F1
:104E700038060020F1B510480024056882B02046AD
:104E800026460E4F283511E0214614235943EA6A7D
:104E90001331515C012907D16846047046800671C0
:104EA0006A4602981AF086FE641CE4B2B97DA142FB
:104EB00001D90028E8D0FEBD3806002084B10020CA
:104EC00010B5FFF7D7FF10BDF8B51E4F00253E689F
:104ED00004462836002802D0411E084200D0822510
:104EE0002036F07C204201D1852529E0002D27D1F4
:104EF000C4210C4207D1E10601D5410603D42107A4
:104F000005D5400603D51AF007F8054605E000214F
:104F10000846FFF773FA050004D0A00710D0002D53
:104F20000AD00DE00020F07469460C704870022031
:104F300017F0A0FEA00703D002213868FDF702FD9C
:104F40002846F8BD3806002070B54C888088A042FD
:104F50004ED349680025087A0D2841D009DC0300AA
:104F600017F07DF80C4414441644184424442C448F
:104F70003E44132836D004DC0F2831D0112835D117
:104F80001CE0172830D0192830D12BE005252DE062
:104F900003252BE0062C29D3487A012802D00228C9
:104FA00002D023E0042116E0122114E0012C1DD9C7
:104FB0000321A0078907C84212D017E0092802D0B0
:104FC000112803D004E0042C10D301E0062C0DD3EB
:104FD000497A00290AD0A01EFBF7A8FB002905D1B9
:104FE000254603E0012501E0052CF9D2AC4201D0B1
:104FF000862070BD002070BD10B501F055FE10BDBB
:1050000010B501F053FF10BD37B5044640680222C9
:1050100001A90930FBF7DAF86068022202A90B3017
:10502000FBF7D4F83EBD0000FFB581B00C465868D0
:105030000A9E0978017220781D46174610287BD0F9
:105040000BDC801E030017F00AF80D17AB1FAB2610
:10505000AB42AB57AB5FAB6EAB001E287DD006DC1E
:10506000122808D0162879D0182876D1AFE0522817
:1050700079D0D22871D176E0686802225649093089
:10508000FBF7A4F803208AE02846E288A188FFF70E
:10509000BBFF052083E0E288A1882846FFF7B4FF24
:1050A00068682146022208310D30FBF78FF86089CD
:1050B000C11DB94201D9384600E0C01DC01F82B2EF
:1050C0000B212846E36814F01DFC072067E0E28806
:1050D000A1882846FFF798FFA368187C802807D08E
:1050E0000222092128460C3314F00CFC092056E05A
:1050F000102209212846F7E768680222211D09309D
:10510000FBF764F80B204AE068680222211D093091
:10511000FBF75CF868680222A11D0B30FBF756F81C
:105120000D203CE008E0217928464A000521A368CB
:1051300014F0E8FB0F2032E0E288A1881846FFF760
:1051400063FFA368187C802809D002220921284621
:105150000C3314F0D7FB112021E021E023E01022D2
:1051600009212846F5E768680222211D0930FBF76E
:105170002DF8E28807212846A36814F0C3FB2078A5
:10518000D22802D0122809D00AE038460C386880AC
:1051900001982946C08815F013FD01E013203070F6
:1051A0006F8005B0F0BD68680222211D0930FBF751
:1051B0000DF868680222A11D0B30FBF707F8228961
:1051C00009212846E36814F09DFB1720E7E768688B
:1051D000217941721920E2E792B1002008B54168B7
:1051E0004A7A4188012A0AD0123989B2091D89B246
:1051F0006B46022214F0AAFA6846008808BD091F0F
:10520000F3E708B541886B46891C89B2022214F085
:105210009DFA6846008808BDF0B505780024102D79
:105220003BD00DDCAD1E032605272B0016F017FF23
:105230000D1E162016221625161E1620162D1600D7
:105240001E2D42D006DC122D30D0162D38D0182D50
:1052500004D138E0522D29D0D22D27D086241088B1
:10526000884200D2014611802046F0BD1680F6E744
:105270001780F4E74089C01D16E00723138080687B
:10528000007C8028EBD115200EE000794000401C06
:1052900010808842E3D98620F0BD07231380806800
:1052A000007C8028DBD111201080D8E7C388DB1C6C
:1052B0009BB213800078D228D1D10C331380CEE773
:1052C0000089401DF0E70220EEE70120ECE710B571
:1052D00002F004F810BD70B5044640881D46134620
:1052E000052801D0862070BD60680222407A0870CF
:1052F000616818460A31FAF769FF6068007B287018
:10530000002070BD10B54288521F93B2092214F0DC
:10531000A5FA10BD70B50546008800F079F904467D
:105320006868007A1D281FD01B281DD06188CA0616
:1053300047D5012802D06278824242D110208143B1
:105340006180E188032000F063FA29462046FFF7D8
:10535000FBFD002830D0E08802F077F8842802D0E6
:1053600000206070002070BD6988A288914201D839
:10537000032904D20121284614F076FAF2E71D2809
:105380000CD1A07880060DD4E188022000F02CFA20
:1053900000280FD16088202108436080284602F051
:1053A00063F870BDA31D02220321422018F040F8CB
:1053B0000028DFD0842070BD04492846096888474A
:1053C000CCE7284600F09AF870BD00006406002083
:1053D00008B541684288497A6B46511A891D89B2DD
:1053E000022214F0B3F96846008808BD10B51346D0
:1053F00042684488527A5143891C89B28C4201D850
:10540000862010BD091D89B214F0A0F9002010BD3E
:1054100008B541684288497A6B46511A091D89B21C
:10542000022214F093F96846008808BD7CB5064650
:10543000408800F0EDF8040003D030781E2802D038
:1054400006E082207CBDA178890601D485207CBD40
:10545000410609D41E2807D0274926480860A078AD
:10546000C00601D584207CBDA18801AA3046FFF783
:10547000D3FE0028F7D168468088E188001D82B2FB
:10548000002014F09DF905001BD0601C00906846B8
:1054900082882B4631462046FFF7C6FD6868317882
:1054A00001723078410615D41E2813D0E1880320FC
:1054B00000F09AF9002809D00021284614F0D4F908
:1054C000D0E708201FF08EF988207CBD608810216D
:1054D00008436080284600F055F930781E2807D12F
:1054E000E188022000F094F96088202188436080E0
:1054F00000207CBD417304106406002038B50546C9
:1055000000886946088002226B461146422017F047
:105510008FFF040002D08424204638BD0121284694
:1055200014F0A2F9F8E70000F8B50D4F0646386808
:105530001022846AE168816225780021204613F0F8
:10554000BFFF1720A080E68025703868C16AE1603F
:10555000C462304600F040FC3046FFF74DFDF8BD18
:1055600048060020F1B5009800F052F8050038D048
:105570001C4E3068803084680EE021880098A7694E
:10558000814208D1306821468830FBF723FB002197
:10559000204614F069F93C46002CEED120460099D3
:1055A00000F036F9641CE4B2042CF7D3009800F044
:1055B00017FC0098FFF724FD009815F0C1F80020B3
:1055C000E8803168C86AA84203D1C068C86205E0B3
:1055D0001046C268AA42FBD1D268C260886AE860FD
:1055E0008D62F8BD4806002070B50E460749054695
:1055F00009680020CC6A05E031462046A84700280B
:1056000002D1E468002CF7D170BD000048060020EC
:105610000749024609680020C96A05E0CB88934221
:1056200001D108467047C9680029F7D170470000CA
:105630004806002000B5FFF7EBFF002801D00078F6
:1056400000BDFF2000BD000070B504464088C005C5
:105650001DD51148E588006802264030007A800791
:105660000DD50E483722006802218069012317F00A
:1056700059F901000DD08D80304617F03DF9E088D2
:10568000FFF770FF6088FF210131884360800020B0
:1056900070BD072070BD00004006002044060020B9
:1056A000F8B590220121204818F0ECFA1F4C204D4B
:1056B0002060E97A10221C4818F0E4FA00232268DE
:1056C0001946D362936208E00F013E18F380C1557A
:1056D000976AF760491CC9B29662EE7A8E42F3D897
:1056E000B006010E01221048491C18F0CBFA2168BF
:1056F00002220862E87A8006010E0B4818F0C2FA0E
:105700000146206807234162E97A0A4A8906090EA0
:10571000FDF78EF820688830FBF748FA00F0FAFDB4
:10572000FFF7D5FDF8BD0000500600204806002018
:1057300084B100206158041010B50C46002811D027
:105740002088FFF765FF00280ED0608800280BD066
:105750006068027AD0070DD01E2A0FD22046FFF7CC
:10576000D9FD10BD002100E00121204614F07CF895
:10577000002010BD1B2AF1D01D2AEFD0204600F0DA
:105780007DFE10BD10B542880446121D002192B264
:10579000406814F083F82146042006F021F900281F
:1057A00008D00548214600688830FBF70CFA06202F
:1057B0001FF018F810BD00004806002070B5094D14
:1057C00028688830FBF7E8F9044607E02868883045
:1057D000FBF716FAFFF7D6FF641EA4B2002CF5D132
:1057E00070BD00004806002010B504460846FFF7CB
:1057F00021FF80000019C1B20448034B0022006859
:10580000FDF72CF810BD00003075000048060020A0
:1058100010B504460846FFF70DFF80000019C1B21D
:1058200002480068FDF78EF810BD00004806002011
:10583000810810B509480068C06A0CE002788A4205
:1058400008D14188FF2201321143418007201EF018
:10585000C9FF10BDC0680028F0D110BD4806002067
:1058600010B54069014918F01FFA10BD31580410F5
:1058700010B500210448FFF7B7FE002802D007202A
:105880001EF0B0FF10BD00004956041070B5002096
:1058900013F076FF1249C98923314909491CFAF7E7
:1058A00045FF002812D004460E48422500684722D2
:1058B00080690123294617F035F801000BD000203C
:1058C0008880CC80284617F017F870BD002108208A
:1058D0001EF0E6FF70BD08201EF084FF70BD0000C2
:1058E00084B100204406002030B509490346002059
:1058F0000A685421895A07E0C400956DA41C2C5BEA
:105900009C4204D2401C80B28142F5D8014830BD8F
:1059100048060020FFFF0000FFB50F4681B0154686
:10592000B84223D8134E31684031898A00291DD0EE
:10593000FFF7DAFF04463846FFF7D6FF0146326824
:105940005420805A401E884200D281B220460BE08B
:10595000946DC300E65CAE4204D11B1DE458049B69
:105960009C4204D0401C80B28842F1D9024805B064
:10597000F0BD000048060020FFFF000010B50446FF
:10598000FFF7B2FF0649884208D0064A1268936DB5
:10599000C200921C9A5AA24200D0084610BD0000D4
:1059A000FFFF00004806002010B5FFF7B5FF0549CE
:1059B000884205D00449C0000968896D081810BDE7
:1059C000002010BDFFFF00004806002010B5FFF7C3
:1059D000D5FF0549884201D1002010BD0349C00010
:1059E0000968896D081810BDFFFF000048060020F7
:1059F00010B5FFF779FF0549884201D1002010BD9D
:105A00000349C0000968896D081810BDFFFF000038
:105A10004806002010B50A490A685421895A0BE04B
:105A2000CB00946D083BE35C834203D1C800083887
:105A3000201810BD491E89B20029F1D1002010BDE7
:105A40004806002007490A68916D4032D28AD20088
:105A5000083A8A18904203D8401A4003000C704755
:105A60000148704748060020FFFF000070B504465B
:105A70000078022803D0002801D0204670BD2046BF
:105A8000FFF7E0FF401C81B20F4854230268985A88
:105A90000EE02378022B02D0002B10D006E0936D8D
:105AA000CD005B5D022B05D0002B03D0491C89B2D1
:105AB0008842EED8926DC8000838101870BD936DFA
:105AC000CD005B5DF0E700004806002010B5FFF751
:105AD000CDFF408810BD0000054801685420405AA1
